:020000041000EA
:101000002009002019100010353100103731001070
:1010100000040000000000000248854602488047A6
:1010200012E0000020090020D1100010002A0AD090
:10103000042A00D20422920803680B60013A02D00D
:1010400004300431F8E7704711481249124AFFF79B
:10105000EDFF12481249134AFFF7E8FF12481349FF
:10106000134AFFF7E3FF13481349002906D0890804
:1010700000220260013901D00430FAE70F488546AA
:101080000F4880470F488047002000210E4A9746AE
:1010900000AF0010302000208000000080AF001062
:1010A000B020002000000000F0AD00100C00002077
:1010B00010010000200900200C170000200900206A
:1010C00065310010CD100010F92C0010C04670479B
:1010D000C046704780B582B000AF78600A1CBB1C68
:1010E0001A807B68BA1C12889A80BD4602B080BD07
:1010F00080B582B000AF78607B689B881BB2181CFB
:10110000BD4602B080BDC04680B582B000AF7860F9
:10111000BD4602B080BDC04680B586B000AF7860E5
:101120003B1C0C33181C04F03FFF3CE0224B1B68B7
:1011300079683A1C0C32081C111C1A1C00F06AFB5E
:10114000031C002B34D07B681B681A1C1A4B1B68CD
:101150001B69101C191C00F0D9FB174B1B687B6125
:10116000154B1B685A69144B1A607B699B68002BEE
:101170000AD17B69DB68002B06D17A687B69101C79
:10118000191C00F0ABFA0EE07A697B6908337968C4
:10119000081C111C1A1C00F061FB7A687B69101C8A
:1011A000191C00F0F1FA044B1B68002BBED100E0C3
:1011B000C046BD4606B080BDD81F002080B584B0B3
:1011C00000AF7860134B00221A60134B134A1A6069
:1011D000124AEE235B000021D1500023FB6013E094
:1011E000FB685A1C131C5B009B18DB000B4A991808
:1011F0000A48FA68131C5B009B18DB00C318143301
:101200001960FB680133FB60FB68122BE8DDBD460B
:1012100004B080BDD81F0020DC1F0020F81D002076
:1012200080B588B000AFF860B9607A60FB68181CC0
:1012300000F03AFA031CFB61FB69002B35D07B6898
:10124000181CFA23990008F0F3FA031C1A1C3B1C23
:1012500014331A607B68181CFA23990008F02CFBE1
:101260000B1C134A53431A1C3B1C14335A60FB6972
:1012700000229A60FB690022DA60BB681B7B1A1CA3
:10128000FB691A61FB69181C04F08EFEFA69F968A3
:101290003B1C1433081C111C1A1C00F0DFFAFA68FE
:1012A000FB69101C191C00F06FFABD4608B080BD28
:1012B00040420F0080B588B000AFF860B9607A6036
:1012C000FB68181C00F0F0F9031CFB61FB69002BA4
:1012D00035D07B68181CFA23990008F0A9FA031C82
:1012E0001A1C3B1C14331A607B68181CFA239900E3
:1012F00008F0E2FA0B1C134A53431A1C3B1C14332C
:101300005A60FB693A1C1432083303CA03C3BB6832
:101310001B7B1A1CFB691A61FB69181C04F044FE54
:10132000FA69F9683B1C1433081C111C1A1C00F0E4
:1013300095FAFA68FB69101C191C00F025FABD46E5
:1013400008B080BD40420F0080B582B000AF786029
:1013500039603B681B7B7A68101C191C00F0D0F9BF
:10136000BD4602B080BDC04680B582B000AF786097
:10137000BB1C19803B1C1A8010E0BB1C00215B5E6B
:10138000022B06D17B6802221A81BB1C01221A8023
:1013900004E0BB1CBA1C12881A80C046BA1C3B1C55
:1013A0000021525E00215B5E9A42E6D1BD4602B04A
:1013B00080BDC04680B586B000AFF860B9607A6085
:1013C0003B60BB68022B0ED002DC012B05D02CE069
:1013D000032B15D0042B20D027E0FB68181CFFF747
:1013E000EDFE022323E03B681B687B61F9687A68A5
:1013F0007B69081C111C1A1CFFF712FF022316E060
:101400003B681B683B61F9687A683B69081C111CE2
:101410001A1CFFF74FFF022309E0FA687B68101CD3
:10142000191CFFF791FF022301E0C04600231BB205
:10143000181CBD4606B080BD80B584B000AF786092
:101440000A1CBB1C1A803B1C0F3300221A70BB1CE9
:1014500000229B5E022B09DDBB1C1B88033B9AB25A
:10146000BB1C1A803B1C0F3301221A70BB1C0022CC
:101470009B5E012B0DD0022B10D13B1C0F331B7830
:10148000002B03D17B68181CFFF73EFE02231BB222
:101490000AE0BB1C7A6812891A8000E0C0463B1C37
:1014A0000F3300221A70E1E7181CBD4604B080BD5E
:1014B00090B585B000AF78600123FB603C1C0A3416
:1014C0007A68FB68101C191C00220023FFF772FFCA
:1014D000031C23803C1C0A347A683B1C0A3300211D
:1014E0005B5E101C191CFFF7A7FF031C23807A68A2
:1014F0003B1C0A3300215B5E101C191CFFF7EAFD40
:10150000BD4605B090BDC04690B589B000AFF8604B
:10151000B9607A603B60BB68002B07D0BB685B7A20
:101520001A1C7B6864214B43D31800E000237B61C5
:101530000023FB613B1C1A3300221A80B9687A68C9
:101540003B68081C111C1A1C04F066FD031C002BD0
:1015500031D1FB68181CFFF7CBFD031C022B29D1EE
:101560007B69C92B16D002DC002B07D020E02D4A66
:10157000934208D02C4A934213D019E0FB68181C00
:10158000FFF7CAFD15E00223FB613B1C1A33012261
:101590001A800EE00323FB613B1C1A3301221A80E0
:1015A00007E00423FB613B1C1A3301221A8000E090
:1015B000C04600E0C046FB69002B2FD0FB68181C1A
:1015C000FFF796FD031C1A1CF9683B1C1A33002018
:1015D0001B5E081C111C1A1CFFF7C6FE3C1C1234B3
:1015E000F868F969BA683B68FFF7E4FE031C2380DA
:1015F0003C1C1234FA683B1C123300215B5E101C49
:10160000191CFFF719FF031C2380FA683B1C1233D7
:1016100000201B5E101C191CFFF75CFDBD4609B0C5
:1016200090BDC0462D0100009101000080B584B03E
:1016300000AF78607B6801229A800023FB6008E09D
:101640007A68FB685B00D3180022DA80FB680133FC
:10165000FB60FB68012BF3DD7B68181CFFF728FF9C
:10166000BD4604B080BDC04680B584B000AFF86010
:10167000B9607A607B68DB881AB27B680833F868E7
:10168000B968FFF741FFBD4604B080BD80B582B0A8
:1016900000AF78607B68181C002100220023FFF750
:1016A00033FFBD4602B080BD80B584B000AF786026
:1016B000094B1B68FB60084B1B68002B07D0064BCF
:1016C0001B685A69044B1A60FB6800225A61FB6868
:1016D000181CBD4604B080BDDC1F002080B582B060
:1016E00000AF78603960054B1A683B685A61034B5C
:1016F0003A681A60BD4602B080BDC046DC1F0020BB
:1017000080B584B000AF786039601E4B1B68FB6009
:101710001C4B1B68BB60FB68002B2ED0194B1B6851
:101720001A693B689A420BD1164B1B685A69154BD4
:101730001A607A68FB68101C191CFFF7CFFF1DE0C8
:10174000FB685B69FB6014E0FB681A693B689A42BE
:101750000AD1FB685A69BB685A617A68FB68101C39
:10176000191CFFF7BBFF09E0FB68BB60FB685B6906
:10177000FB60FB68002BE7D100E0C046BD4604B02B
:1017800080BDC046D81F002080B584B000AF78600F
:1017900039601F4B1B68FB601D4B1B68BB60FB68FF
:1017A000002B06D13B6800225A61194B3A681A6037
:1017B0002AE0FB68002B20D03A68FB687968081C97
:1017C000111C1A1C00F026F8031C002B05D0FB6826
:1017D000BB60FB685B69FB60EBE73B68FA685A61DA
:1017E0000B4B1B68FA689A4203D1094B3A681A609E
:1017F0000AE0BB683A685A6106E03B6800225A6119
:10180000BB683A685A61C046BD4604B080BDC04658
:10181000D81F002080B584B000AFF860B9607A604E
:10182000BB681A687B681B689A4201DD012310E0DF
:10183000BB681A687B681B689A4201DA002308E0DB
:10184000BB685A687B685B689A4201DD012300E04F
:101850000023181CBD4604B080BDC04680B584B0CE
:1018600000AFF860B9607A60BB681A687B681B6873
:10187000D218BB681A60BB685A687B685B68D2186C
:10188000BB685A600AE0BB681B685A1CBB681A60D8
:10189000BB685B6805495A18BB685A60BB685A68E0
:1018A000034B9A42EFDCBD4604B080BD003665C4F0
:1018B000FFC99A3B80B582B000AF78607B68181C86
:1018C00001210022002304F0B3FBBD4602B080BD1D
:1018D00080B584B000AF78600023FB600DE07B68CA
:1018E0005A68FB681B01D318181C01210022002331
:1018F00004F09EFBFB680133FB607B681B881AB217
:10190000FB689A42EBDCBD4604B080BD80B582B076
:1019100000AF786039603B68002B10DB7B681B8868
:101920001AB23B689A420ADD7B685A683B681B0121
:10193000D318181C01210022002304F079FBBD46B6
:1019400002B080BD80B582B000AF78607B681B8834
:101950001BB2181CBD4602B080BDC04680B582B027
:1019600000AF786039607B681B681B78002B0AD158
:101970007B681B6803221A707A683B1C101C0221CA
:10198000042204F055FBBD4602B080BD80B584B092
:1019900000AF786039600023FB600DE07B685A6817
:1019A000FB681B01D3181A1C3B68101C191CFFF79D
:1019B000D5FFFB680133FB607B681B881AB2FB68AC
:1019C0009A42EBDCBD4604B080BDC04680B584B011
:1019D00000AFF860B9607A60FB685A68BB681B01A9
:1019E000D3181A1C7B68101C191CFFF7B7FFBD46E3
:1019F00004B080BD80B582B000AF786039607B688C
:101A00001B681B78002B0AD17B681B6801221A70A7
:101A10007A683B1C101C0321042204F009FBBD461C
:101A200002B080BD80B584B000AF7860396000231B
:101A3000FB600DE07B685A68FB681B01D3181A1C19
:101A40003B68101C191CFFF7D5FFFB680133FB60D6
:101A50007B681B881AB2FB689A42EBDCBD4604B077
:101A600080BDC04680B584B000AFF860B9607A60D0
:101A7000FB685A68BB681B01D3181A1C7B68101CD2
:101A8000191CFFF7B7FFBD4604B080BD80B582B01A
:101A900000AF78607B681B681B78002B0AD07B68DE
:101AA0001B6800221A707B68181C04210022002386
:101AB00004F0BEFABD4602B080BDC04680B584B019
:101AC00000AF78600023FB600AE07B685A68FB681F
:101AD0001B01D318181CFFF7D9FFFB680133FB600B
:101AE0007B681B881AB2FB689A42EEDCBD4604B0E4
:101AF00080BDC04680B582B000AF786039607B6839
:101B00005A683B681B01D318181CFFF7BFFFBD467E
:101B100002B080BD80B582B000AF78607B681B8862
:101B20001BB2181CBD4602B080BDC04680B584B053
:101B300000AFF860B9607A603B60FB681B681B7897
:101B4000002B0DD0FB681B681B78012B03D1FB68B1
:101B50001B6800221A707868F968BA683B68984771
:101B6000BD4604B080BDC04680B582B000AF78608D
:101B70000A1CBB1C1A807B68BA1C12889A81BD465D
:101B800002B080BD80B582B000AF78607B689B8971
:101B90001BB2181CBD4602B080BDC04680B582B0E5
:101BA00000AF78607B681B681A1C7B689B68101C00
:101BB000191C01F07DFA7B681B680C33181C0A2184
:101BC000FFF7CCFE7B6800221A71BD4602B080BDD3
:101BD00080B582B000AF786039607B681B681A1CE2
:101BE0007B681B79101C191C01F080FABD4602B0FD
:101BF00080BDC04680B582B000AF786039607B6838
:101C00001B681A1C7B681B79101C191C01F06EFAEA
:101C10007B68C8221A71BD4602B080BD80B582B013
:101C200000AF786039607B681B681A1C7B681B7981
:101C3000101C191C01F05AFABD4602B080BDC04606
:101C400080B582B000AF7860BB1C19803B1C1A8045
:101C500022E0BB1C00215B5E032B0AD0042B0FD0BB
:101C6000022B14D17B6802221A82BB1C01221A802B
:101C700012E07B6803221A82BB1C01221A800BE04F
:101C80007B6804221A82BB1C01221A8004E0BB1C60
:101C9000BA1C12881A80C046BA1C3B1C0021525E36
:101CA00000215B5E9A42D4D1BD4602B080BDC046E1
:101CB00080B584B000AFF860B9607A603B60BB6803
:101CC000022B0ED002DC012B05D046E0032B1CD0EA
:101CD000042B34D041E0FB68181CFFF75FFF0223A0
:101CE0003DE0FB681B790133DAB2FB681A71FB68CF
:101CF0001B79632B07D8FA687B68101C191CFFF747
:101D000067FF02232BE0032329E0FB681B79013BDB
:101D1000DAB2FB681A71FB681B79002B07D0FA68EE
:101D20007B68101C191CFFF779FF032317E0FA6882
:101D30007B68101C191CFFF75DFF04230FE0FB6894
:101D40001B79013BDAB2FB681A71FB681B79002B27
:101D500001D0042303E0022301E0C04600231BB2AC
:101D6000181CBD4604B080BD80B584B000AF78605B
:101D70000A1CBB1C1A803B1C0F3300221A70BB1CB0
:101D800000229B5E042B09DDBB1C1B88053B9AB21D
:101D9000BB1C1A803B1C0F3301221A70BB1C002293
:101DA0009B5E022B08D002DC012B0BD00FE0032B33
:101DB00004D0042B04D00AE002230EE003230CE03D
:101DC00004230AE0BB1C7A68128A1A8000E0C0462D
:101DD0003B1C0F3300221A70E0E71BB2181CBD46F3
:101DE00004B080BD90B585B000AF78600123FB6082
:101DF0003C1C0A347A68FB68101C191C0022002362
:101E0000FFF756FF031C23803C1C0A347A683B1CF6
:101E10000A3300215B5E101C191CFFF7A5FF031C91
:101E200023807A683B1C0A3300215B5E101C191C5E
:101E3000FFF79AFEBD4605B090BDC04690B589B08B
:101E400000AFF860B9607A603B60BB685B7A1A1CCF
:101E50007B6864214B43D3187B610023FB613B1CEF
:101E60001A3300221A80B9687A683B68081C111C72
:101E70001A1C04F0D1F8031C002B2FD1FB68181C8E
:101E8000FFF780FE031C032B0FD0042B19D0022B6D
:101E900023D17B69662B06D10223FB613B1C1A33DD
:101EA00001221A8000E0C04618E07B69662B06D14B
:101EB0000323FB613B1C1A3301221A8000E0C04659
:101EC0000CE07B69662B06D10423FB613B1C1A33B3
:101ED00001221A8000E0C04600E0C046FB69002BEA
:101EE0002FD0FB68181CFFF74DFE031C1A1CF96865
:101EF0003B1C1A3300201B5E081C111C1A1CFFF728
:101F00009FFE3C1C1234F868F969BA683B68FFF719
:101F1000CFFE031C23803C1C1234FA683B1C123396
:101F200000215B5E101C191CFFF71EFF031C2380A1
:101F3000FA683B1C123300201B5E101C191CFFF7B3
:101F400013FEBD4609B090BD80B584B000AF786087
:101F50007B6801229A810023FB6009E07A68FB68B4
:101F600004335B00D3180022DA80FB680133FB6086
:101F7000FB68012BF2DD7B68181CFFF733FFBD46C1
:101F800004B080BD80B584B000AFF860B9607A60FD
:101F90007B68DB881AB27B680833F868B968FFF79A
:101FA0004DFFBD4604B080BD80B582B000AF786003
:101FB0000A1CBB1C1A807B68BA1C12881A84BD4696
:101FC00002B080BD80B582B000AF78607B681B8CAA
:101FD0001BB2181CBD4602B080BDC04680B582B0A1
:101FE00000AF78607B6800225A607B680833181C59
:101FF00000F05AFB7B681B681A1C3032FA235B0026
:10200000101C191CFFF7F6FC7B681B682433181C96
:10201000002100F0EBFF7B681B680C33181C0021CB
:1020200000F0CEFE7B681B681833181C012100F0FD
:10203000C7FE7B681B680C33181C00F0F3FE7B683E
:102040001B681833181C00F021FFBD4602B080BD8C
:1020500080B584B000AFF860B9607A60FB681B6837
:102060003033181CC821FFF7C5FCFB685B685A1C9D
:10207000FB685A60FB681B681833181C00F01AFFD5
:10208000FB681B680C33181C00F014FFFB681B680E
:102090001A1C2432044B101C191C122200F0D4FF0D
:1020A000BD4604B080BDC046C4A7001080B582B054
:1020B00000AF786039607B681B681A1C7B68083346
:1020C000101C191C00F070FBBD4602B080BDC0465C
:1020D00080B582B000AF7860BB1C19803B1C1A80B1
:1020E00010E0BB1C00215B5E022B06D17B68022244
:1020F0009A84BB1C01221A8004E0BB1CBA1C128803
:102100001A80C046BA1C3B1C0021525E00215B5E57
:102110009A42E6D1BD4602B080BDC04680B586B0C9
:1021200000AFF860B9607A603B60BB68022B09D0F1
:10213000032B13D0012B19D1FB68181CFFF74EFF9E
:10214000022315E03B687B61F9687A687B69081CAB
:10215000111C1A1CFFF77CFF022309E0FA687B6858
:10216000101C191CFFF7A2FF022301E0C046002348
:102170001BB2181CBD4606B080BDC04680B584B0F9
:1021800000AF78600A1CBB1C1A803B1C0F33002276
:102190001A70BB1C00229B5E022B09DDBB1C1B8836
:1021A000033B9AB2BB1C1A803B1C0F3301221A70EE
:1021B000BB1C00229B5E012B04D0022B07D1022303
:1021C0001BB20AE0BB1C7A68928C1A8000E0C04601
:1021D0003B1C0F3300221A70EAE7181CBD4604B0FE
:1021E00080BDC04690B585B000AF78600123FB602C
:1021F0003C1C0A347A68FB68101C191C002200235E
:10220000FFF78CFF031C23803C1C0A347A683B1CBC
:102210000A3300215B5E101C191CFFF7AFFF031C83
:1022200023807A683B1C0A3300215B5E101C191C5A
:10223000FFF7BAFEBD4605B090BDC04690B589B067
:1022400000AFF860B9607A603B60BB685B7A1A1CCB
:102250007B6864214B43D3187B610023FB613B1CEB
:102260001A3300221A80B9687A683B68081C111C6E
:102270001A1C03F0D1FE031C002B1DD1FB68181C97
:10228000FFF7A0FE031C022B15D17B69682B02D03F
:10229000692B07D00DE00223FB613B1C1A3301229E
:1022A0001A8007E00323FB613B1C1A3301221A80CA
:1022B00000E0C04600E0C046FB69002B2FD0FB6861
:1022C000181CFFF77FFE031C1A1CF9683B1C1A330D
:1022D00000201B5E081C111C1A1CFFF7F9FE3C1C99
:1022E0001234F868F969BA683B68FFF717FF031CF6
:1022F00023803C1C1234FA683B1C123300215B5EC5
:10230000101C191CFFF73AFF031C2380FA683B1CC2
:10231000123300201B5E101C191CFFF745FEBD4642
:1023200009B090BD80B584B000AF78607B680122B1
:102330001A840023FB6009E07A68FB6810335B00B5
:10234000D31800225A80FB680133FB60FB68012B25
:10235000F2DD7B68181CFFF745FFBD4604B080BD69
:1023600080B584B000AFF860B9607A607B68DB88C4
:102370001AB27B680833F868B968FFF75FFFBD469B
:1023800004B080BD80B582B000AF78600A1CBB1C71
:102390001A807B68BA1C12889A80BD4602B080BD44
:1023A00080B582B000AF78607B689B881BB2181C38
:1023B000BD4602B080BDC04680B584B000AFF860B5
:1023C000B9607A60FB681B681A1C7B68101C191CBA
:1023D00000F090F9BD4604B080BDC04680B582B023
:1023E00000AF7860BB1C19803B1C1A8010E0BB1C3E
:1023F00000215B5E022B06D17B6802221A81BB1C86
:1024000001221A8004E0BB1CBA1C12881A80C04644
:10241000BA1C3B1C0021525E00215B5E9A42E6D151
:10242000BD4602B080BDC04680B586B000AFF86042
:10243000B9607A603B60BB68012B02D0022B02D0EE
:102440000DE002230DE03B687B61F9687A687B69E7
:10245000081C111C1A1CFFF7AFFF022301E0C04645
:1024600000231BB2181CBD4606B080BD80B584B0E9
:1024700000AF78600A1CBB1C1A803B1C0F33002283
:102480001A70BB1C00229B5E022B09DDBB1C1B8843
:10249000033B9AB2BB1C1A803B1C0F3301221A70FB
:1024A000BB1C00229B5E012B04D0022B07D1022310
:1024B0001BB20AE0BB1C7A6812891A8000E0C04691
:1024C0003B1C0F3300221A70EAE7181CBD4604B00B
:1024D00080BDC04690B585B000AF78600123FB6039
:1024E0003C1C0A347A68FB68101C191C002200236B
:1024F000FFF79AFF031C23803C1C0A347A683B1CBC
:102500000A3300215B5E101C191CFFF7AFFF031C90
:1025100023807A683B1C0A3300215B5E101C191C67
:10252000FFF730FFBD4605B090BDC04690B589B0FD
:1025300000AFF860B9607A603B60BB685B7A1A1CD8
:102540007B6864214B43D3187B610023FB613B1CF8
:102550001A3300221A80B9687A683B68081C111C7B
:102560001A1C03F059FD031C002B13D1FB68181C27
:10257000FFF716FF031C022B0BD17B69C92B06D179
:102580000223FB613B1C1A3301221A8000E0C04683
:1025900000E0C046FB69002B2FD0FB68181CFFF73A
:1025A000FFFE031C1A1CF9683B1C1A3300201B5E3B
:1025B000081C111C1A1CFFF711FF3C1C1234F86890
:1025C000F969BA683B68FFF72FFF031C23803C1CA6
:1025D0001234FA683B1C123300215B5E101C191C7C
:1025E000FFF744FF031C2380FA683B1C12330020D2
:1025F0001B5E101C191CFFF7C5FEBD4609B090BD3F
:1026000080B584B000AF78607B6801229A80002397
:10261000FB6008E07A68FB685B00D3180022DA8070
:10262000FB680133FB60FB68012BF3DD7B68181C42
:10263000FFF750FFBD4604B080BDC04680B584B0F2
:1026400000AFF860B9607A607B68DB881AB27B689B
:102650000833F868B968FFF769FFBD4604B080BD6C
:1026600080B584B000AF786039603B1C0F33002226
:102670001A7010E03B1C0F331B787A68D25C3B6801
:102680001A703B6801333B603B1C0F333A1C0F321E
:10269000127801321A703B1C0F331B78092BE9D9D1
:1026A000BD4604B080BDC04680B584B000AF786040
:1026B0000023FB6008E0FB68DAB27968FB68CB189E
:1026C0001A70FB680133FB60FB68092BF3DDBD4624
:1026D00004B080BD80B582B000AF786039603A68E0
:1026E0007B68101C191C0A2207F02CFFBD4602B0A3
:1026F00080BDC04680B582B000AF786039607A682E
:102700003B68101C01210A2203F092FCBD4602B076
:1027100080BDC04680B584B000AF786039600023CA
:10272000FB600EE07B685A68FB681B01D3181A1C1B
:102730003B68101C01210A2203F07AFCFB6801337C
:10274000FB607B681B881AB2FB689A42EADCBD46D4
:1027500004B080BD80B584B000AFF860B9607A6025
:10276000BB68002B11DBFB681B881AB2BB689A425E
:102770000BDDFB685A68BB681B01D3181A1C7B6809
:10278000101C01210A2203F053FCBD4604B080BD99
:1027900080B582B000AF78607B681B881BB2181CC4
:1027A000BD4602B080BDC04680B582B000AF786043
:1027B00039607A683B68101C02210A2203F038FC59
:1027C000BD4602B080BDC04680B584B000AF786021
:1027D00039600023FB600EE07B685A68FB681B01D0
:1027E000D3181A1C3B68101C02210A2203F020FC9B
:1027F000FB680133FB607B681B881AB2FB689A4256
:10280000EADCBD4604B080BD80B584B000AFF8609E
:10281000B9607A60BB68002B11DBFB681B881AB2B9
:10282000BB689A420BDDFB685A68BB681B01D31872
:102830001A1C7B68101C02210A2203F0F9FBBD461A
:1028400004B080BD80B582B000AF78607B681B8823
:102850001BB2181CBD4602B080BDC04680B582B018
:1028600000AF7860BD4602B080BDC04680B584B080
:1028700000AFF860B9607A60BD4604B080BDC04664
:1028800080B582B000AF78607B689B881BB22F2B2D
:1028900064D89A00394BD3181B689F467B68DB8845
:1028A0001BB2022B63D1002363E03549354A7B68B4
:1028B000081C111C1A1CFFF753FD59E03049324A1D
:1028C0007B68081C111C1A1CFFF74AFD50E02C49BC
:1028D0002E4A7B68081C111C1A1CFFF741FD47E0BB
:1028E00027492B4A7B68081C111C1A1CFFF738FD6E
:1028F0003EE07B68DB881BB2012B06D12548796856
:102900001F4A254BFFF712F908E01D49214A7B6851
:10291000081C111C1A1CFFF723FDC04628E01F49A4
:102920001F4A7B68081C111C1A1CFFF72BFB1FE0B9
:102930007B68DB881BB2012B06D11A487968174ADD
:10294000194BFFF7F3F808E01449164A7B68081C96
:10295000111C1A1CFFF716FBC04609E07B689B8818
:102960001BB2124A101C191C03F0C6FA00E0C04644
:102970000123181CBD4602B080BDC046ECA8001063
:1029800038200020F4A7001000A800100CA80010A8
:1029900018A8001024A80010612300108020002037
:1029A00054A8001060A80010851F0010A4A80010F3
:1029B00080B500AF024B181CFEF768FEBD4680BD17
:1029C0009420002080B582B000AF78607B689B883F
:1029D0001BB2332B5ED89A00364BD3181B689F4628
:1029E0007B68DB881BB2012B02D1FFF7E1FF5AE0C5
:1029F0007B68DB881BB2022B55D1002355E02E49A2
:102A00002E4A7B68081C111C1A1CFFF717FE4BE0AE
:102A10002B492C4A7B68081C111C1A1CFFF7B2FAC0
:102A200042E07B68DB881BB2012B06D1264879681F
:102A3000234A264BFFF77AF808E02149224A7B68AF
:102A4000081C111C1A1CFFF79DFAC0462CE0204BF5
:102A50005B681A1C1F497B68081C111C1A1CFEF7B6
:102A600003FE21E01A4B5B6810331A1C19497B687E
:102A7000081C111C1A1CFEF7F7FD15E0144B5B68CF
:102A800020331A1C13497B68081C111C1A1CFEF702
:102A9000EBFD09E07B689B881BB20F4A101C191CD8
:102AA00003F02AFA00E0C0460123181CBD4602B01C
:102AB00080BDC046F8A900106020002030A800109A
:102AC0006C2000203CA8001048A80010851F0010B2
:102AD0009CA8001094200020ACA90010B0B588B0CC
:102AE00006AF3B1C00221A603B1C194A5A60194869
:102AF000194996230093012301933A1C08236C463D
:102B0000E31830CA30C3154B0493022305930A22FD
:102B1000202303F0D1FA3B1C00221A603B1C104A10
:102B20005A601048104996230093022301933A1CDF
:102B300008236D46EB1830CA30C30C4B04930223B4
:102B400005930A22202303F0B7FABD4602B0B0BDB8
:102B500080F0FA02600A002020090020812800107D
:102B6000404B4C000C0C0020CC0A0020C529001062
:102B700080B500AF044B181C03F002FB034B181C7C
:102B800003F0FEFABD4680BD0C0C0020600A002058
:102B900080B500AF044B181C03F00EFB034B181C50
:102BA00003F00AFBBD4680BD600A00200C0C00202B
:102BB00080B500AF044B181C03F026FB034B181C18
:102BC00003F022FBBD4680BD600A00200C0C0020F3
:102BD00080B500AF074B1B68074A101C191C03F097
:102BE0009BF900F05DF8FFF779FF00F05DF8BD4656
:102BF00080BDC04630200020C8AA001080B500AFBC
:102C0000054B1B68054A101C191C03F085F9FFF7DA
:102C1000AFFFBD4680BDC04630200020D0AA0010C6
:102C200080B582B000AF021CFB1D1A70BD4602B019
:102C300080BDC04680B500AF054B1B68054A101C1F
:102C4000191C03F069F9FFF7A3FFBD4680BDC0461C
:102C500030200020DCAA001080B500AF054B1B68B7
:102C6000054A101C191C03F057F9FFF7A1FFBD46D8
:102C700080BDC04630200020E4AA001080B500AF1F
:102C8000054B1B68054A101C191C03F045F9024B43
:102C900001225A60BD4680BD30200020F0AA0010FD
:102CA00080B500AFBD4680BD80B500AF0C4B181C91
:102CB000FFF7D4FD0B4B181CFFF734FB0A4B181C15
:102CC000FFF79EFC094B181CFFF73EF9084B181C38
:102CD000FFF73AF9074B181CFEF7A8FCBD4680BD6C
:102CE000780C002038200020602000206C2000207C
:102CF000802000209420002080B584B000AF786050
:102D000039603B1C0F3300221A707B68012B0EDDEB
:102D10003B6804331A68204B101C191C07F040FD57
:102D2000031C002B03D13B1C0F3301221A707B685C
:102D3000012B0EDD3B6804331A68184B101C191C5C
:102D400007F02EFD031C002B03D13B1C0F33012287
:102D50001A7003F009F9124B181C03F0C5F8FFF7BD
:102D600037FFFFF74BFF03F005F93B1C0F331B78D0
:102D7000181CFFF755FF03F003F9FFF75BFFFFF7A0
:102D80006BFF084B181C03F0AFF803F0FDF80023AD
:102D9000181CBD4604B080BDFCAA001008AB001092
:102DA00018AB001038AB001080B582B000AF78606F
:102DB0007B681B881BB2181CBD4602B080BDC04694
:102DC00080B582B000AF786039603B68002B02D0DC
:102DD000012B06D00BE07B681B68074A03CA03C3BC
:102DE00006E07B681B68054A03CA03C300E0C046CF
:102DF000BD4602B080BDC04618AC001020AC00102B
:102E000080B582B000AF78607B681B685B685A6AE7
:102E10007B681B685B78DA4001231340181CBD46B1
:102E200002B080BD80B582B000AF78607B681B685F
:102E30005B687A68126852780121081C9040021C75
:102E40005A60BD4602B080BD80B582B000AF7860E8
:102E50000A1CFB1C1A707B681B685B68FA1C1278E2
:102E6000002A07D07A68126852780121081C904025
:102E7000021C07E07A681268527880214902081C17
:102E80009040021C5A60BD4602B080BD80B582B041
:102E900000AF78607B681B685B687A68126852785C
:102EA00080214902081C9040021C5A60BD4602B0B5
:102EB00080BDC04680B582B000AF78607B681B687B
:102EC0005B687A68126852780349081C9040021CBB
:102ED0005A60BD4602B080BD0100010080B582B0DD
:102EE00000AF78600A1CFB1C1A707B681B681A1CF8
:102EF000FB1C1B78101C191C02F01EFCBD4602B006
:102F000080BDC04680B582B000AF78600A1CFB1C53
:102F10001A707B681B681A1CFB1C1B78101C191C80
:102F200002F0E4FCBD4602B080BDC04680B582B070
:102F300000AF78607B681B881BB2181CBD4602B0CE
:102F400080BDC04680B582B000AF78607B681B88CA
:102F50001BB2181CBD4602B080BDC04680B582B011
:102F600000AF78607B68181C01210022002303F069
:102F70005FF8BD4602B080BD80B584B000AF786018
:102F80000023FB600DE07B685A68FB681B01D318C7
:102F9000181C01210022002303F04AF8FB680133CA
:102FA000FB607B681B881AB2FB689A42EBDCBD466B
:102FB00004B080BD80B582B000AF786039603B68F6
:102FC000002B10DB7B681B881AB23B689A420ADD33
:102FD0007B685A683B681B01D318181C012100222A
:102FE000002303F025F8BD4602B080BD80B582B055
:102FF00000AF786039607B681B68044A39688900D3
:103000008A581A60BD4602B080BDC046A02000208C
:1030100080B584B000AFF860B9607A60FB681B6867
:103020001B68002B0BD0FB681B681968BA687B68AB
:10303000081C111C1A1C00F0A9FE031C00E0002350
:10304000181CBD4604B080BD80B584B000AFF860E8
:10305000B9607A60FB681B681B68002B0BD0FB68AB
:103060001B681968BA687B68081C111C1A1C00F0E0
:1030700007FF031C00E00023181CBD4604B080BD00
:1030800080B582B000AF78607B681B881BB2181CCB
:10309000BD4602B080BDC04680B582B000AF78604A
:1030A0007B681B881BB2181CBD4602B080BDC046A1
:1030B00080B582B000AF786039603B68002B02D0E9
:1030C000012B05D009E07B681B68064A1A6005E001
:1030D0007B681B68044A1A6000E0C046BD4602B027
:1030E00080BDC04688AB0010D0AB001090B583B057
:1030F00000AF78600A1CFB1C1A707B681B681C6898
:10310000FB1C1B78181C07F051F9031C201C191C10
:1031100001F0C4FBBD4603B090BDC04680B582B08F
:1031200000AF78607B681B881BB2181CBD4602B0DC
:1031300080BDC046FEE7FEE7FEE7FEE7FEE7FEE7EE
:10314000FEE7FEE7FEE7FEE7FEE7FEE7FEE7FEE757
:10315000FEE7FEE7FEE7FEE7FEE7FEE7FEE7FEE747
:10316000FEE7FEE780B500AF00F002F8BD4680BD87
:1031700080B582B000AF114B1A68FF231B021340C9
:103180001B0A7B600D4B1A68FF2313403B607B6872
:10319000002B0CD07B681A023B68D3180848191C16
:1031A00006F046FB031C5A00064B1A6002E0054B72
:1031B000054A1A60BD4602B080BDC046000301400A
:1031C000000024F4E01F00200048E80180B584B02E
:1031D00000AFF860B9607A6001235B42181CBD46FD
:1031E00004B080BD80B584B000AFF860B9607A608B
:1031F00001235B42181CBD4604B080BD80B584B07D
:1032000000AFF860B9607A600023181CBD4604B0B6
:1032100080BDC04680B584B000AFF860B9607A6008
:1032200001235B42181CBD4604B080BD80B500AFD1
:1032300001235B42181CBD4680BDC04680B582B0EC
:1032400000AF786039603B68002B02D001235B42FD
:1032500001E002235B42181CBD4602B080BDC0469F
:1032600080B582B000AF786039607A683B689A4276
:1032700002D101235B4201E002235B42181CBD46E0
:1032800002B080BD80B582B000AF786001235B42A0
:10329000181CBD4602B080BD80B586B000AF786016
:1032A000144B7B61144B1B68002B08D1124B134A43
:1032B0001A60114B1A687B69D218114B1A600E4BB9
:1032C0001B683B610C4B1B681A1C7B68D3180733C7
:1032D00007229343FB600A4B1B68FA689A4201D3AA
:1032E000002303E0044BFA681A603B69181CBD46D2
:1032F00006B080BD501F0000A80C0020B0200020A8
:10330000AC0C002080B582B000AF786001235B4236
:10331000181CBD4602B080BD80B582B000AF786099
:1033200001235B42181CBD4602B080BD80B582B04F
:1033300000AF7860396001235B42181CBD4602B0C3
:1033400080BDC04680B500AF01235B42181CBD465E
:1033500080BDC04680B500AF01235B42181CBD464E
:1033600080BDC04680B582B000AF7860FEE7C04641
:1033700080B500AFBD4680BD80B582B000AF78603B
:1033800001235B42181CBD4602B080BD80B584B0ED
:1033900000AF78607B681B68FB60FB681B6C0222D7
:1033A000191C91430A1CFB681A64FB68DB68032242
:1033B0001A43FB68DA60FB681B69802212021A4319
:1033C000FB681A61FB681A697B681B8D9B059B0D66
:1033D0001A43FB681A61FB685A6979683023CB5C31
:1033E0001902C0239B0019407B689B8D9802F8232B
:1033F000DB01034019437B685B8D18044F4B03408E
:103400000B431A43FB685A61FB685B6B81225200D5
:103410001A43FB685A63FB685A6B7B689B8B1904E1
:10342000FC239B0319407B689B8B1806F0231B052C
:1034300003400B431A43FB685A63FB689B6BA02253
:10344000D2001A43FB689A63FB68DA6B7B685B7D8A
:103450005900022319407B68DB8D1802F8235B01B9
:1034600003400B43134301221A43FB68DA637A6873
:103470002423D35C002B05D0FB68DB6B20221A438E
:10348000FB68DA637A682523D35C002B05D0FB68E0
:10349000DB6B40221A43FB68DA637A682623D35C2D
:1034A000002B05D0FB68DB6B80221A43FB68DA63D4
:1034B0007B689B7F002B11D0FA6884235B00D25875
:1034C00079682023CB5C1902FC239B010B40111C63
:1034D0001943FA6884235B00D15006E0FB689B6CBB
:1034E000802292011A43FB689A647B68DB7F002B81
:1034F00013D0FA6886235B00D25879682123CB5C0D
:103500001902FC239B010B40134380225205111C1E
:103510001943FA6886235B00D150FB681A6C7B68FC
:103520009B7D1902C0239B000B40134302221A43C8
:10353000FB681A64BD4604B080BDC0460000FF03AE
:1035400090B585B000AF78607B685B687A68526838
:1035500051687A68127A0120041C9440221C0A43A4
:103560005A607B681B7AFB60FB68032B0ED87B6874
:103570005B687A6852681169FA68D20003321820D1
:10358000041C9440221C0A431A6146E0FB68032B8A
:1035900014D9FB68072B11D8FB68043BFB607B68E0
:1035A0005B687A6852685169FA68D2000332182061
:1035B000041C9440221C0A435A612EE0FB68072B2E
:1035C00014D9FB680B2B11D8FB68083BFB607B68A8
:1035D0005B687A6852689169FA68D20003321820F1
:1035E000041C9440221C0A439A6116E0FB680B2BD2
:1035F00013D9FB680F2B10D8FB680C3BFB607B6872
:103600005B687A685268D169FA68D2000332182080
:10361000041C9440221C0A43DA61BD4605B090BDEB
:1036200080B584B000AF78607868002106F062F958
:10363000031C002B05D07B68802212065340FB60E0
:1036400001E07B68FB60FB68181CBD4604B080BDD0
:10365000B0B5AEB000AFF860B9607A600023B420B6
:10366000C01903600023B021C9190B60FB68AC22AC
:10367000D21913600023A820C019036000238821F9
:10368000C9190B600023FB67E04BA822D219136015
:10369000AC23DB19186806F089FE041CA821C9199F
:1036A000086806F083FE031C201C191C06F062F952
:1036B000031CBB67B86FFE21890506F02FF9031CB8
:1036C000002B17D08023DB00A422D21913603B1CEF
:1036D000833301221A70AC20C0190368FB67A8214C
:1036E000C9190B68AC22D2191360FB6FA820C0194E
:1036F000036008E03B1C833300221A708023DB0048
:10370000A421C9190B6000238422D219136000235D
:103710009020C019036000238C21C9190B603B1C49
:103720006033AC20C01902681A603B1C4033A821EA
:10373000C9190A681A603B1C303301221A603B1C0D
:10374000203300221A608422D219136801338420A6
:10375000C01903608C21C9190B687B679022D219AC
:1037600013688C20C01903608421C9190A680323D7
:1037700013409022D21913603B1C60338C20C01977
:1037800002689200D1583B1C50339020C019026847
:103790009200D1503B1C40338C21C9190A68920019
:1037A000D1583B1C60339020C01902689200D15060
:1037B0003B1C50339021C9190A689200D2583B1C17
:1037C00060339020C01901688900CB58101C191C67
:1037D00006F02EF8031C191C3B1C10339020C01956
:1037E00002689200D1503B1C50339021C9190A68DD
:1037F0009200D2583B1C60339020C01901688900A8
:10380000CB58101C191C06F057F80B1C191C3B1C3C
:1038100040339020C01902689200D1508421C91908
:103820000B68012B0AD13B1C10335A683B1C303308
:103830005A603B1C203301225A6037E03B1C103396
:103840009020C01902689200D3583A1C30328C2064
:10385000C019016889008A585A433B1C3033796F7C
:103860008900CB58D1183B1C30339020C019026816
:103870009200D1503B1C10339021C9190A68920064
:10388000D3583A1C20328C20C019016889008A580C
:103890005A433B1C2033796F8900CB58D1183B1C0D
:1038A00020339020C01902689200D1503B1C203375
:1038B0009021C9190A689200D258A420C01903683F
:1038C0009A4200D8FDE03B1C30338C21C9190A68AC
:1038D0009200D358A022D21913603B1C20338C20B5
:1038E000C01902689200D3589821C9190B603B1C7B
:1038F00020337A6F9200D358A420C0190268D21ADC
:103900003B1C20338C20C01901688900CB58101C47
:10391000191C05F08DFF031C3B679021C9190B682A
:103920005A1E3B1C30339200D3583A6F5A439020B2
:10393000C0190368991E3B1C30338900CB58D3183B
:103940009C21C9190B609022D21913685A1E3B1C86
:1039500020339200D3583A6F5A433B1C2033796F7F
:103960008900CB58D3189420C01903603B1C8333C3
:103970001B78002B1BD0A021C9190B68FB6798226C
:10398000D2191368A020C0190360FB6F9821C919D0
:103990000B609C22D2191368FB679420C01903683E
:1039A0009C21C9190B60FB6F9422D21913609820D7
:1039B000C0190368002B04D0A021C9190B68002B83
:1039C0000CD19C22D2191368B420C0190360942131
:1039D000C9190B68B022D21913606DE09420C01988
:1039E0000368002B04D09C21C9190B68002B0FD150
:1039F000A022D2191368B420C01903609821C919F4
:103A00000B68B022D219136056E0C046350C000096
:103A1000A023DB19186806F0C9FC041C9821C919F9
:103A2000086806F0C3FC031C201C191C05F0A2FF4B
:103A3000031CB86F191C06F0BFFA031C181CFFF713
:103A4000EFFD041C9C22D219106806F0AFFC051C87
:103A50009423DB19186806F0A9FC031C281C191C08
:103A600005F088FF031CB86F191C06F0A5FA031CAB
:103A7000181CFFF7D5FD031C201C191C05F04EFF78
:103A8000031C002B0CD09C20C0190368B421C91959
:103A90000B609422D2191368B020C01903600BE0A8
:103AA000A021C9190B68B422D21913609820C0193B
:103AB0000368B021C9190B6005238822D21913604D
:103AC00033E03B1C40339020C01902689200D35869
:103AD000002B2AD13B1C30339021C9190A6892006F
:103AE000D358B422D21913603B1C20339020C01944
:103AF00002689200D358B021C9190B603B1C833374
:103B00001B78002B0DD0B422D2191368FB67B020AC
:103B1000C0190368B421C9190B60FB6FB022D21918
:103B2000136005238820C01903608821C9190B6818
:103B3000052B00D007E6B423DB191A680A4B9A421A
:103B400003D9094BB420C01903607B68B421C9199B
:103B50000A681A60B022D21913685A1EBB681A602C
:103B6000BD462EB0B0BDC046FF03000080B582B098
:103B700000AF1D4BC0225A621C4B1C4A12681C49E4
:103B80000A431A60194B194A126908210A431A613B
:103B9000C046164B1A688023DB051340F9D1124B3F
:103BA000C3225A6200237B6017E0124B7A689200AE
:103BB000D3581B7D012B06D10E4B7A689200D35847
:103BC000181CFFF7BDFC0B4B7A689200D358181CE9
:103BD000FFF7DCFB7B6801337B607B68002BE4D064
:103BE000BD4602B080BDC046000001400003014058
:103BF0000000F03FA020002080B582B000AF7860C8
:103C0000BD4602B080BDC04680B58AB000AFF86046
:103C1000B960111C1A1CFB1D1970BB1D1A70002302
:103C20007B6100233B61FB681B683B6205237B6271
:103C30003B6A9A6C01231340FB613B6A9A6C022336
:103C400013405B08BB61FB69BA691340012B56D175
:103C50003B6A1B6C0222191C91430A1C3B6A1A64C2
:103C6000B9683A1C14323B1C1033081C111C1A1C76
:103C7000FFF7EEFC3B6A1B699B0A9A023B6A1A61DA
:103C80003B6A1A693B699B059B0D1A433B6A1A61A3
:103C90003B6A5A691D4B1A403B6A5A613B6A5A6932
:103CA0007B6919041A4B0B401A433B6A5A613B6A01
:103CB000DB6B0222191C91430A1C3B6ADA633B6AE4
:103CC000DA6BBB1D1B78590002230B401A433B6A79
:103CD000DA633B6A1A6C0F4B1A403B6A1A643B6A00
:103CE0001A6CFB1D1B781902C0239B000B40134369
:103CF00002221A433B6A1A6400237B6201E0032319
:103D00007B627B6A181CBD460AB080BDFFFF00FCC9
:103D10000000FF03FFFCFFFF80B586B000AFF86036
:103D2000B9607A6000237B61FB681B683B61FB68BC
:103D3000DB7F002B1CD00FE03A698E235B00D35849
:103D40009AB2BB681A807B68013B7B607B69013358
:103D50007B61BB680233BB603A698A235B00D2583F
:103D600008231340DB080BD17B68002BE4D107E06C
:103D70003B695B6D9AB2BB681A807B6901337B61DA
:103D80007B69181CBD4606B080BDC04680B586B0B4
:103D900000AFF860B9607A6000237B61FB681B6844
:103DA0003B61FB68DB7F002B1CD00FE03A698E2360
:103DB0005B00D358DAB2BB681A707B68013B7B604A
:103DC0007B6901337B61BB680133BB603A698A233D
:103DD0005B00D25808231340DB080BD17B68002B13
:103DE000E4D107E03B695B6DDAB2BB681A707B69AE
:103DF00001337B617B69181CBD4606B080BDC0469F
:103E000080B586B000AFF860B9607A6000237B614E
:103E1000FB681B683B61FB689B7F002B1DD00FE09C
:103E2000BB681B88191C3A69C0235B00D1507B68B2
:103E3000013B7B607B6901337B61BB680233BB6004
:103E40003A698A235B00D25880235B0113401B0B25
:103E500011D17B68002BE3D10DE03B699A6B802385
:103E6000134008D1BB681B88191C3A698023D150C4
:103E70007B6901337B617B69181CBD4606B080BD40
:103E800080B586B000AFF860B9607A6000237B61CE
:103E9000FB681B683B61FB689B7F002B1DD00FE01C
:103EA000BB681B78191C3A69C0235B00D1507B6842
:103EB000013B7B607B6901337B61BB680133BB6085
:103EC0003A698A235B00D25880235B0113401B0BA5
:103ED00011D17B68002BE3D10DE03B699A6B802305
:103EE000134008D1BB681B78191C3A698023D15054
:103EF0007B6901337B617B69181CBD4606B080BDC0
:103F000080B586B000AF78600A1CFB1C1A700123D4
:103F10007B6100233B617B681B68FB60FB1C1B789B
:103F20000F2B0AD8FB689B6C3B61FB1C1B780122A2
:103F30009A403B6913403B611EE0FB1C1B78122B2F
:103F40000DD8FA688A235B00D3583B61FB1C1B78B1
:103F5000103B01229A403B6913403B610CE0FA6838
:103F60008A235B00D3583B61FB1C1B780B3B01226F
:103F70009A403B6913403B613B69002B01D002230F
:103F80007B617B69181CBD4606B080BD80B584B0DE
:103F900000AF78600A1CFB1C1A707B681B68FB6012
:103FA000FB1C1B780F2B0BD8FB68DA6CFB1C1B78F7
:103FB0000121081C9840031C1A43FB68DA6426E0C0
:103FC000FB1C1B78122B11D8FA688C235B00D2588B
:103FD000FB1C1B78103B0121081C9840031C111C82
:103FE0001943FA688C235B00D15010E0FA688C23E7
:103FF0005B00D258FB1C1B780B3B0121081C98402E
:10400000031C111C1943FA688C235B00D150BD4678
:1040100004B080BD80B582B000AF01237B6001F0A9
:10402000F1FE1E4B181C00F041F8031C7B607B68FE
:10403000002B09D1194B5B78012B05D1174B181CAC
:1040400000F052FA031C7B60154B154A126940219F
:104050008A431A61124B124A12691A61114B181CD9
:1040600000F024F8031C7B607B68002B09D10D4B0A
:104070005B78012B05D10B4B181C00F035FA031CA3
:104080007B60074B064A1169074A0A401A61044BD4
:10409000034A12691A61BD4602B080BD88AB0010A8
:1040A00000010440D0AB0010FFBFFFFFB0B584B0EB
:1040B00000AF78600123FB607B68DB6B1B78002B13
:1040C00000D056E17B689B6907221A617B68DB7B25
:1040D000012B25D17B689B697A6892691168A84A8F
:1040E0000A401A607B689B697A68926952680C2161
:1040F0008A435A607B689B697A689269116878681C
:104100002422825C9004C022120302400A431A60F7
:104110007B689B697A689269526808210A435A60F1
:104120007B685B7C012B2AD17A682023D35C012B2E
:1041300025D07B689B697A6892691168914A0A4028
:104140001A607B689B697A68926951688E4A0A4056
:104150005A607B689B697A68926911687A681278FC
:1041600010068022520402400A431A607B689B6951
:104170007A6892695268802189020A435A607B6892
:104180009B697A6892695169804A0A405A617B68E2
:104190009B697A689269516978683622825C101C42
:1041A000012210407C683422A25C94028022D2005A
:1041B000224010437C683522A25C1402C022920087
:1041C000224002430A435A617A682023D35C012BC0
:1041D0000DD07B689B697A68127B510002221140E6
:1041E0007A6892695269022082430A435A617B6865
:1041F0009B697A689269516978682122825C5003D0
:10420000C022D20102400A435A617B689B697A68E6
:10421000527B111C0F2211407A689269126A0F209A
:1042200082430A431A627A682023D35C012B2CD084
:104230007B689B697A68927C5105802292031140C9
:104240007A6892695069524A02400A435A617B680F
:104250009B697A68D27C91058022D20311407A68EA
:10426000926950694B4A02400A435A617B689B69D4
:104270007A68527C51048022920211407A689269D5
:104280005069414A02400A435A617B689B697968D8
:1042900022228A5C111C0F2211407A689269526AAC
:1042A0000F2082430A435A627B689B697A68127CBA
:1042B0009A617B689B697A68926A1204120C5A634D
:1042C0007B689B697A6892681204120CDA637B68D7
:1042D0009A697B689969B023CB582F491943B02359
:1042E000D1507A682023D35C012B0FD17B68181C36
:1042F00000F098FF7B68DA697B68D969A423C95804
:104300007B681B6B1943A423D1500AE07B689A6930
:104310007B689969A423C9587B681B6B1943A42344
:10432000D1507B685B697A68526911697868372275
:10433000825C9200012090407C683722A25C92004F
:1043400001320124251C95402A1C10437C68372229
:10435000A25C920002320124251C95402A1C0243D3
:104360000A431A610023FB607B68DB6B01221A7031
:1043700000E0C046FB68181CBD4604B0B0BDC04696
:10438000FFFFF3E7FFFFCF9EFFFFFDFFF698FFFF64
:10439000FFFFDFFFFFFFBFFF0F0F000090B589B0E9
:1043A00000AF78600123FB617B68DB6B1B78002B1F
:1043B00000D191E07B689B6907221A617B689A694A
:1043C000B0234849D1507B689A69A4230021D15079
:1043D0007B685B697A685269916878683722825C89
:1043E0000120041C9440221C0A43C02189000A4376
:1043F0009A607B689B6900221A607B689B69002237
:104400005A607B689B6900225A617B689B69002225
:104410005A627B689B6900229A617B689B690022D3
:104420001A627B689B690022DA637B689B690022C1
:104430005A637A682023D35C012B47D17B68DB6900
:1044400007221A617B68DA69B0232649D1507B685C
:10445000DA69A4230021D15080239B00BB61802313
:104460005B007B617A683823D35C3B617A69BB6906
:104470001343FB607B685B697A68526991683A69AB
:1044800001209040FA6802430A439A607B68DB6926
:1044900000221A607B68DB6900225A607B68DB6956
:1044A00000225A617B68DB6900225A627B68DB6903
:1044B00000229A617B68DB6900221A627B68DB69F3
:1044C0000022DA637B68DB6900225A637B68DB6B5E
:1044D00000221A700023FB61FB69181CBD4609B05D
:1044E00090BDC0460F0F000090B585B000AF78605A
:1044F0000123FB607B68DB6B1B78012B05D07B689D
:10450000DB6B1B78032B00D09FE07B689A69B0239C
:104510005149D1507B685B697A685269D168786883
:104520003722825C0120041C9440221C0A43DA607A
:104530007A682023D35C012B0DD17B685B697A6894
:104540005269D16878683822825C0120041C94404A
:10455000221C0A43DA607B689B7B002B15D17B68A9
:104560009B697A689269D26801210A43DA607A68A5
:104570002023D35C012B61D17B68DB697A68D26927
:10458000D26801210A43DA6058E07B689B7B012BEB
:1045900025D17B689B697A68926911682F4A0A4025
:1045A0001A607B689B697A689269526803218A4322
:1045B0005A607B689B697A689269116878682322DF
:1045C000825C1004C022920202400A431A607B6897
:1045D0009B697A689269526801210A435A607B6834
:1045E0009B7B012B2AD17A682023D35C012B25D118
:1045F0007B68DB697A68D2691168184A0A401A60D8
:104600007B68DB697A68D269526803218A435A6001
:104610007B68DB697A68D269116878682322825CDA
:104620001004C022920202400A431A607B68DB69D0
:104630007A68D269526801210A435A607B68DB6B51
:1046400002221A700023FB6000E0C046FB68181CC1
:10465000BD4605B090BDC0460F0F0000FFFFFCF93E
:1046600080B586B000AF786001237B617B68DB6B2F
:104670001B78022B39D17A683723D35C3B618023C6
:104680009B00FB607B689B6907221A617B685B6902
:104690007A68526991683A6901209040FA68024349
:1046A0000A439A607A682023D35C012B16D17B6879
:1046B000DB6907221A617A683823D35C3B61802367
:1046C0009B00FB607B685B697A68526991683A6914
:1046D00001209040FA6802430A439A607B68DB6BD2
:1046E00003221A7000237B6100E0C0467B69181C1E
:1046F000BD4606B080BDC04680B584B000AF7860CE
:1047000039600123FB607A682023D35C012B09D137
:104710007B68DB695B6B1A047B689B695B6B13438B
:10472000BB6003E07B689B695B6BBB607B68DB6B9A
:104730001B78002B1CD07B68DA6A3B689A4207D250
:104740007A682023D35C002B02D10223FB600FE0A8
:104750003A68BB689A4202D3BB6801333B607B680E
:104760001B6C79683A68081C111C98470023FB6091
:10477000FB68181CBD4604B080BDC04690B587B02C
:1047800000AF786039607B687B617B699B693A68C0
:104790001204120CDA637A693723D35C9B003B6105
:1047A0003B69FB607B695B697A6952691169FA68E8
:1047B0000120041C9440221C0A431A61BD4607B024
:1047C00090BDC046B0B588B000AF786039600023B6
:1047D000FB610023BB617B687B617B699B695B6BD1
:1047E0009BB23A68101C191C05F066F80B1CFB61A3
:1047F0007B699B695B6B9BB23868191C05F018F8E4
:10480000031CBB617B699B69FA691204120CDA63B1
:104810007B69DB69BA691204120CDA637A6938239E
:10482000D35C9B003B617A693723D35C9B00FB60C0
:104830007B695B697A6952691169FA680120904065
:104840003A690124251C95402A1C02430A431A6137
:10485000BD4608B0B0BDC04690B585B000AF786029
:1048600039607B68FB60FB689B693A681204120C34
:10487000DA63FA683723D35C9B00BB60FB685B6933
:10488000FA6852691169BA680120041C9440221C1C
:104890000A431A61BD4605B090BDC04680B584B0DC
:1048A00000AF786039600123FB607B68DB6B1B78AD
:1048B000002B19D038680F4905F030F8031C002B85
:1048C00006D13868002105F015F8031C002B02D032
:1048D0000223FB6008E07B685B6C79683A68081C1F
:1048E000111C98470023FB60FB68181CBD4604B0F0
:1048F00080BDC0460000C84290B589B000AF786066
:1049000039600023FB617B68BB613B687B611C48AD
:10491000796905F051FB031C181C194905F02AF8A8
:10492000031C7B61BB699B695B6B0133181C05F041
:104930003DFD031C3B613869796905F00DFA031CE4
:10494000181C04F0FFFF031CFB61BB699B69FA693B
:104950001204120CDA63BA693723D35C9B00FB6044
:10496000BB695B69BA6952691169FA680120041C64
:104970009440221C0A431A61BD4609B090BDC0464E
:104980000000C842B0B58AB000AF7860396000233B
:104990007B6200233B620023FB617B68BB613B6859
:1049A0007B61BB69DB695B6B01337B62BB699B69C4
:1049B0005B6B1B041B0C5A1C7B6A53437B627B6A38
:1049C00001337B622C48796905F0F6FA031C181C48
:1049D000294904F0CFFF031C7B61786A05F0E6FCEF
:1049E000031C3B613869796905F0B6F9031C181C92
:1049F00004F0A8FF031C7B62BB699B695B6B1B0413
:104A00001B0C7A6A101C191C04F056FF0B1C3B622D
:104A1000BB699B693A6A1204120CDA63BB699B6931
:104A20005B6B1B041B0C786A191C04F001FF031C50
:104A3000FB61BB69DB69FA691204120CDA63BA69BB
:104A40003723D35C9B00FB60BA693823D35C9B009F
:104A5000BB60BB695B69BA6952691169FA68012078
:104A60009040BA680124251C95402A1C02430A4341
:104A70001A61BD460AB0B0BD0000C84290B589B009
:104A800000AF786039600023FB617B68BB613B68E5
:104A90007B611B48796905F08FFA031C181C1849C3
:104AA00004F068FF031C7B61BB699B695B6B181C8E
:104AB00005F07CFC031C3B613869796905F04CF911
:104AC000031C181C04F03EFF031CFB61BB699B69BF
:104AD000FA691204120CDA63BA693723D35C9B00BB
:104AE000FB60BB695B69BA6952691169FA680120A8
:104AF000041C9440221C0A431A61BD4609B090BDB3
:104B00000000C84280B586B000AFF860B9607A6036
:104B100001237B6100233B61FB68DB6B1B78002B6F
:104B200037D0BB68002B09D0FB68DA6A7B689A42F1
:104B300007D2FA682023D35C002B02D102237B61C9
:104B400027E0FB68DA6ABB689A4207D2FA6820233A
:104B5000D35C012B02D002237B611AE0BB683B616E
:104B6000FA682023D35C012B04D1FB68DB693A6926
:104B7000120C5A63FB689B693A691204120C5A635F
:104B8000FB681B6CF9687A68081C111C98470023A5
:104B90007B617B69181CBD4606B080BD90B587B0AF
:104BA00000AF7860396001237B6100233B617B6843
:104BB000DB6B1B78002B4DD03B68002B02D102230E
:104BC0007B6147E07B68DA6A3B689A4207D27A6881
:104BD0002023D35C012B02D002237B613AE03B68A7
:104BE0003B617A682023D35C012B04D17B68DB69AD
:104BF0003A69120C5A637B689B693A691204120C79
:104C00005A637A683723D35C9B00FB607B685B69DF
:104C10007A6852691169FA680120041C9440221CC8
:104C20000A431A617A682023D35C012B10D17A6879
:104C30003823D35C9B00FB607B685B697A685269B0
:104C40001169FA680120041C9440221C0A431A616D
:104C500000237B617B69181CBD4607B090BDC04630
:104C600080B588B000AFF860B9607A600123FB615D
:104C70000023BB61FB68DB6B1B78002B68D0B86836
:104C8000002104F031FE031C002B0DD1786833495C
:104C900004F044FE031C002B06D17868002104F0C8
:104CA00029FE031C002B02D00223FB6150E0FB68AD
:104CB0005B687B617869B96805F04EF8031C7B611D
:104CC0002748796904F056FE031C181C04F03AFECC
:104CD000031CBB61FA682023D35C002B1AD1BA698C
:104CE000204B9A4202D90223FB6127E0FA6836235F
:104CF000D35C002B05D1FB689B69BA69013A5A6302
:104D000005E0FB689B69BA69013A52085A630023BF
:104D1000FB6113E0FA682023D35C012B06D1BA694A
:104D2000104B9A4202D80223FB6107E0FA68BB6984
:104D3000101C191C00F0A4F8031CFB61FB69002B7C
:104D400006D1FB685B6CF9687A68081C111C9847EF
:104D5000FB69181CBD4608B080BDC0460000C842B3
:104D6000286B6E4EFFFF0000B0B588B000AF7860D2
:104D700039600123FB610023BB617B68DB6B1B781F
:104D8000002B00D172E03868002104F0ADFD031C57
:104D9000002B02D00223FB6168E07B685B687B61CB
:104DA0007869396804F0D8FF031C7B61324879695F
:104DB00004F0E0FD031C181C04F0C4FD031CBB61DF
:104DC0007A682023D35C002B2BD1BA692B4B9A42F3
:104DD00002D90223FB6149E07A683623D35C002BB9
:104DE00005D17B689B69BA69013A5A6305E07B6823
:104DF0009B69BA69013A52085A637A683723D35CCF
:104E00009B003B617B685B697A68526911693A690A
:104E10000120041C9440221C0A431A610023FB61F8
:104E200024E07A68BB69101C191C00F029F8031CE7
:104E3000FB61FB69002B19D17A683723D35C9B0097
:104E4000FB607A683823D35C9B00BB607B685B693E
:104E50007A6852691169FA6801209040BA680124A1
:104E6000251C95402A1C02430A431A61FB69181C41
:104E7000BD4608B0B0BDC046286B6E4EFFFF0000B7
:104E800080B588B000AF786039603B68FB613B1C3F
:104E9000133300221A700123FB603B68013302D1F7
:104EA0000223FB603AE03A681F4B9A4219D9FB692A
:104EB0005B08FB613B1C13333A1C1332127801323E
:104EC0001A70FA69194B9A42F1D83B1C13331B78BC
:104ED0000122111C99400B1C013BBB61FB697B61EA
:104EE00003E03B687B610023BB617A683623D35CB7
:104EF000012B05D1BB695B08BB617B695B087B61EA
:104F00007B689B697A691204120C5A637B68DB69BF
:104F1000BA691204120C5A630023FB60FB68181C68
:104F2000BD4608B080BDC046FFFF0000FEFF000088
:104F300080B584B000AF786039600123FB607B6886
:104F4000DB6B1B78012B04D07B68DB6B1B78032B9E
:104F500011D17B689B693A681204120C1A677A684F
:104F60002023D35C012B04D17B68DB693A68120CE7
:104F70001A670023FB60FB68181CBD4604B080BDA7
:104F800080B584B000AF786039600123FB600023F6
:104F9000BB607B68DB6B1B78002B1DD07A682023FD
:104FA000D35C012B0FD17B68DB699A680123134026
:104FB000BB607B689B699B68BA681A4001231A40F2
:104FC0003B681A6006E07B689B699A6801231A4077
:104FD0003B681A600023FB60FB68181CBD4604B0E8
:104FE00080BDC04680B584B000AF786039600123D1
:104FF000FB600023BB607B68DB6B1B78002B51D010
:105000007A682023D35C012B39D17B68DB691B6F65
:105010001B04BB607B689B691B6F1B041A0CBB687D
:105020001A433B689A607B68DB69DA6B3B681A60FD
:105030003B681A687B689B695B6B5A433B681A60E4
:105040003B681A687B689B69DB6BD2183B681A6007
:105050007B68DB695B6B5A1C3B685A603B685A682B
:105060007B689B695B6B1B041B0C01335A433B68D9
:105070005A603B685B685A1C3B685A6010E07B686A
:105080009B691B6F1B041A0C3B689A607B689B69C9
:10509000DA6B3B681A607B689B695A6B3B685A60A5
:1050A0000023FB60FB68181CBD4604B080BDC046F1
:1050B00080B584B000AF786039600123FB607B6805
:1050C000DB6B1B78002B22D07A682023D35C012B6A
:1050D00016D17B68DB695B6B5A1C3B681A603B68C6
:1050E0001A687B689B695B6B1B041B0C01335A437A
:1050F0003B681A603B681B685A1C3B681A6004E0F6
:105100007B689B695A6B3B681A600023FB60FB68F5
:10511000181CBD4604B080BDB0B586B000AF786045
:1051200001237B617B68DB6B1B78002B32D07A68B4
:105130002023D35C012B1AD17A683723D35C9B00E0
:105140003B617A683823D35C9B00FB607B685B69BA
:105150007A68526911693A6901209040FA6801241D
:10516000251C95402A1C02430A431A6110E07A6804
:105170003723D35C9B00BB607B685B697A685269AC
:105180001169BA680120041C9440221C0A431A6168
:1051900000237B617B69181CBD4606B0B0BDC046CC
:1051A00080B582B000AF78607B68DB7C012B1AD1C0
:1051B0007B689A697B689969B023CB588021C900C4
:1051C0001943B023D1507A682023D35C012B0AD134
:1051D0007B68DA697B68D969B023CB588021C90024
:1051E0001943B023D1507B689A697B689969B023D1
:1051F000CB58802109011943B023D1507A6820236C
:10520000D35C012B0AD17B68DA697B68D969B0234A
:10521000CB58802109011943B023D150BD4602B0BB
:1052200080BDC046B0B582B000AF78607B68DB69F6
:1052300007221A617B68DB697A68926A120C5A63EA
:105240007B68DB697A689268120CDA637B68DB69D9
:105250007A68D2695268802149030A435A607B68A0
:10526000DB7B012B25D17B68DB697A68D269116809
:10527000794A0A401A607B68DB697A68D2695268A9
:105280000C218A435A607B68DB697A68D2691168AD
:1052900078682422825C9004C022120302400A43F0
:1052A0001A607B68DB697A68D269526808210A4310
:1052B0005A607B685B7C012B25D17B68DB697A684F
:1052C000D2691168654A0A401A607B68DB697A68AE
:1052D000D2695168624A0A405A607B68DB697A6821
:1052E000D26911687A68127810068022520402404E
:1052F0000A431A607B68DB697A68D2695268802148
:1053000089020A435A607B68DB697A68D26951690D
:10531000544A0A405A617B68DB69796836228A5CA4
:10532000111C012211407A68127B500002220240B7
:10533000114378683422825C90028022D2000240BD
:10534000114378683522825C1002C022920002402C
:105350000A435A617B68DB697A68D2695169786867
:105360002122825C5003C022D20102400A435A61CA
:105370007B68DB697A68527B111C0F2211407A68C6
:10538000D269126A0F2082430A431A627B68DB6982
:105390007A68927C51058022920311407A68D26922
:1053A0005069314A02400A435A617B68DB697A6876
:1053B000D27C91058022D20311407A68D26950696B
:1053C0002A4A02400A435A617B68DB697A68527C48
:1053D00051048022920211407A68D2695069204AB1
:1053E00002400A435A617B68DB69796822228A5C41
:1053F000111C0F2211407A68D269526A0F20824331
:105400000A435A627B68DB697A68127C9A617B681E
:105410005B697A685269116978683822825C920007
:10542000012090407C683822A25C92000132012465
:10543000251C95402A1C10437C683822A25C9200EF
:1054400002320124251C95402A1C02430A431A619A
:10545000BD4602B0B0BDC046FFFFF3E7FFFFCF9EE1
:10546000FFFFFDFFF498FFFFFFFFDFFFFFFFBFFF20
:1054700090B585B000AF78600A1CFB1C1A70012340
:10548000FB607B68DB6B1B78002B02D10123FB6088
:1054900025E07A682023D35C012B0FD17B68DA6981
:1054A0007B68D969A423C958FB1C1B780120041C04
:1054B0009C40231C1943A423D1500EE07B689A69B9
:1054C0007B689969A423C958FB1C1B780120041C24
:1054D0009C40231C1943A423D1500023FB60FB688C
:1054E000181CBD4605B090BD90B585B000AF786082
:1054F0000A1CFB1C1A700123FB607B68DB6B1B78AA
:10550000002B02D10123FB6027E07A682023D35CC3
:10551000012B10D17B68DA697B68D969A423CB5849
:10552000F91C09780120041C8C40211CC943194036
:10553000A423D1500FE07B689A697B689969A42302
:10554000CB58F91C09780120041C8C40211CC9434C
:105550001940A423D1500023FB60FB68181CBD46F2
:1055600005B090BD90B585B000AF78600A1CFB1CFB
:105570001A700123FB607B68DB6B1B78002B02D168
:105580000123FB6025E07A682023D35C012B0FD137
:105590007B68DA697B68D969B023C958FB1C1B7822
:1055A0000120041C9C40231C1943B023D1500EE061
:1055B0007B689A697B689969B023C958FB1C1B7882
:1055C0000120041C9C40231C1943B023D15000230C
:1055D000FB60FB68181CBD4605B090BD90B585B05A
:1055E00000AF78600A1CFB1C1A700123FB607B680B
:1055F000DB6B1B78002B02D10123FB6025E07A686E
:105600002023D35C012B0FD17B68DA697B68D969D1
:10561000AC23C958FB1C1B780120041C9C40231C94
:105620001943AC23D1500EE07B689A697B68996975
:10563000AC23C958FB1C1B780120041C9C40231C74
:105640001943AC23D1500023FB60FB68181CBD46F6
:1056500005B090BD80B586B000AFF8607A603B1CA5
:105660000B330A1C1A7001237B61FB68DB6B1B7810
:10567000002B02D101237B613DE0FA682023D35C3B
:10568000012B1BD1FB68DA69A023D3583A1C0B32DB
:1056900012780121081C9040021C1A403B1C0B335D
:1056A0001B78111CD9400B1C002B03D07B680122F6
:1056B0001A701EE07B6800221A701AE0FB689A6973
:1056C000A023D3583A1C0B3212780121081C9040B9
:1056D000021C1A403B1C0B331B78111CD9400B1CBD
:1056E000002B03D07B6801221A7002E07B68002245
:1056F0001A7000237B617B69181CBD4606B080BD13
:1057000080B500AF0A4B5B6800225A60084B5B68AB
:10571000074A526812691A61064B5B6800225A6098
:10572000044B5B68034A526812691A61BD4680BD2A
:1057300018AC001020AC001090B585B000AF7860B8
:105740000A1CFB1C1A703B1C0F337A6852781A70C3
:105750003B1C0F331B78032B24D87B685B687A686B
:1057600052681269391C0F310978C90003311F20B2
:10577000041C8C40211CC9430A401A617B685B6889
:105780007A6852681169FA1C10781F2210403A1C7E
:105790000F321278D2000332041C9440221C0A43B8
:1057A0001A61A0E03B1C0F331B78032B30D93B1C44
:1057B0000F331B78072B2BD83B1C0F333A1C0F32AF
:1057C0001278043A1A707B685B687A68526852698A
:1057D000391C0F310978C90003311F20041C8C408B
:1057E000211CC9430A405A617B685B687A68526829
:1057F0005169FA1C10781F2210403A1C0F3212789F
:10580000D2000332041C9440221C0A435A616AE00D
:105810003B1C0F331B78072B30D93B1C0F331B78F5
:105820000B2B2BD83B1C0F333A1C0F321278083A43
:105830001A707B685B687A6852689269391C0F310C
:105840000978C90003311F20041C8C40211CC94366
:105850000A409A617B685B687A6852689169FA1CB1
:1058600010781F2210403A1C0F321278D2000332F7
:10587000041C9440221C0A439A6134E03B1C0F3301
:105880001B780B2B2FD93B1C0F331B780F2B2AD8DF
:105890003B1C0F333A1C0F3212780C3A1A707B689B
:1058A0005B687A685268D269391C0F310978C9007F
:1058B00003311F20041C8C40211CC9430A40DA61BB
:1058C0007B685B687A685268D169FA1C10781F227D
:1058D00010403A1C0F321278D2000332041C94405C
:1058E000221C0A43DA61BD4605B090BD90B585B073
:1058F00000AF78600A1CFB1C1A703B1C0F337A68DF
:1059000052781A703B1C0F331B78032B24D87B680A
:105910005B687A6852681269391C0F310978C900CE
:1059200003311F20041C8C40211CC9430A401A610A
:105930007B685B687A6852681169FA1C10781F22CC
:1059400010403A1C0F321278D2000332041C9440EB
:10595000221C0A431A61A0E03B1C0F331B78032B67
:1059600030D93B1C0F331B78072B2BD83B1C0F3334
:105970003A1C0F321278043A1A707B685B687A68B6
:1059800052685269391C0F310978C90003311F2050
:10599000041C8C40211CC9430A405A617B685B6827
:1059A0007A6852685169FA1C10781F2210403A1C1C
:1059B0000F321278D2000332041C9440221C0A4396
:1059C0005A616AE03B1C0F331B78072B30D93B1C14
:1059D0000F331B780B2B2BD83B1C0F333A1C0F3289
:1059E0001278083A1A707B685B687A685268926924
:1059F000391C0F310978C90003311F20041C8C4069
:105A0000211CC9430A409A617B685B687A685268C6
:105A10009169FA1C10781F2210403A1C0F3212783C
:105A2000D2000332041C9440221C0A439A6134E0E1
:105A30003B1C0F331B780B2B2FD93B1C0F331B78D0
:105A40000F2B2AD83B1C0F333A1C0F3212780C3A1A
:105A50001A707B685B687A685268D269391C0F31AA
:105A60000978C90003311F20041C8C40211CC94344
:105A70000A40DA617B685B687A685268D169FA1C0F
:105A800010781F2210403A1C0F321278D2000332D5
:105A9000041C9440221C0A43DA61BD4605B090BD47
:105AA00080B500AF00F08EF800F098F8FEF75EF8D1
:105AB000FFF726FE00F0A6F9FEF7ACFA00F002F8B8
:105AC000BD4680BD80B586B000AF3B1C00221A6089
:105AD000043300221A60043300221A6004330022C7
:105AE0001A60043300221A60043300221A6004335F
:105AF0003B1C5A682C4B196C0F230B401A433B1C60
:105B00005A60294B284A126C0F218A431A64264B8B
:105B1000254AD26907218A4306210A43DA61224ACB
:105B2000214984235B00C958204B0B40204919436D
:105B300084235B00D1501C4A1B4986235B00C95853
:105B40001A4B0B408021C904194386235B00D150B6
:105B5000154B3A1C51680F221140134A126C0F204A
:105B600082430A431A64134B124A1269B8218A43CA
:105B700090210A431A610F4B0E4A11690E4A0A40DE
:105B8000902109020A431A610C4B0C4A116E0C4A0F
:105B90000A401A66094B094A9269B82109040A4366
:105BA0009A61BD4606B080BD00020048C0FFFFF804
:105BB0001000000400010440FF47FFFF0002044002
:105BC000FFFBFFFF80B500AF034B034A126E0221BB
:105BD0008A431A66BD4680BD0002044080B500AF0E
:105BE0000A4BC0225A62C046084B5A6A042313402B
:105BF000FAD1074B064A12681A6000F011F8034BFD
:105C0000C3225A62FDF7B4FABD4680BD00000140D0
:105C10000003014080B500AF0023181CBD4680BDC5
:105C200080B584B000AF0023FB600023BB60184B3D
:105C30001A68FF231B0213401B0AFB600123BB6091
:105C4000134B1B687B607B68FF2293437B60104B88
:105C50007A681A600E4B0E4A12680E490A431A609F
:105C6000C0460B4B1A688023DB051340F9D1FA6854
:105C7000BB689A4208D0FA68BB689A4202D200F028
:105C800069F801E000F008F8BD4604B080BDC046E8
:105C9000000301400000F03F80B584B000AF2A4B04
:105CA0001A68FF231B0213401B0AFB600123BB6021
:105CB000BB689A00FB689A4224D2FB680322934394
:105CC0000433FB60FB689B08FB601F4B1B687B6019
:105CD000FB681B021B041A0C79681C4B0B40134316
:105CE0007B60194B7A681A60174B174A126818497B
:105CF0000A431A60C046144B1A688023DB05134020
:105D0000F9D11CE0104B1B687B60BB681B021B04B5
:105D10001A0C79680D4B0B4013437B600A4B7A6871
:105D20001A60094B084A126809490A431A60C046BA
:105D3000054B1A688023DB051340F9D100E0B7E773
:105D4000BD4604B080BDC04600030140FF00FFFF18
:105D50000000F03F80B584B000AF274B1A68FF23E6
:105D60001B0213401B0AFB600123BB60FB689A0007
:105D7000BB689A421FD2FB689B00FB601E4B1B68EE
:105D80007B60FB681B021B041A0C79681B4B0B40E1
:105D900013437B60184B7A681A60174B164A1268D7
:105DA00017490A431A60C046134B1A688023DB0563
:105DB0001340F9D11CE0104B1B687B60BB681B02D1
:105DC0001B041A0C79680D4B0B4013437B600A4B84
:105DD0007A681A60084B084A126809490A431A602F
:105DE000C046054B1A688023DB051340F9D100E05B
:105DF000BCE7BD4604B080BD00030140FF00FFFFCB
:105E00000000F03F80B582B000AF00237B600D4BF7
:105E10001B68002B12D100237B6009E00A4B7A68D3
:105E20009200D358181C00F011F87B6801337B6096
:105E30007B68002BF2D0034B01221A60BD4602B0F2
:105E400080BDC046B80C0020A420002090B583B0CF
:105E500000AF78607B685B68022B23D8174B1A6908
:105E60007B689B6813401DD1154BC0225A62134BAF
:105E7000124A126813490A431A60104B0F4A1169FB
:105E80007A6892680120041C9440221C0A431A611B
:105E9000C0460A4B1A688023DB051340F9D1084B32
:105EA000C3225A627B681B687A681268D2688021B4
:105EB00049000A43DA60BD4603B090BD00030140CB
:105EC000000001400000F03F80B582B000AF786074
:105ED000BD4602B080BDC04680B582B000AF7860DC
:105EE000BD4602B080BDC04680B582B000AF7860CC
:105EF000BD4602B080BDC0460FB480B500AFBD4600
:105F000080BC08BC04B018470FB480B500AFBD46D4
:105F100080BC08BC04B018470FB480B500AFBD46C4
:105F200080BC08BC04B0184780B582B000AF786070
:105F300039600023181CBD4602B080BD80B582B018
:105F400000AF78600023181CBD4602B080BDC0467B
:105F50000EB480B583B000AF7860BD4603B080BC9E
:105F600008BC03B01847C04680B500AF02F054FB30
:105F7000BD4680BD80B500AF00F0DCFEBD4680BDF3
:105F800080B500AFBD4680BD80B500AFBD4680BDC9
:105F900080B500AF034B00225A60024B00221A600A
:105FA000BD4680BDE41F002080B582B000AF7860A0
:105FB00002F06EFA7B68044A03CA03C302F078FA5F
:105FC000BD4602B080BDC046E41F002080B500AFD2
:105FD0000D4B5B680D4A9B181A1C0B4B5A600A4B01
:105FE0005B681A1C0A4B9A420BD9074B5B68094A3B
:105FF0009B181A1C044B5A60034B1B685A1C024B1B
:106000001A60BD4680BDC046E41F002040420F001C
:10601000FFC99A3B003665C480B584B000AFF86014
:10602000B9607A600023181CBD4604B080BDC0462C
:1060300080B588B000AFF8607A603B603B1C0A33E3
:106040000A1C1A800823FB61FA697B68D318BB61BC
:1060500000237B61FB685A68BB699BB2101C191C4A
:1060600000F054F9031C7B617B69002B20D0FB6896
:106070001B7A1A1C7B699A807B693A1C0A32128847
:10608000DA807B68002B0CDD3B68002B09D0FB69B4
:106090007A69D1187B683A68081C111C1A1C04F034
:1060A00051FAFB685A687B69101C191C00F0F6F85D
:1060B000BD4608B080BDC04690B587B002AFF8605D
:1060C000B960111C1A1CBB1D19803B1D1A80FB688E
:1060D000BA681A62FB68BA1D12889A84FB683A1D76
:1060E0001288DA84FB683A6B9A62FA68391C343198
:1060F00068230978D154FB681033181C02F0DAFBCE
:10610000FB68181C02F0D6FBFB68181C00F092F824
:10611000FB684833181C02F03FFAFB684C33181C2C
:1061200002F03AFAFB685033181C02F093FAFB684D
:10613000181C2C30396A7A6A0E4B0F4C0094FC689C
:10614000019402F0C9FA3B1C34331B78002B04D0B5
:106150003B1C34331B78022B08D1FB68181C5430CD
:10616000391C2831054AFB6802F00EFBBD4605B01C
:1061700090BDC04634AC0010D163001081640010A3
:1061800080B582B000AF78607B682C33181C02F0B9
:10619000D1FA7A686823D35C002B04D07A6868232C
:1061A000D35C022B04D17B685433181C02F02AFB09
:1061B000BD4602B080BDC04680B586B000AF7860F5
:1061C0007A686823D35C002B04D07A686823D35C98
:1061D000022B04D17B685433181C02F02BFB3B1CB0
:1061E0000C3300225A723B1C0C337A685A603B1CF9
:1061F0000C3301221A723B1C0C33181C00F0AEF950
:10620000BD4606B080BDC04680B582B000AF7860A4
:106210007B684833181C02F0D1F97B684C33181C9A
:1062200002F0CCF97B685033181C02F027FABD4607
:1062300002B080BD80B584B000AF78603B1C0E33E7
:1062400000221A8019E07B681A6A3B1C0E33002179
:106250005B5E7968C98C4B43D318BB607B681A1CA2
:106260001032BB68101C191C02F03AFB3B1C0E33A9
:106270003A1C0E32128801321A803B1C0E33002168
:106280005A5E7B689B8C9A42DDDB7B681033181C5E
:1062900002F0DAFBBD4604B080BDC04680B582B0D6
:1062A00000AF786039607B684C33181C02F092F9BB
:1062B0007A683B68101C191C02F012FB7B68503393
:1062C000181C02F0E7F97B684C33181C02F094F9B3
:1062D000BD4602B080BDC04680B584B000AF7860D6
:1062E0007B684C33181C02F075F97B68181C02F0AF
:1062F00029FB031CFB607B684C33181C02F07CF903
:10630000FB68181CBD4604B080BDC04680B584B093
:1063100000AF78600A1CBB1C1A807B684833181CCD
:1063200002F058F97B68DB8CBA1C12889A421DD89F
:106330007B689B8B1BB2002B0DDD7B681033181C18
:1063400002F000FB031CFB607B684833181C02F062
:1063500053F9FB681AE07B68181C00F07BF8031CFB
:106360000C4A101C191CFFF7C7FD09E0BB1C1A885A
:106370007B68DB8C0849081C111C1A1CFFF7BCFD4C
:106380007B684833181C02F037F90023181CBD46FF
:1063900004B080BD44AC001080AC001080B582B069
:1063A00000AF786039607B684833181C02F012F93E
:1063B0007B681A1C10323B68101C191C02F090FA02
:1063C0007B684833181C02F017F9BD4602B080BD47
:1063D00080B584B000AF78603B1C0F3301221A7087
:1063E0002FE07B68181CFFF777FF031CBB607B68FE
:1063F0009B6ABA68101C9847031C002B03D13B1CF6
:106400000F3300221A707A68BB68101C191CFFF742
:10641000C5FF00E0C0467B68181C02F0EFFA031CC1
:10642000002B04D03B1C0F331B78002BD9D13B1C15
:106430000F331B78002B04D07B685033181C02F0FC
:1064400039F93B1C0F331B78002BE3D1BD4604B058
:1064500080BDC04690B585B000AF78607B681033D2
:106460003C1C0E34181C02F0E3FA031C23803B1C76
:106470000E331B881BB2181CBD4605B090BDC0462C
:1064800080B586B000AF78607B687B613B1C0833C9
:1064900000225A723B1C08337A695A603B1C08334D
:1064A00001221A723B1C0833181C00F00FF8BD467D
:1064B00006B080BD80B582B000AF78607B681B8875
:1064C0001BB2181CBD4602B080BDC04680B582B06C
:1064D00000AF78607B68181C012100220023FFF7C1
:1064E000A7FDBD4602B080BD80B584B000AF786026
:1064F0000023FB600DE07B685A68FB681B01D31822
:10650000181C012100220023FFF792FDFB680133D4
:10651000FB607B681B881AB2FB689A42EBDCBD46C5
:1065200004B080BD80B582B000AF786039603B6850
:10653000002B10DB7B681B881AB23B689A420ADD8D
:106540007B685A683B681B01D318181C0121002284
:106550000023FFF76DFDBD4602B080BD80B582B05F
:1065600000AF78607B68181C022100220023FFF72F
:106570005FFDBD4602B080BD80B584B000AF7860DD
:106580000023FB600DE07B685A68FB681B01D31891
:10659000181C022100220023FFF74AFDFB6801338B
:1065A000FB607B681B881AB2FB689A42EBDCBD4635
:1065B00004B080BD80B582B000AF786039603B68C0
:1065C000002B10DB7B681B881AB23B689A420ADDFD
:1065D0007B685A683B681B01D318181C02210022F3
:1065E0000023FFF725FDBD4602B080BD80B582B017
:1065F00000AF78607B681B881BB2181CBD4602B0D8
:1066000080BDC04680B582B000AF78607B68002B4B
:1066100002DB7B68042B01DD044B03E0044B7A684A
:106620009200D358181CBD4602B080BDF4AC0010D7
:10663000E4AC001090B58BB002AFF860B9603B607D
:10664000BB1D1A80FB68002B01D172B6FEE73B6BC5
:10665000042B01D972B6FEE7BB1D1A88BB6B101C58
:10666000191C01F019F9031CBB61BB69002B00D197
:1066700073E0BB691A6BBB1D1B88013B9B00D318E1
:106680007B617B69072293437B617A69072313400F
:1066900001D072B6FEE7B869B9683A6BFB6BBC1DF6
:1066A0002488009400F0FAFF7969FA683B68081CB6
:1066B000111C1A1C01F064FE021CBB691A607B6B82
:1066C000002B02D07B6BBA691A6001F0E1FE2E4B01
:1066D0001B685A1C2C4B1A602C4B1B68002B09D1D1
:1066E0002A4BBA691A60284B1B68012B0FD101F0A5
:1066F0001FF80CE0264B1B68002B08D1234B1B68AE
:10670000DA6A3B6B9A4202D8204BBA691A60214B75
:106710001B685A1C1F4B1A601E4B1A68BB691A640F
:10672000BB69DA6A1C4B1B689A4203D9BB69DA6AF7
:10673000194B1A60BB69DA6A131C9B009B189B00FB
:10674000164A9A18BB690433101C191C02F0B0F9E0
:106750000123FB6101F0ACFE02E001235B42FB611F
:10676000FB69012B0BD10A4B1B68002B07D0074B91
:106770001B68DA6A3B6B9A4201D201F07BFEFB692F
:10678000181CBD4609B090BD940D0020BC0C002023
:10679000A00D0020B00D00209C0D0020C00C00209A
:1067A00080B584B000AF786001F072FE7B68002B8A
:1067B00002D1204B1B6800E07B68FB60FB68043360
:1067C000181C02F0CDF9FB689B6A002B04D0FB6813
:1067D0001833181C02F0C4F9FB680433164A101C65
:1067E000191C02F065F9154B1B685A1C134B1A60F3
:1067F000134B1B685A1C124B1A6001F059FE114BC7
:106800001B68002B13D00B4B1B68FA689A4208D107
:106810000D4B1B68002B01D072B6FEE701F02AFE7B
:1068200005E001F035FE01F027F901F041FEBD461B
:1068300004B080BDBC0C0020680D00207C0D002041
:10684000B00D0020A00D0020B40D002080B586B052
:1068500000AF7860396000237B617B68002B01D139
:1068600072B6FEE73B68002B01D172B6FEE7244BFF
:106870001B68002B01D072B6FEE700F0A1FA214B95
:106880001B683B617B681A683B68D318FB607B68B8
:106890001A683B699A420BD97B681A68FB689A426E
:1068A00011D9FA683B699A420DD901237B610AE04C
:1068B0007B681A68FB689A4203D8FA683B699A4277
:1068C00001D901237B617B68FA681A607B69002B20
:1068D00009D00D4B1B680433181C02F041F9FB680A
:1068E000181C00F0A3FF00F077FA031CBB60BB6824
:1068F000002B01D101F0BEFDBD4606B080BDC046F3
:10690000B40D0020980D0020BC0C002080B584B090
:1069100000AF78600023FB607B68002B1AD0114B1E
:106920001B68002B01D072B6FEE700F049FA0E4B4F
:106930001A687B68D318BB600C4B1B680433181CA7
:1069400002F00EF9BB68181C00F070FF00F044FA6A
:10695000031CFB60FB68002B01D101F08BFDBD46E1
:1069600004B080BDB40D0020980D0020BC0C0020A8
:1069700080B584B000AF786001F08AFD7B68002BA1
:1069800002D1074B1B6800E07B68FB60FB68DB6A99
:10699000BB6001F08DFDBB68181CBD4604B080BD16
:1069A000BC0C002080B586B000AF78603960002351
:1069B0007B613B68042B01D972B6FEE73B68042B70
:1069C00001D904233B6001F063FD7B68002B02D1F9
:1069D000394B1B6800E07B683B613B699B6CFB604B
:1069E000FA683B689A4262D03A68FB689A420DD9CD
:1069F000314B1B683A699A420FD02F4B1B68DA6AF9
:106A00003B689A4209D801237B6106E02A4B1B6848
:106A10003A699A4201D101237B613B69DB6ABB6021
:106A20003B699A6C3B69DB6A9A4202D13B693A68DE
:106A3000DA623B693A689A643B699B69002B04DB24
:106A40003B680522D21A3B699A613B695969BA6869
:106A5000131C9B009B189B00184A9B18994201D15C
:106A6000012300E00023002B1CD03B690433181CD9
:106A700002F076F83B69DA6A114B1B689A4203D937
:106A80003B69DA6A0E4B1A603B69DA6A131C9B0099
:106A90009B189B00094A9A183B690433101C191C67
:106AA00002F006F87B69012B01D101F0E3FC01F053
:106AB000FFFCBD4606B080BDBC0C0020C00C002011
:106AC0009C0D002080B584B000AF786001F0E0FC40
:106AD0007B68002B02D1244B1B6800E07B68FB60C5
