:020000040C00EE
:100000000008001001020008813A0008833A000845
:10001000853A0008873A0008893A00080000000085
:100020000000000000000000000000008B3A000803
:100030008D3A0008000000008F3A0008955500082E
:10004000933A0008953A0008973A0008993A000850
:100050009B3A00089D3A00089F3A0008A13A000820
:10006000A33A0008000000000000000000000000AB
:10007000A53A000800000000A73A0008A93A0008C5
:10008000AB3A0008AD3A0008AF3A0008B13A0008B0
:10009000B33A0008B53A0008B73A0008B93A000880
:1000A000BB3A0008BD3A0008BF3A0008C13A000850
:1000B000C33A0008C53A0008C73A0008C93A000820
:1000C000CB3A0008CD3A0008CF3A0008D13A0008F0
:1000D000D33A0008D53A0008D73A0008D93A0008C0
:1000E000DB3A0008DD3A0008DF3A0008E13A000890
:1000F000E33A0008E53A0008E73A0008E93A000860
:10010000EB3A0008ED3A0008EF3A0008F13A00082F
:10011000F33A0008F53A0008F73A0008F93A0008FF
:10012000FB3A0008FD3A0008FF3A0008013B0008CE
:10013000033B0008053B0008073B0008093B00089B
:100140000B3B00080D3B00080F3B0008113B00086B
:10015000133B0008153B0008173B0008193B00083B
:10016000000000000000000000000000000000008F
:100170001B3B00081D3B00081F3B0008213B0008FB
:10018000233B0008253B0008273B0008293B0008CB
:100190002B3B00082D3B00082F3B0008313B00089B
:1001A000333B0008353B0008373B0008393B00086B
:1001B0003B3B00083D3B00083F3B0008413B00083B
:1001C000433B0008453B0008473B0008493B00080B
:1001D0004B3B00084D3B00084F3B0008000000006F
:1001E000513B0008533B0008553B0008573B0008B3
:1001F000593B0008000000005B3B000800000000C5
:10020000DFF80CD0034880470348804700F017B858
:1002100000080010653B0008055C0008002A00F09B
:100220000D804FEA920203680B60013A00F00680ED
:1002300000F1040001F10401FFF7F5BF7047144815
:100240001449154AFFF7EAFF14481549154AFFF704
:10025000E5FF15481549002900F00C804FEA91018F
:100260004FF000020260013900F0048000F1040048
:10027000FFF7F8BF0E480F4908600F488047DFF8C6
:100280003CD04FF000004FF00001DFF834F00000E8
:10029000A003010C00000020B80F00005813010C4F
:1002A0000008001000000000B80F0020200B000024
:1002B0000000000808ED00E01D84000800080010A0
:1002C0000521000800BF704780B483B000AF78609C
:1002D0000B467B807B687A88A3F8DC2207F10C0749
:1002E000BD4680BC704700BF80B483B000AF78606B
:1002F0007B68B3F8DC321BB2184607F10C07BD4629
:1003000080BC704780B483B000AF786007F10C0701
:10031000BD4680BC704700BF80B586B000AF786036
:1003200007F10C03184606F08FFF3CE07B68D3F81A
:10033000D43207F10C02786811461A4600F076FBB9
:100340000346002B35D07B681B681A467B68D3F8C0
:10035000D4321B691046194600F0FCFB7B68D3F8C9
:10036000D4327B617B68D3F8D4325A697B68C3F896
:10037000D4227B699B68002B08D17B69DB68002B4A
:1003800004D17868796900F0AFFA0CE07A697B698A
:1003900003F10803786811461A4600F071FB78688B
:1003A000796900F0F9FA7B68D3F8D432002BBDD11B
:1003B00000E000BF07F11807BD4680BD80B485B0DE
:1003C00000AF78607B684FF00002C3F8D4227B68EE
:1003D00003F104027B68C3F8D8227B684FF0000267
:1003E000C3F8D0224FF00003FB601CE0FB6803F170
:1003F000010213464FEA43039B184FEAC3037A688E
:10040000D31803F104017868FA6813464FEA4303EE
:100410009B184FEAC303C31803F118031960FB6864
:1004200003F10103FB60FB681C2BDFDD07F1140700
:10043000BD4680BC704700BF80B588B000AFF86093
:10044000B9607A60F86800F02FFAF861FB69002B58
:100450003BD07A6844F6D353C1F26203A3FB021384
:100460004FEA93137B617A6844F6D353C1F2620377
:10047000A3FB02134FEA93134FF47A7101FB03F3CA
:10048000D31A44F24022C0F20F0202FB03F3BB6115
:10049000FB694FF000029A60FB694FF00002DA60DE
:1004A000BB681B7B1A46FB691A61FB69184606F09C
:1004B000CBFEFA6907F11403F86811461A4600F0FA
:1004C000DFFAF868F96900F067FA07F12007BD461E
:1004D00080BD00BF80B588B000AFF860B9607A60B9
:1004E000F86800F0E1F9F861FB69002B3CD07A680C
:1004F00044F6D353C1F26203A3FB02134FEA9313F2
:100500007B617A6844F6D353C1F26203A3FB021302
:100510004FEA93134FF47A7101FB03F3D31A44F2B9
:100520004022C0F20F0202FB03F3BB61FB6903F13F
:10053000080307F1140292E8030083E80300BB6894
:100540001B7B1A46FB691A61FB69184606F07CFEA4
:10055000FA6907F11403F86811461A4600F090FA98
:10056000F868F96900F018FA07F12007BD4680BD68
:1005700080B582B000AF786039603B681B7B7868DB
:10058000194600F0C5F907F10807BD4680BD00BF58
:1005900080B483B000AF786013460A467A803B800F
:1005A0000DE0B7F90230022B08D17B684FF0020250
:1005B000A3F8E0224FF001037B8000E000BFB7F911
:1005C0000220B7F900309A42EBD107F10C07BD4683
:1005D00080BC704780B586B000AFF860B9607A60C3
:1005E0003B60BB6803F1FF33032B2ED801A252F806
:1005F00023F000BF050600081106000827060008C2
:100600003D060008F868FFF7D9FE4FF002031FE02F
:100610003B681B687B61F86879687A69FFF70CFFB3
:100620004FF0020314E03B681B683B61F86879688F
:100630003A69FFF74FFF4FF0020309E0F868796865
:10064000FFF796FF4FF0020302E000BF4FF00003F8
:100650001BB2184607F11807BD4680BD80B584B0AF
:1006600000AF78600B467B804FF00003FB73B7F957
:100670000230022B07DD7B88A3F103039BB27B8052
:100680004FF00103FB73B7F90230012B0BD0022BA3
:100690000ED1FB7B002B02D17868FFF733FE4FF0C1
:1006A00002031BB209E07B68B3F8E0327B8000E014
:1006B00000BF4FF00003FB73E5E7184607F1100792
:1006C000BD4680BD80B584B000AF78604FF00103B7
:1006D000FB607868F9684FF000024FF00003FFF705
:1006E00079FF03467B81B7F90A3078681946FFF72E
:1006F000B5FF03467B81B7F90A3078681946FFF7E2
:10070000E3FD07F11007BD4680BD00BF80B588B08E
:1007100000AFF860B9607A603B60BB68002B09D01D
:10072000BB685B7A1A467B684FF0640101FB03F3F8
:10073000D31801E04FF000037B614FF00003FB6131
:100740004FF000037B83B86879683A6806F028FEAA
:100750000346002B32D1F868FFF7C6FD0346022B93
:100760002BD17B69C92B18D0C92B02DC002B09D0F7
:1007700021E040F22D12934208D040F291129342B0
:1007800012D018E0F868FFF7C7FD15E04FF002033C
:10079000FB614FF001037B830EE04FF00303FB612D
:1007A0004FF001037B8307E04FF00403FB614FF040
:1007B00001037B8300E000BF00E000BFFB69002B6A
:1007C00021D0F868FFF790FD03461A46B7F91A30B2
:1007D000F86811461A46FFF7DBFEF868F969BA684F
:1007E0003B68FFF7F7FE03467B82B7F91230F868E3
:1007F0001946FFF733FF03467B82B7F91230F868DA
:100800001946FFF761FD07F12007BD4680BD00BF17
:1008100080B584B000AF78607B684FF00102A3F828
:10082000DC224FF00003FB600DE07A68FB6803F503
:10083000B6734FEA4303D3184FF00002DA80FB6827
:1008400003F10103FB60FB68012BEEDD7868FFF725
:1008500039FF07F11007BD4680BD00BF80B584B0E9
:1008600000AFF860B9607A607B68DB881AB27B6899
:1008700003F10803F868B968FFF748FF07F11007AC
:10088000BD4680BD80B582B000AF786078684FF01B
:1008900000014FF000024FF00003FFF737FF07F1B0
:1008A0000807BD4680BD00BF80B485B000AF78604A
:1008B0007B68D3F8D832FB607B68D3F8D832002B42
:1008C0000AD07B68D3F8D8325A697B68C3F8D8223B
:1008D000FB684FF000025A61FB68184607F11407E5
:1008E000BD4680BC704700BF80B483B000AF786065
:1008F00039607B68D3F8D8223B685A617B683A68D4
:10090000C3F8D82207F10C07BD4680BC704700BF72
:1009100080B584B000AF786039607B68D3F8D4329A
:10092000FB607B68D3F8D432BB60FB68002B2DD012
:100930007B68D3F8D4321A693B689A420BD17B6842
:10094000D3F8D4325A697B68C3F8D4227868F9683E
:10095000FFF7CAFF1BE0FB685B69FB6012E0FB6806
:100960001A693B689A4208D1FB685A69BB685A61A8
:100970007868F968FFF7B8FF09E0FB68BB60FB68BF
:100980005B69FB60FB68002BE9D100E000BF07F169
:100990001007BD4680BD00BF80B584B000AF786051
:1009A00039607B68D3F8D432FB607B68D3F8D432EB
:1009B000BB60FB68002B08D13B684FF000025A6116
:1009C0007B683A68C3F8D4222CE0FB68002B21D066
:1009D0003A68FB68786811461A4600F027F8034623
:1009E000002B05D0FB68BB60FB685B69FB60ECE734
:1009F0003B68FA685A617B68D3F8D422FB689A4254
:100A000004D17B683A68C3F8D4220BE0BB683A682B
:100A10005A6107E03B684FF000025A61BB683A68D0
:100A20005A6100BF07F11007BD4680BD80B485B094
:100A300000AFF860B9607A60BB681A687B681B68B1
:100A40009A4202DD4FF0010313E0BB681A687B682D
:100A50001B689A4202DA4FF000030AE0BB685A684A
:100A60007B685B689A4202DD4FF0010301E04FF0C2
:100A70000003184607F11407BD4680BC704700BF4D
:100A800080B485B000AFF860B9607A60BB681A685E
:100A90007B681B68D218BB681A60BB685A687B68A1
:100AA0005B68D218BB685A600EE0BB681B6803F134
:100AB0000102BB681A60BB685A684FF45853CCF205
:100AC0006543D318BA685360BB685A684CF6FF1385
:100AD000C3F69A339A42E8DC07F11407BD4680BC9E
:100AE000704700BF80B582B000AF786078684FF083
:100AF00001014FF000024FF0000306F05FFC07F128
:100B00000807BD4680BD00BF80B584B000AF7860E7
:100B10004FF00003FB6012E07B685A68FB684FEA05
:100B20000313D31818464FF001014FF000024FF0A5
:100B3000000306F043FCFB6803F10103FB607B68E4
:100B40001B881AB2FB689A42E6DC07F11007BD4623
:100B500080BD00BF80B582B000AF786039603B686F
:100B6000002B14DB7B681B881AB23B689A420EDDAF
:100B70007B685A683B684FEA0313D31818464FF056
:100B800001014FF000024FF0000306F017FC07F1DF
:100B90000807BD4680BD00BF80B483B000AF786059
:100BA0007B681B881BB2184607F10C07BD4680BC4A
:100BB000704700BF80B582B000AF786039607B6855
:100BC0001B681B78002B0CD17B681B684FF003025D
:100BD0001A703B4678684FF002014FF0040206F0AD
:100BE000EDFB07F10807BD4680BD00BF80B584B0AE
:100BF00000AF786039604FF00003FB600DE07B6868
:100C00005A68FB684FEA0313D31818463968FFF790
:100C1000D1FFFB6803F10103FB607B681B881AB2FC
:100C2000FB689A42EBDC07F11007BD4680BD00BFB0
:100C300080B584B000AFF860B9607A60FB685A682C
:100C4000BB684FEA0313D31818467968FFF7B2FF61
:100C500007F11007BD4680BD80B582B000AF786057
:100C600039607B681B681B78002B0CD17B681B6884
:100C70004FF001021A703B4678684FF003014FF0C5
:100C8000040206F09BFB07F10807BD4680BD00BFCC
:100C900080B584B000AF786039604FF00003FB602E
:100CA0000DE07B685A68FB684FEA0313D3181846B7
:100CB0003968FFF7D1FFFB6803F10103FB607B6834
:100CC0001B881AB2FB689A42EBDC07F11007BD469D
:100CD00080BD00BF80B584B000AFF860B9607A60B5
:100CE000FB685A68BB684FEA0313D3181846796843
:100CF000FFF7B2FF07F11007BD4680BD80B582B097
:100D000000AF78607B681B681B78002B0DD07B6878
:100D10001B684FF000021A7078684FF004014FF022
:100D200000024FF0000306F049FB07F10807BD463B
:100D300080BD00BF80B584B000AF78604FF0000385
:100D4000FB600CE07B685A68FB684FEA0313D3181A
:100D50001846FFF7D3FFFB6803F10103FB607B68D4
:100D60001B881AB2FB689A42ECDC07F11007BD46FB
:100D700080BD00BF80B582B000AF786039607B680D
:100D80005A683B684FEA0313D3181846FFF7B6FFBB
:100D900007F10807BD4680BD80B483B000AF78601E
:100DA0007B681B881BB2184607F10C07BD4680BC48
:100DB000704700BF80B584B000AFF860B9607A605A
:100DC0003B60FB681B681B78002B0ED0FB681B6820
:100DD0001B78012B04D1FB681B684FF000021A70CE
:100DE0003B687868F968BA68984707F11007BD460C
:100DF00080BD00BF80B483B000AF78600B467B80BD
:100E00007B687A88A3F8882207F10C07BD4680BC6E
:100E1000704700BF80B483B000AF78607B68B3F8E0
:100E200088321BB2184607F10C07BD4680BC7047DC
:100E300080B582B000AF786002F0C4FB7B681B68AD
:100E40001A467B68D3F8843210461946FFF7B2FE83
:100E500007F10807BD4680BD80B586B000AFF860D9
:100E6000B9607A604FF000037B612DE0FA687B691E
:100E70004FEAC303D3189A687B681B689A421FD154
:100E8000FA687B694FEAC303D3185A68BB681B7BB7
:100E9000F96803F128034FEAC303CB185B6853409A
:100EA0004FEA13434FEA0343002B09D0FB681B684A
:100EB00003F114027B69104619467A6800F0C6FAFD
:100EC0007B6903F101037B61FB681B6803F1140379
:100ED000184600F0DDFA03461A467B699A42C5D8E7
:100EE000BB681B7BFA6803F128034FEAC303D318DE
:100EF0005B683B613869796802F0F6FB07F1180717
:100F0000BD4680BD80B584B000AFF860B9607A603E
:100F1000BB681B7BFA6803F128034FEAC303D318AD
:100F20007A685A60786802F081FB07F11007BD46C5
:100F300080BD00BF80B584B000AFF860B9607A6052
:100F4000BB681B7BFA684FEAC303D3187A685A6000
:100F5000786802F06BFB07F11007BD4680BD00BF4B
:100F600080B586B000AFF860B9607A60BB681B7B63
:100F70007A681268F9684FEAC303CB189A60BB68B5
:100F80001B7BFA684FEAC303D3185B687B617869FF
:100F9000796802F01BFC07F11807BD4680BD00BF51
:100FA00080B582B000AF78603960786800F0CCF925
:100FB00007F10807BD4680BD80B483B000AF7860FC
:100FC00013460A467A803B800DE0B7F90230022BC7
:100FD00008D17B684FF00202A3F88C224FF0010386
:100FE0007B8000E000BFB7F90220B7F900309A42D9
:100FF000EBD107F10C07BD4680BC704780B588B0C7
:1010000000AFF860B9607A603B60BB6803F1FF3302
:10101000082B55D801A252F823F000BF4110000858
:101020004D10000861100008771000087D100008BE
:1010300093100008991000089F100008B3100008D2
:10104000F868FFF7F5FE4FF002033CE03B68FB61F8
:10105000F8687968FA69FFF7FFFE4FF0020332E0A3
:101060003B681B68BB61F8687968BA69FFF74AFF9B
:101070004FF0020327E04FF0020324E03B681B68B7
:101080007B61F86879687A69FFF754FF4FF00203D3
:1010900019E04FF0020316E04FF0020313E03B6843
:1010A0003B61F86879683A69FFF75AFF4FF002032D
:1010B00009E0F8687968FFF773FF4FF0020302E078
:1010C00000BF4FF000031BB2184607F12007BD46D2
:1010D00080BD00BF80B485B000AF78600B467B80D8
:1010E0004FF00003FB73B7F90230022B07DD7B885A
:1010F000A3F103039BB27B804FF00103FB73B7F9AD
:101100000230012B05D0022B08D14FF002031BB295
:1011100009E07B68B3F88C327B8000E000BF4FF0C1
:101120000003FB73EBE7184607F11407BD4680BCCC
:10113000704700BF80B584B000AF78604FF0010306
:10114000FB607868F9684FF000024FF00003FFF78A
:1011500055FF03467B81B7F90A3078681946FFF7D7
:10116000B9FF03467B81B7F90A3078681946FFF763
:1011700041FE07F11007BD4680BD00BF80B588B0B5
:1011800000AFF860B9607A603B60BB685B7A1A4672
:101190007B684FF0640101FB03F3D3187B614FF0D0
:1011A0000003FB614FF000037B83B86879683A68FD
:1011B00006F0F6F80346002B62D1F868FFF72AFE26
:1011C0000346022B5BD17B69B3F5977F1DD0B3F546
:1011D000977F06DCCA2B1FD0CB2B2BD0652B45D09D
:1011E0004BE0B3F5C97F1ED0B3F5C97F04DC40F2F4
:1011F0002F12934225D040E040F2931293422ED01A
:1012000040F2F712934223D037E04FF00203FB6124
:101210004FF001037B8331E04FF00303FB614FF09C
:1012200001037B832AE04FF00403FB614FF00103CD
:101230007B8323E04FF00503FB614FF001037B83C9
:101240001CE04FF00603FB614FF001037B8315E0C8
:101250004FF00703FB614FF001037B830EE04FF07B
:101260000803FB614FF001037B8307E04FF00903A4
:10127000FB614FF001037B8300E000BF00E000BF93
:10128000FB69002B21D0F868FFF7C4FD03461A461E
:10129000B7F91A30F86811461A46FFF78DFEF8685C
:1012A000F969BA683B68FFF7A9FE03467B82B7F984
:1012B0001230F8681946FFF70DFF03467B82B7F935
:1012C0001230F8681946FFF795FD07F12007BD4673
:1012D00080BD00BF80B584B000AF78607B684FF000
:1012E0000102A3F888224FF00003FB600DE07A684A
:1012F000FB6803F5A2734FEA4303D3184FF00002D3
:101300005A80FB6803F10103FB60FB68012BEEDDF3
:101310007868FFF70FFF07F11007BD4680BD00BFDB
:1013200080B584B000AFF860B9607A607B68DB8814
:101330001AB27B6803F10803F868B968FFF71EFF6B
:1013400007F11007BD4680BD80B588B000AF78605A
:101350007B681B6803F11403184600F099F80346F4
:10136000BB6102F0BBF94FF00003FB611EE07A683D
:10137000FB694FEAC303D3185A6807F10803104604
:10138000194602F0F7FA0346012B0BD17B681B6864
:1013900003F11401FA6907F10803084611461A46D9
:1013A00000F054F8FB6903F10103FB61FA69BB69C2
:1013B0009A42DCD307F12007BD4680BD80B582B0DC
:1013C00000AF78603960386879684FF0080207F03C
:1013D000BDFB07F10807BD4680BD00BF80B582B0E8
:1013E00000AF7860396078684FF001014FF010026B
:1013F0003B6805F0E3FF07F10807BD4680BD00BF6D
:1014000080B584B000AF786039604FF00003FB60B6
:1014100011E07B685A68FB684FEA0313D31818463B
:101420004FF001014FF010023B6805F0C7FFFB6869
:1014300003F10103FB607B681B881AB2FB689A42C8
:10144000E7DC07F11007BD4680BD00BF80B584B062
:1014500000AFF860B9607A60BB68002B13DBFB68F3
:101460001B881AB2BB689A420DDDFB685A68BB68DC
:101470004FEA0313D31818464FF001014FF0100242
:101480007B6805F09BFF07F11007BD4680BD00BFDC
:1014900080B483B000AF78607B681B881BB21846AD
:1014A00007F10C07BD4680BC704700BF80B582B015
:1014B00000AF786039603B68B3F1FF3F03D07B68D1
:1014C0001B683A681A607B681B6878684FF00201F5
:1014D0004FF0040205F072FF07F10807BD4680BD1A
:1014E00080B584B000AF786039604FF00003FB60D6
:1014F0000DE07B685A68FB684FEA0313D31818465F
:101500003968FFF7D3FFFB6803F10103FB607B68D9
:101510001B881AB2FB689A42EBDC07F11007BD4644
:1015200080BD00BF80B584B000AFF860B9607A605C
:10153000FB685A68BB684FEA0313D31818467968EA
:10154000FFF7B4FF07F11007BD4680BD80B582B03C
:1015500000AF786078684FF003014FF000024FF061
:10156000000305F02BFF07F10807BD4680BD00BF53
:1015700080B584B000AF78604FF00003FB6012E0EC
:101580007B685A68FB684FEA0313D31818464FF07C
:1015900003014FF000024FF0000305F00FFFFB685E
:1015A00003F10103FB607B681B881AB2FB689A4257
:1015B000E6DC07F11007BD4680BD00BF80B582B0F4
:1015C00000AF786039603B68002B14DB7B681B88B8
:1015D0001AB23B689A420EDD7B685A683B684FEA54
:1015E0000313D31818464FF003014FF000024FF0D9
:1015F000000305F0E3FE07F10807BD4680BD00BF0C
:1016000080B582B000AF7860396078684FF004012F
:101610004FF010023B6805F0D1FE07F10807BD4608
:1016200080BD00BF80B584B000AF786039604FF0F6
:101630000003FB6011E07B685A68FB684FEA031304
:10164000D31818464FF004014FF010023B6805F024
:10165000B5FEFB6803F10103FB607B681B881AB2CF
:10166000FB689A42E7DC07F11007BD4680BD00BF6A
:1016700080B584B000AFF860B9607A60BB68002BB9
:1016800013DBFB681B881AB2BB689A420DDDFB684E
:101690005A68BB684FEA0313D31818464FF0040189
:1016A0004FF010027B6805F089FE07F11007BD4678
:1016B00080BD00BF80B582B000AF786078684FF021
:1016C00005014FF000024FF0000305F077FE07F12F
:1016D0000807BD4680BD00BF80B584B000AF78600C
:1016E0004FF00003FB6012E07B685A68FB684FEA2A
:1016F0000313D31818464FF005014FF000024FF0C6
:10170000000305F05BFEFB6803F10103FB607B68EF
:101710001B881AB2FB689A42E6DC07F11007BD4647
:1017200080BD00BF80B582B000AF786039603B6893
:10173000002B14DB7B681B881AB23B689A420EDDD3
:101740007B685A683B684FEA0313D31818464FF07A
:1017500005014FF000024FF0000305F02FFE07F1E6
:101760000807BD4680BD00BF80B483B000AF78607D
:101770007B681B881BB2184607F10C07BD4680BC6E
:10178000704700BF80B582B000AF78600B46FB7039
:1017900007F1030378684FF001014FF0010205F0F3
:1017A0000DFE07F10807BD4680BD00BF80B584B0BF
:1017B00000AF78600B46FB704FF00003FB6013E056
:1017C0007B685A68FB684FEA0313D3181A4607F17F
:1017D000030310464FF001014FF0010205F0EEFD4A
:1017E000FB6803F10103FB607B681B881AB2FB688E
:1017F0009A42E5DC07F11007BD4680BD80B584B094
:1018000000AFF860B9601346FB71BB68002B15DBB5
:10181000FB681B881AB2BB689A420FDDFB685A68E6
:10182000BB684FEA0313D3181A4607F107031046A3
:101830004FF001014FF0010205F0C0FD07F1100764
:10184000BD4680BD80B483B000AF78607B681B88E4
:101850001BB2184607F10C07BD4680BC704700BF9D
:1018600080B582B000AF786039603B68B3F1FF3F6C
:1018700003D07B681B683A681A607B681B687868CD
:101880004FF002014FF0040205F098FD07F1080740
:10189000BD4680BD80B584B000AF786039604FF040
:1018A0000003FB600DE07B685A68FB684FEA031396
:1018B000D31818463968FFF7D3FFFB6803F101031B
:1018C000FB607B681B881AB2FB689A42EBDC07F16D
:1018D0001007BD4680BD00BF80B584B000AFF86082
:1018E000B9607A60FB685A68BB684FEA0313D31883
:1018F00018467968FFF7B4FF07F11007BD4680BDB1
:1019000080B582B000AF7860396078684FF003012D
:101910004FF010023B6805F051FD07F10807BD4686
:1019200080BD00BF80B584B000AF786039604FF0F3
:101930000003FB6011E07B685A68FB684FEA031301
:10194000D31818464FF003014FF010023B6805F022
:1019500035FDFB6803F10103FB607B681B881AB24D
:10196000FB689A42E7DC07F11007BD4680BD00BF67
:1019700080B584B000AFF860B9607A60BB68002BB6
:1019800013DBFB681B881AB2BB689A420DDDFB684B
:101990005A68BB684FEA0313D31818464FF0030187
:1019A0004FF010027B6805F009FD07F11007BD46F6
:1019B00080BD00BF80B582B000AF786078684FF01E
:1019C00004014FF000024FF0000305F0F7FC07F1AF
:1019D0000807BD4680BD00BF80B584B000AF786009
:1019E0004FF00003FB6012E07B685A68FB684FEA27
:1019F0000313D31818464FF004014FF000024FF0C4
:101A0000000305F0DBFCFB6803F10103FB607B686E
:101A10001B881AB2FB689A42E6DC07F11007BD4644
:101A200080BD00BF80B582B000AF786039603B6890
:101A3000002B14DB7B681B881AB23B689A420EDDD0
:101A40007B685A683B684FEA0313D31818464FF077
:101A500004014FF000024FF0000305F0AFFC07F166
:101A60000807BD4680BD00BF80B483B000AF78607A
:101A70007B681B881BB2184607F10C07BD4680BC6B
:101A8000704700BF80B500AF40F20800C2F200000E
:101A9000FEF7F8FE40F2A050C2F2000000F05AFF3C
:101AA00040F2B050C2F2000001F0E0FB40F2DC5026
:101AB000C2F2000000F05AFD80BD00BF80B582B0C8
:101AC00000AF78607B689B881BB203F1FF33412B2A
:101AD00000F2D08101A252F823F000BFE51B0008FC
:101AE000751E0008751E0008751E0008751E00088A
:101AF000751E0008751E0008751E0008751E00087A
:101B0000751E0008751E0008751E0008751E000869
:101B1000751E0008751E0008751E0008751E000859
:101B2000751E0008751E0008751E0008751E000849
:101B3000751E0008751E0008751E0008751E000839
:101B4000751E0008751E0008751E0008751E000829
:101B5000751E0008751E0008751E0008751E000819
:101B6000071C0008231C0008751E0008431C000801
:101B7000871C0008A31C0008BF1C0008DF1C00080D
:101B8000FF1C00081F1D00083F1D0008751E0008EF
:101B90005F1D0008771D0008891D0008751E0008DC
:101BA0009B1D0008751E0008B31D0008C51D000818
:101BB000751E0008D71D0008751E0008751E000858
:101BC000751E0008EF1D0008011E0008751E0008A4
:101BD000751E0008751E0008391E0008511E0008F9
:101BE000631E00087B68DB881BB2012B02D1FFF764
:101BF00049FF4AE17B68DB881BB2022B40F045813C
:101C00004FF0000344E14FF67463C0F600035B68D5
:101C100040F20800C2F2000019467A68FEF71EFE84
:101C200034E14FF67463C0F600035B6803F1100300
:101C300040F20800C2F2000019467A68FEF70EFE74
:101C400024E17B68DB881BB2012B0FD14FF6EC60DF
:101C5000C0F60000796840F2EC22C2F2000241F2C4
:101C60002133C0F60003FFF7A5F80BE040F2EC20AB
:101C7000C2F200004FF6EC61C0F600017A68FFF78F
:101C80004FFB00BF02E14FF6EC63C0F600031B6997
:101C900040F2EC20C2F2000019467A68FFF740FBE0
:101CA000F4E04FF6EC63C0F600039B6940F2EC20D1
:101CB000C2F2000019467A68FFF732FBE6E04FF601
:101CC000EC63C0F600039B6903F1100340F2EC20C3
:101CD000C2F2000019467A68FFF722FBD6E04FF601
:101CE000EC63C0F600039B6903F1200340F2EC2093
:101CF000C2F2000019467A68FFF712FBC6E04FF601
:101D0000EC63C0F600039B6903F1300340F2EC2062
:101D1000C2F2000019467A68FFF702FBB6E04FF600
:101D2000EC63C0F600039B6903F1400340F2EC2032
:101D3000C2F2000019467A68FFF7F2FAA6E04FF601
:101D4000EC63C0F600039B6903F1500340F2EC2002
:101D5000C2F2000019467A68FFF7E2FA96E040F214
:101D60007C50C2F200004FF60871C0F600017A689C
:101D700001F030F88AE040F27C50C2F2000047499E
:101D80007A6801F027F881E040F27C50C2F200004E
:101D900043497A6801F01EF878E040F2A050C2F2A0
:101DA00000004FF62C71C0F600017A6800F0BEFD0D
:101DB0006CE040F2A050C2F200003A497A6800F0AC
:101DC000B5FD63E040F2A050C2F2000036497A68E7
:101DD00000F0ACFD5AE040F2B050C2F200004FF605
:101DE0005071C0F600017A6801F02CFA4EE040F222
:101DF000B050C2F200002D497A6801F023FA45E0A4
:101E00007B68DB881BB2012B0CD12948796840F232
:101E1000B052C2F2000243F24523C0F60003FEF7BF
:101E2000C9FF08E040F2B050C2F2000020497A68D1
:101E300001F008FA00BF29E040F2DC50C2F20000D5
:101E40004FF67C71C0F600017A6800F07BFB1DE064
:101E500040F2DC50C2F2000016497A6800F072FBD2
:101E600014E040F2DC50C2F2000013497A6800F03E
:101E700069FB0BE07B689B881BB24FF6A470C0F631
:101E80000000194605F0E4F800E000BF4FF0010340
:101E9000184607F10807BD4680BD00BF14FF0008C3
:101EA00020FF000838FF000844FF00085CFF00081E
:101EB00070FF00088CFF000898FF000880B588B00C
:101EC00006AF4FF000033B6049F28063C0F2980315
:101ED0007B604FF4806300934FF00303019302AAE9
:101EE0003B4693E8030082E8030041F6BD23C0F6B9
:101EF000000304934FF00203059341F2B840C2F28D
:101F0000000040F6B871C2F200014FF028024FF015
:101F1000200305F099FA07F10807BD4680BD00BF10
:101F200080B500AF41F2B840C2F2000005F0F0FA0F
:101F300080BD00BF80B500AF41F2B840C2F20000E2
:101F400005F004FB80BD00BF80B500AF41F2B84092
:101F5000C2F2000005F020FB80BD00BF80B500AFDD
:101F600040F20003C2F200031B684FF6F070C0F6A7
:101F70000000194605F07CF800F096F8FFF79EFF88
:101F800000F098F880BD00BF80B500AF40F20003BC
:101F9000C2F200031B684FF6F870C0F60000194645
:101FA00005F066F8FFF7BCFF80BD00BF80B592B0BA
:101FB00000AF0346FB71FB79002B06D005F0D4F986
:101FC0000346184605F0C0F82FE040F20400C0F6C2
:101FD000010006F02BFF40F62833C2F200031B6815
:101FE0009B68184605F0E6FE00E000BF40F6283387
:101FF000C2F200031B685B6807F1080210464FF04D
:1020000040011A4605F042FF0346002BEDD007F1D0
:102010000803184640F21801C0F601014FF004020F
:1020200007F064F90346002BDFD107F14807BD46EE
:1020300080BD00BF80B500AF40F20003C2F20003D4
:102040001B6840F22000C0F60100194605F010F8A8
:10205000FFF770FF80BD00BF80B500AF40F2000306
:10206000C2F200031B6840F22800C0F601001946C6
:1020700004F0FEFFFFF768FF80BD00BF80B500AF32
:1020800040F20003C2F200031B6840F23400C0F6C5
:102090000100194604F0ECFF40F20003C2F2000315
:1020A0004FF001025A6080BD80B400AFBD4680BCD5
:1020B000704700BF80B500AF40F20800C2F20000D8
:1020C000FEF7A6FB40F2EC20C2F20000FFF702F997
:1020D00040F27C50C2F2000000F058FE40F2A050E6
:1020E000C2F2000000F0FEFB40F2B050C2F200006D
:1020F00001F084F840F2DC50C2F2000000F0FEF97A
:1021000080BD00BF80B584B000AF786039604FF00B
:102110000003FB737B68012B10DD3B6803F10403B4
:102120001B68184640F24001C0F6010106F0C0FFEE
:102130000346002B02D14FF00103FB737B68012B98
:1021400010DD3B6803F104031B68184640F24C01A4
:10215000C0F6010106F0ACFF0346002B02D14FF0A0
:102160000103FB7304F0B2FF40F25C00C0F6010013
:1021700004F064FFFFF7F2FEFFF706FF04F0ACFF88
:10218000FB7B1846FFF712FF04F0B4FFFFF752FF86
:10219000FFF762FF40F27C00C0F6010004F04EFF42
:1021A00004F0AEFF4FF00003184607F11007BD46DC
:1021B00080BD00BF80B483B000AF78600B467B80E9
:1021C0007B687A885A8107F10C07BD4680BC70474E
:1021D00080B483B000AF78607B685B891BB218461F
:1021E00007F10C07BD4680BC704700BF80B586B0C4
:1021F00000AF78607B681B7ABB607B681B6803F16B
:102200001C0318464FF0FF31FFF72AFB7B681B6861
:1022100003F1100318464FF0FF31FFF747F97B68D1
:102220001B6803F1100207F1080310461946FFF777
:10223000E7F907F11807BD4680BD00BF80B586B03D
:1022400000AFF860B9607A607B685B797B614FF0C2
:102250000003FB7410E07B694FEA03237B61FB7C86
:1022600003F101037A68D3185B797A69D3187B612B
:10227000FB7C03F10103FB74FB7C022BEBD9FB68B5
:1022800003F104031846796901F0E8F807F118072B
:10229000BD4680BD80B586B000AF786039607B6890
:1022A0005B7ABB604FF001033B737B681B6803F1F3
:1022B0000C03184601F0E0F80346DBB27B737B6841
:1022C0001B6803F11C0207F1080310461946FFF7CB
:1022D00017FB07F11807BD4680BD00BF80B483B06F
:1022E00000AF786013460A467A803B800CE0B7F96D
:1022F0000230022B07D17B684FF00202DA814FF0E7
:1023000001037B8000E000BFB7F90220B7F900307D
:102310009A42ECD107F10C07BD4680BC704700BF64
:1023200080B586B000AFF860B9607A603B60BB688A
:10233000022B09D0032B11D0012B16D1F868FFF71F
:1023400055FF4FF0020313E03B687B61F868796842
:102350007A69FFF773FF4FF0020309E0F8687968C4
:10236000FFF798FF4FF0020302E000BF4FF00003B9
:102370001BB2184607F11807BD4680BD80B485B072
:1023800000AF78600B467B804FF00003FB73B7F91A
:102390000230022B07DD7B88A3F103039BB27B8015
:1023A0004FF00103FB73B7F90230012B05D0022B6C
:1023B00007D14FF002031BB208E07B68DB897B800A
:1023C00000E000BF4FF00003FB73ECE7184607F195
:1023D0001407BD4680BC704780B584B000AF7860FC
:1023E0004FF00103FB607868F9684FF000024FF08E
:1023F0000003FFF795FF03467B81B7F90A30786841
:102400001946FFF7BBFF03467B81B7F90A307868AE
:102410001946FFF7CFFE07F11007BD4680BD00BF8C
:1024200080B588B000AFF860B9607A603B60BB6887
:10243000002B09D0BB685B7A1A467B684FF06401B9
:1024400001FB03F3D31801E04FF000037B614FF071
:102450000003FB614FF000037B83B86879683A683A
:1024600004F09EFF0346002B1FD1F868FFF7B0FE73
:102470000346022B18D17B69672B0BD0682B02D047
:10248000002B0FD00DE04FF00203FB614FF0010372
:102490007B8308E04FF00303FB614FF001037B8374
:1024A00001E000E000BF00E000BFFB69002B21D08D
:1024B000F868FFF78DFE03461A46B7F91A30F86838
:1024C00011461A46FFF70AFFF868F969BA683B68CF
:1024D000FFF726FF03467B82B7F91230F8681946EA
:1024E000FFF74CFF03467B82B7F91230F8681946B4
:1024F000FFF760FE07F12007BD4680BD80B584B0C0
:1025000000AF78607B684FF001025A814FF0000302
:10251000FB600DE07A68FB6803F104034FEA4303B4
:10252000D3184FF000029A80FB6803F10103FB60AF
:10253000FB68012BEEDD7868FFF74EFF07F110070F
:10254000BD4680BD80B584B000AFF860B9607A60E8
:102550007B68DB881AB27B6803F10803F868B96806
:10256000FFF75EFF07F11007BD4680BD80B582B062
:1025700000AF786078684FF000014FF000024FF034
:102580000003FFF74DFF07F10807BD4680BD00BF00
:1025900080B483B000AF78600B467B807B687A881C
:1025A0005A8107F10C07BD4680BC704780B483B0E8
:1025B00000AF78607B685B891BB2184607F10C0797
:1025C000BD4680BC704700BF80B586B000AF786064
:1025D0007B681B6803F1180318464FF0FF31FEF7C4
:1025E00065FF7B681B6803F10C0318464FF0FF3151
:1025F000FEF75CFF7B681B7ABB607B681B6803F19E
:102600000C0207F1080310461946FEF7F9FF7B6834
:102610005B7ABB607B681B6803F1180207F1080353
:1026200010461946FEF7ECFF07F11807BD4680BDBE
:1026300080B584B000AFF860B9607A607B685B7980
:10264000012B05D1FB681B68184600F045FE04E02D
:10265000FB681B68184600F099FE07F11007BD469D
:1026600080BD00BF80B586B000AFF860B9607A6009
:102670007B685B797B614FF00003FB7410E07B6942
:102680004FEA03237B61FB7C03F101037A68D318D3
:102690005B797A69D3187B61FB7C03F10103FB74DE
:1026A000FB7C022BEBD9FB6803F104031846796924
:1026B00000F0D4FE07F11807BD4680BD80B483B09A
:1026C00000AF786013460A467A803B800CE0B7F989
:1026D0000230022B07D17B684FF00202DA814FF003
:1026E00001037B8000E000BFB7F90220B7F900309A
:1026F0009A42ECD107F10C07BD4680BC704700BF81
:1027000080B586B000AFF860B9607A603B60BB68A6
:10271000022B09D0032B11D0012B19D1F868FFF738
:1027200053FF4FF0020316E03B687B61F86879685D
:102730007A69FFF77DFF4FF002030CE03B683B61D5
:10274000F86879683A69FFF78DFF4FF0020302E0FD
:1027500000BF4FF000031BB2184607F11807BD4633
:1027600080BD00BF80B485B000AF78600B467B8031
:102770004FF00003FB73B7F90230022B07DD7B88B3
:10278000A3F103039BB27B804FF00103FB73B7F906
:102790000230012B05D0022B07D14FF002031BB2F0
:1027A00008E07B68DB897B8000E000BF4FF000031E
:1027B000FB73ECE7184607F11407BD4680BC704771
:1027C00080B584B000AF78604FF00103FB6078689B
:1027D000F9684FF000024FF00003FFF791FF034646
:1027E0007B81B7F90A3078681946FFF7BBFF0346CB
:1027F0007B81B7F90A3078681946FFF7C9FE07F1FF
:102800001007BD4680BD00BF80B588B000AFF8603E
:10281000B9607A603B60BB68002B09D0BB685B7A0B
:102820001A467B684FF0640101FB03F3D31801E003
:102830004FF000037B614FF00003FB614FF000039A
:102840007B83B86879683A6804F0AAFD0346002BD8
:102850001FD1F868FFF7AAFE0346022B18D17B6947
:10286000672B04D0682B09D0002B0FD00DE04FF060
:102870000203FB614FF001037B8308E04FF0030389
:10288000FB614FF001037B8301E000E000BF00E04B
:1028900000BFFB69002B21D0F868FFF787FE0346D5
:1028A0001A46B7F91A30F86811461A46FFF706FFBC
:1028B000F868F969BA683B68FFF722FF03467B8234
:1028C000B7F91230F8681946FFF74CFF03467B82D0
:1028D000B7F91230F8681946FFF75AFE07F12007DA
:1028E000BD4680BD80B584B000AF78607B684FF096
:1028F00001025A814FF00003FB600DE07A68FB682B
:1029000003F104034FEA4303D3184FF000029A8007
:10291000FB6803F10103FB60FB68012BEEDD7868C7
:10292000FFF74EFF07F11007BD4680BD80B584B0AC
:1029300000AFF860B9607A607B68DB881AB27B68A8
:1029400003F10803F868B968FFF75EFF07F11007A5
:10295000BD4680BD80B582B000AF786078684FF02A
:1029600000014FF000024FF00003FFF74DFF07F1A9
:102970000807BD4680BD00BF80B483B000AF78605B
:102980000B467B807B687A889A8307F10C07BD46EB
:1029900080BC704780B483B000AF78607B689B8B4D
:1029A0001BB2184607F10C07BD4680BC704700BF3C
:1029B00080B586B000AF78607B681B6818464FF022
:1029C000FF31FEF773FD7B681B6803F10C031846AB
:1029D0004FF0FF31FEF76AFD7B681B6803F11803B7
:1029E00018464FF0FF31FEF761FD7B681B69BB6045
:1029F0007B681B681A4607F1080310461946FEF764
:102A0000FFFD7B685B69BB607B681B6803F10C02A0
:102A100007F1080310461946FEF7F2FD7B689B6933
:102A2000BB607B681B6803F1180207F108031046BE
:102A30001946FEF7E5FD07F11807BD4680BD00BF4A
:102A400080B485B000AFF860B9607A607B685B796C
:102A50001A46FB689A6007F11407BD4680BC7047B0
:102A600080B485B000AFF860B9607A607B685B794C
:102A70001A46FB685A6007F11407BD4680BC7047D0
:102A800080B58EB002AFF860B9607A607B685B7920
:102A90001A46FB68DA604FF0000387F82F3017E022
:102AA000FB68DB684FEA0322FB68DA60FB68DA68E0
:102AB00097F82F3003F101037968CB185B79D218AE
:102AC000FB68DA6097F82F3003F1010387F82F30A5
:102AD00097F82F30022BE3D9FB68DA6813464FEAE8
:102AE000C3039B184FEA83031A4641F25973CDF290
:102AF000B713A3FB02134FEA5332FB68DA60FB689B
:102B00005A68FB689B68F968C86807F11001009073
:102B1000084640F29801C0F6010106F055FA07F1A7
:102B2000100340F2AC00C0F6010019464FF00D0250
:102B300002F0F4F907F13007BD4680BD80B483B0E0
:102B400000AF786013460A467A803B800CE0B7F904
:102B50000230022B07D17B684FF002021A844FF03B
:102B600001037B8000E000BFB7F90220B7F9003015
:102B70009A42ECD107F10C07BD4680BC704700BFFC
:102B800080B588B000AFF860B9607A603B60BB6820
:102B900003F1FF33032B2FD801A252F823F000BF1B
:102BA000B12B0008BD2B0008D12B0008E52B000835
:102BB000F868FFF7FDFE4FF0020320E03B68FB6181
:102BC000F8687968FA69FFF73BFF4FF0020316E0F7
:102BD0003B68BB61F8687968BA69FFF741FF4FF05D
:102BE00002030CE03B687B61F86879687A69FFF75B
:102BF00047FF4FF0020302E000BF4FF000031BB29B
:102C0000184607F12007BD4680BD00BF80B485B0DF
:102C100000AF78600B467B804FF00003FB73B7F981
:102C20000230022B07DD7B88A3F103039BB27B807C
:102C30004FF00103FB73B7F90230012B05D0022BD3
:102C400007D14FF002031BB208E07B681B8C7B802E
:102C500000E000BF4FF00003FB73ECE7184607F1FC
:102C60001407BD4680BC704780B584B000AF786063
:102C70004FF00103FB607868F9684FF000024FF0F5
:102C80000003FFF77DFF03467B81B7F90A307868C0
:102C90001946FFF7BBFF03467B81B7F90A30786816
:102CA0001946FFF769FE07F11007BD4680BD00BF5A
:102CB00080B588B000AFF860B9607A603B60BB68EF
:102CC0005B7A1A467B684FF0640101FB03F3D3186B
:102CD0007B614FF00003FB614FF000037B83B8681A
:102CE00079683A6804F05CFB0346002B24D1F8684D
:102CF000FFF750FE0346022B1DD17B69662B11D0D6
:102D0000672B08D0652B14D14FF00203FB614FF005
:102D100001037B830EE04FF00303FB614FF00103DF
:102D20007B8307E04FF00403FB614FF001037B83DB
:102D300000E000BF00E000BFFB69002B21D0F86875
:102D4000FFF728FE03461A46B7F91A30F86811460D
:102D50001A46FFF7F3FEF868F969BA683B68FFF7AF
:102D60000FFF03467B82B7F91230F8681946FFF768
:102D70004DFF03467B82B7F91230F8681946FFF71A
:102D8000FBFD07F12007BD4680BD00BF80B584B0C4
:102D900000AF78607B684FF001029A834FF0000328
:102DA000FB600DE07A68FB6803F10C034FEA430314
:102DB000D3184FF00002DA80FB6803F10103FB60D7
:102DC000FB68012BEEDD7868FFF74EFF07F1100777
:102DD000BD4680BD80B584B000AFF860B9607A6050
:102DE0007B68DB881AB27B6803F10803F868B9686E
:102DF000FFF75EFF07F11007BD4680BD80B483B0CA
:102E000000AF78600B467B807B687A889A8407F1F4
:102E10000C07BD4680BC704780B483B000AF7860BB
:102E20007B689B8C1BB2184607F10C07BD4680BC23
:102E3000704700BF80B582B000AF786039607B68B2
:102E40001B6803F120027B681B6A10461946FDF7D8
:102E5000B1FE07F10807BD4680BD00BF80B582B056
:102E600000AF786039607B681B6803F12003184667
:102E7000FDF744FF07F10807BD4680BD80B586B069
:102E800000AF786039607B681B6803F1180318464F
:102E900000F0F2FA034607EE103AF8EE477AC7ED73
:102EA000047A7B681B6803F11C03184600F0E4FAFF
:102EB000034607EE103AF8EE477AC7ED037A97ED2E
:102EC000047AD7ED037A37EE677ADFED2C7AC7EE16
:102ED000277AC7ED027A7B6893ED027AD7ED027A02
:102EE00077EE277A7B68C3ED027A7B6893ED047AEC
:102EF000D7ED027A27EE277A7B68D3ED056A7B68E7
:102F0000D3ED027A66EEA77A37EE277A7B68D3EDA7
:102F1000066A7B68D3ED037A97ED026A76EE677AEC
:102F200066EEA77A77EE277AC7ED057A7B68BA68EE
:102F3000DA607B6893ED077AD7ED057AB4EEE77A2D
:102F4000F1EE10FA02D57B68DB697B617B6803F1E7
:102F50000403D7ED057AFCEEE77A17EE902A1846BF
:102F6000114600F07BFA7B681B6803F10C031846DE
:102F700000F09EFA07F11807BD4680BD00007A44B4
:102F800080B483B000AF786013460A467A803B80F5
:102F900017E0B7F90230022B02D0032B08D00FE064
:102FA0007B684FF002021A854FF001037B8008E036
:102FB0007B684FF003021A854FF001037B8000E02D
:102FC00000BFB7F90220B7F900309A42E1D107F10A
:102FD0000C07BD4680BC704780B584B000AFF86078
:102FE000B9607A603B60BB6803F1FF33032B23D8E1
:102FF00001A252F823F000BF093000080F3000088A
:103000001D3000082B3000084FF0020317E0F8686D
:103010007968FFF70FFF4FF0030310E0F868796855
:10302000FFF71CFF4FF0020309E0F8687968FFF72B
:1030300025FF4FF0030302E000BF4FF000031BB277
:10304000184607F11007BD4680BD00BF80B485B0AB
:1030500000AF78600B467B804FF00003FB73B7F93D
:103060000230032B07DD7B88A3F104039BB27B8036
:103070004FF00103FB73B7F90230022B04D0032B8E
:1030800005D0012B06D009E04FF002030BE04FF012
:10309000030308E07B681B8D7B8000E000BF4FF0DE
:1030A0000003FB73E7E71BB2184607F11407BD46A0
:1030B00080BC704780B584B000AF78604FF00103EA
:1030C000FB607868F9684FF000024FF00003FFF7EB
:1030D00083FF03467B81B7F90A3078681946FFF70A
:1030E000B5FF03467B81B7F90A3078681946FFF7C8
:1030F00085FE07F11007BD4680BD00BF80B588B0D2
:1031000000AFF860B9607A603B60BB68002B09D003
:10311000BB685B7A1A467B684FF0640101FB03F3DE
:10312000D31801E04FF000037B614FF00003FB6117
:103130004FF000037B83B86879683A6804F030F98F
:103140000346002B31D1F868FFF766FE0346022BD9
:1031500002D0032B0FD027E07B69002B09D0652B11
:1031600006D14FF00203FB614FF001037B8301E0C6
:1031700000E000BF19E07B696A2B0BD0C92B02D09D
:10318000002B0FD00DE04FF00303FB614FF0010364
:103190007B8308E04FF00403FB614FF001037B8366
:1031A00001E000E000BF00E000BFFB69002B21D080
:1031B000F868FFF731FE03461A46B7F91A30F86887
:1031C00011461A46FFF7DCFEF868F969BA683B68F1
:1031D000FFF702FF03467B82B7F91230F868194601
:1031E000FFF734FF03467B82B7F91230F8681946BF
:1031F000FFF704FE07F12007BD4680BD80B584B00F
:1032000000AF78607B684FF001029A844FF00003B2
:10321000FB600DE07A68FB6803F110034FEA43039B
:10322000D3184FF00002DA80FB6803F10103FB6062
:10323000FB68012BEEDD7868FFF73CFF07F1100714
:10324000BD4680BD80B584B000AFF860B9607A60DB
:103250007B68DB881AB27B6803F10803F868B968F9
:10326000FFF74CFF07F11007BD4680BD80B582B067
:1032700000AF786078684FF000014FF000024FF027
:103280000003FFF73BFF07F10807BD4680BD00BF05
:1032900080B483B000AF786007F10C07BD4680BCF6
:1032A000704700BF80B485B000AFF860B9607A6045
:1032B00007F11407BD4680BC704700BF80B483B0DF
:1032C00000AF78607B681B881BB2184607F10C07BB
:1032D000BD4680BC704700BF80B582B000AF78604B
:1032E00078684FF001014FF000024FF0000304F046
:1032F00065F807F10807BD4680BD00BF80B584B002
:1033000000AF78604FF00003FB6012E07B685A6802
:10331000FB684FEA0313D31818464FF001014FF032
:1033200000024FF0000304F049F8FB6803F10103C9
:10333000FB607B681B881AB2FB689A42E6DC07F1E7
:103340001007BD4680BD00BF80B582B000AF786079
:1033500039603B68002B14DB7B681B881AB23B6822
:103360009A420EDD7B685A683B684FEA0313D31814
:1033700018464FF001014FF000024FF0000304F037
:103380001DF807F10807BD4680BD00BF80B582B0BB
:1033900000AF786078684FF002014FF000024FF004
:1033A000000304F00BF807F10807BD4680BD00BF1D
:1033B00080B584B000AF78604FF00003FB6012E08E
:1033C0007B685A68FB684FEA0313D31818464FF01E
:1033D00002014FF000024FF0000303F0EFFFFB6823
:1033E00003F10103FB607B681B881AB2FB689A42F9
:1033F000E6DC07F11007BD4680BD00BF80B582B096
:1034000000AF786039603B68002B14DB7B681B8859
:103410001AB23B689A420EDD7B685A683B684FEAF5
:103420000313D31818464FF002014FF000024FF07B
:10343000000303F0C3FF07F10807BD4680BD00BFCE
:1034400080B483B000AF78607B681B881BB21846DD
:1034500007F10C07BD4680BC704700BF80B483B045
:1034600000AF786039607B683A681A6007F10C0732
:10347000BD4680BC704700BF80B483B000AF7860A9
:103480007B681B681B68184607F10C07BD4680BCAB
:10349000704700BF80B483B000AF78607B681B8842
:1034A0001BB2184607F10C07BD4680BC704700BF31
:1034B00080B582B000AF786078684FF001014FF0BE
:1034C00000024FF0000303F079FF07F10807BD4643
:1034D00080BD00BF80B584B000AF78604FF00003BE
:1034E000FB6012E07B685A68FB684FEA0313D3184D
:1034F00018464FF001014FF000024FF0000303F0B7
:103500005DFFFB6803F10103FB607B681B881AB257
:10351000FB689A42E6DC07F11007BD4680BD00BF9C
:1035200080B582B000AF786039603B68002B14DB57
:103530007B681B881AB23B689A420EDD7B685A682A
:103540003B684FEA0313D31818464FF001014FF0C0
:1035500000024FF0000303F031FF07F10807BD46FA
:1035600080BD00BF80B483B000AF78607B681B88EB
:103570001BB2184607F10C07BD4680BC704700BF60
:1035800080B582B000AF786003F072FE07F10807E3
:10359000BD4680BD80B582B000AF4FF001004FF056
:1035A000010143F28152C0F600024FF0000302F025
:1035B00051F87860786802F01DF907F10807BD46F8
:1035C00080BD00BF80B400AFBD4680BC704700BF67
:1035D00080B483B000AF78607B684FEA1343DBB2FE
:1035E000184607F10C07BD4680BC704780B483B015
:1035F00000AF78607B684FEA03434FEA134303F15F
:103600000103184607F10C07BD4680BC704700BF98
:1036100080B483B000AF78607B684FEA13631846CC
:1036200007F10C07BD4680BC704700BF80B584B071
:1036300000AF78607868FFF7D9FF0346FB72F97A2C
:1036400041F29C52C2F200020B464FEA83035B1820
:103650004FEA8303D3184FF000025A70F97A41F20F
:103660009C52C2F200020B464FEA83035B184FEAFA
:103670008303D31803F104034FF000021A60F97AB0
:1036800041F29C52C2F200020B464FEA83035B18E0
:103690004FEA8303D3184FF000021A724FF0000371
:1036A000FB6014E0F97A41F29C52C2F200020B4630
:1036B0004FEA83035B184FEA8303F9685B18D3185A
:1036C0004FF000025A72FB6803F10103FB60FB68D4
:1036D000072BE7D907F11007BD4680BD80B400AFC6
:1036E000BD4680BC704700BF80B58CB000AF78602D
:1036F00039607868FFF76CFFB8627868FFF776FF8B
:10370000034687F827303B681B79BB744FF00003F2
:103710003B743B681B68BB604FF00103FB764FF0C6
:1037200001033B774FF00003FB620CE03A68FB6A51
:10373000D3185A7907F11001FB6ACB18DA70FB6ACB
:1037400003F10103FB623B681B791A46FB6A9A424C
:10375000ECD897F8273040F2E000C0F60100194697
:103760004FF0020203F0CCFB07F1080297F8273074
:1037700040F2E000C0F6010011461A4603F0A2F83C
:1037800038623B6A002B00D0FEE797F8273040F202
:10379000E000C0F60100194603F0ECF838623B6A1D
:1037A000002B00D0FEE700BF97F8273040F2E00082
:1037B000C0F6010019464FF0020203F025FB034654
:1037C000002BF1D007F13007BD4680BD90B58BB01E
:1037D00000AF786039607868FFF7FAFE7862786841
:1037E000FFF704FF034687F8233097F8231041F2D0
:1037F0009C52C2F200020B464FEA83035B184FEA69
:103800008303D3184FF000025A7097F8231041F247
:103810009C52C2F200020B464FEA83035B184FEA48
:103820008303D2183B6802F104040FCB84E80F0035
:103830004FF000033B7440F2FF73FB603B681B6872
:10384000BB604FF00103FB764FF000033B774FF076
:103850000803BB7407F12C07BD4690BD90B484B03B
:1038600000AF03463960FB714FF00003FB6037E0A7
:1038700041F29C52C2F20002F9680B464FEA830300
:103880005B184FEA8303D31803F104031A683B68FB
:103890001B689A4220D141F29C52C2F20002F968A0
:1038A0000B464FEA83035B184FEA8303D2183B6849
:1038B00002F104040FCB84E80F0041F29C52C2F2E3
:1038C0000002F9680B464FEA83035B184FEA830353
:1038D000D3184FF001025A70FB6803F10103FB603B
:1038E000FB680E2BC4D907F11007BD4690BC70478A
:1038F00090B482B000AF03463960FB71F97941F2B0
:103900009C52C2F200020B464FEA83035B184FEA57
:103910008303D3185B78012B24D1F979386841F2FD
:103920009C52C2F200020B464FEA83035B184FEA37
:103930008303D318044603F104030FCB84E80F007C
:10394000F97941F29C52C2F200020B464FEA83031E
:103950005B184FEA8303D3184FF000025A704FF000
:10396000010301E04FF00003184607F10807BD46C8
:1039700090BC704780B58CB000AF786039607868D3
:10398000FFF726FEB8627868FFF730FE034687F837
:10399000273097F8273040F2E000C0F601001946C2
:1039A0004FF0010203F030FA0346002B5CD007F120
:1039B000080297F8273040F2E000C0F601001146F7
:1039C0001A4603F06FF838623B6A002B00D0FEE71E
:1039D00097F8273040F2E000C0F6010019464FF09A
:1039E000010203F08DFA38623B6A002B00D0FEE73B
:1039F000BA683B681A60BA7C3B681A714FF00003E2
:103A000087F82F3011E097F82F3097F82F2007F123
:103A100030018A1812F81D2C3968CB185A7197F8A2
:103A20002F3003F1010387F82F303B681B7997F89B
:103A30002F209A42E7D397F8273018463968FFF7C6
:103A40000DFF97F8271041F29C52C2F200020B467C
:103A50004FEA83035B184FEA8303D3184FF0000249
:103A60005A704FF0010306E097F82730184639687E
:103A7000FFF73EFF0346184607F13007BD4680BDFD
:103A8000FEE7FEE7FEE7FEE7FEE7FEE7FEE7FEE70E
:103A9000FEE7FEE7FEE7FEE7FEE7FEE7FEE7FEE7FE
:103AA000FEE7FEE7FEE7FEE7FEE7FEE7FEE7FEE7EE
:103AB000FEE7FEE7FEE7FEE7FEE7FEE7FEE7FEE7DE
:103AC000FEE7FEE7FEE7FEE7FEE7FEE7FEE7FEE7CE
:103AD000FEE7FEE7FEE7FEE7FEE7FEE7FEE7FEE7BE
:103AE000FEE7FEE7FEE7FEE7FEE7FEE7FEE7FEE7AE
:103AF000FEE7FEE7FEE7FEE7FEE7FEE7FEE7FEE79E
:103B0000FEE7FEE7FEE7FEE7FEE7FEE7FEE7FEE78D
:103B1000FEE7FEE7FEE7FEE7FEE7FEE7FEE7FEE77D
:103B2000FEE7FEE7FEE7FEE7FEE7FEE7FEE7FEE76D
:103B3000FEE7FEE7FEE7FEE7FEE7FEE7FEE7FEE75D
:103B4000FEE7FEE7FEE7FEE7FEE7FEE7FEE7FEE74D
:103B5000FEE7FEE7FEE7FEE7FEE7FEE74FF00100C7
:103B60007047000080B582B000AF4FF46D43CEF2D5
:103B700000034FF46D42CEF20002D2F8882042F4E6
:103B80007002C3F888204FF46D43CEF200034FF467
:103B90006D42CEF20002526922F008025A614FF4DF
:103BA0000043C5F200034FF40042C5F20002526820
:103BB00022F001025A604FF48053C5F6000303F56A
:103BC000805303F114031B687B607B6823F00F03B1
:103BD0007B607B6843F003037B604FF48053C5F642
:103BE00000037A6803F5805303F114031A6000F0B0
:103BF000ABF800F005F807F10807BD4680BD00BF2F
:103C000080B485B000AF4FF48C43C5F20003DB688D
:103C1000B3F5803F40F0898044F21073C5F2000391
:103C20001B6803F00403002B00F0888044F210733B
:103C3000C5F200039B6803F070634FEA136303F15E
:103C40000103FB6044F21073C5F200039B6803F4A8
:103C5000FE434FEA132303F10103BB6044F21073E8
:103C6000C5F200039B6803F4FE034FEA134303F11C
:103C700001037B6044F21073C5F20003DB6803F0BC
:103C80000103002B28D04FF45853C0F26E13FA688A
:103C9000B3FBF2F3BA6802FB03F33B603A687B685C
:103CA000B2FBF3F240F20863C2F200031A6040F282
:103CB0000863C2F200031A684FF48C43C5F2000394
:103CC000DB68DBB203F10103B2FBF3F240F20863FD
:103CD000C2F200031A6031E04FF4D853C0F2B703C8
:103CE000FA68B3FBF2F3BA6802FB03F33B603A688D
:103CF0007B68B2FBF3F240F20863C2F200031A6081
:103D000040F20863C2F200031A684FF48C43C5F214
:103D10000003DB68DBB203F10103B2FBF3F240F214
:103D20000863C2F200031A6008E040F20863C2F2BE
:103D300000034FF45852C0F26E121A6007F11407D4
:103D4000BD4680BC704700BF80B582B000AF02F0B6
:103D5000B3FA0346002B00F0558244F21073C5F20B
:103D600000035A684FF00203C0F201031340002B16
:103D70000DD044F21073C5F2000344F21072C5F284
:103D80000002526822F4803222F002025A604FF49C
:103D90008E43C5F200035B6803F03003002B72D042
:103DA0004FF48E43C5F200034FF48E42C5F2000279
:103DB000526822F0F0025A604FF48E43C5F20003BD
:103DC0004FF48E42C5F20002526842F400325A604B
:103DD00044F21073C5F2000344F21072C5F20002FF
:103DE000D26822F00102DA6044F21073C5F20003D7
:103DF00044F21072C5F20002526822F400325A6096
:103E00004EF21003CEF2000344F6A332C0F24C028D
:103E10005A604EF21003CEF200034FF000029A6097
:103E20004EF21003CEF200034FF005021A6044F286
:103E30001073C5F200031B6803F46073B3F5607F71
:103E400008D04EF21003CEF200039A6840F2F3134A
:103E50009A42ECD84EF21003CEF200034EF210025A
:103E6000CEF20002126822F001021A6044F21073CE
:103E7000C5F200031B6803F46073B3F5607F02D0E2
:103E80004FF00003C0E144F21073C5F200031B6859
:103E900003F00403002B40F0B5814FF48C43C5F2CE
:103EA0000003DB6803F48033002B0BD04FF48C430A
:103EB000C5F200034FF48C42C5F20002D26822F42E
:103EC0008032DA604FF46053C1F69C437B607A68BD
:103ED00049F68173C1F25E63A3FB02134FEA5353A9
:103EE00003F1FF333B6044F21073C5F2000344F268
:103EF0001072C5F20002526842F001025A6044F2A8
:103F00001073C5F2000344F21072C5F20002526849
:103F100042F010025A6044F21072C5F200023B688F
:103F20004FEA034144F60173C0F200130B43936060
:103F300044F21073C5F2000344F21072C5F200029D
:103F4000526842F040025A6044F21073C5F2000316
:103F500044F21072C5F20002526822F010025A6058
:103F600044F21073C5F2000344F21072C5F200026D
:103F7000526842F480225A604EF21003CEF20003DF
:103F800044F6A332C0F24C025A604EF21003CEF255
:103F900000034FF000029A604EF21003CEF20003CD
:103FA0004FF005021A6000BF44F21073C5F200031F
:103FB0001B6803F00403002B08D14EF21003CEF26D
:103FC00000039A6840F2F3139A42EDD84EF21003C0
:103FD000CEF200034EF21002CEF20002126822F07E
:103FE00001021A6044F21073C5F200031B6803F06B
:103FF0000403002B4ED044F21073C5F2000344F2C8
:104000001072C5F20002526822F001025A604FF4A9
:104010008C43C5F200034FF000021A614FF48C4349
:10402000C5F200034FF000025A614FF48C43C5F211
:1040300000034FF000021A624FF48C43C5F20003F4
:104040004FF48C42C5F20002D26842F48032DA604A
:1040500044F21073C5F2000344F21072C5F200027C
:10406000526822F040025A604EF21003CEF2000372
:1040700040F245525A604EF21003CEF200034FF068
:1040800000029A604EF21003CEF200034FF00502D8
:104090001A6002E04FF00003B6E04EF21003CEF2D9
:1040A00000039B68632BF8D84EF21003CEF2000396
:1040B0004EF21002CEF20002126822F001021A60E3
:1040C0004FF46053C1F69C437B607B684FEA132238
:1040D00045F2C743C0F21E13A3FB02134FEA93231A
:1040E00003F1FF333B6044F21072C5F200023B68FB
:1040F0004FEA034144F60173C0F200130B4393608F
:104100004EF21003CEF2000340F61B425A604EF20C
:104110001003CEF200034FF000029A604EF210033B
:10412000CEF200034FF005021A6000BF4EF21003FA
:10413000CEF200039B68632BF8D84EF21003CEF248
:1041400000034EF21002CEF20002126822F00102C9
:104150001A604FF46053C1F69C437B607B684FEA62
:10416000D3124EF22F33C0F2BE03A3FB02134FEA69
:10417000D32303F1FF333B6044F21072C5F2000217
:104180003B684FEA034144F60173C0F200130B434E
:1041900093604EF21003CEF2000341F223325A60D4
:1041A0004EF21003CEF200034FF000029A604EF27E
:1041B0001003CEF200034FF005021A6000BF4EF26A
:1041C0001003CEF200039B68632BF8D84EF2100365
:1041D000CEF200034EF21002CEF20002126822F07C
:1041E00001021A6044F21073C5F2000344F6017232
:1041F000C0F203129A6044F26013C5F200034FF05C
:104200000502DA604FF00103184607F10807BD46C2
:1042100080BD00BF80B485B000AFF860B9607A603F
:104220004FF0FF33184607F11407BD4680BC7047B6
:1042300080B485B000AFF860B9607A604FF0FF33AA
:10424000184607F11407BD4680BC704780B485B09E
:1042500000AFF860B9607A604FF00003184607F1CC
:104260001407BD4680BC704780B485B000AFF860CD
:10427000B9607A604FF0FF33184607F11407BD4666
:1042800080BC704780B400AF4FF0FF331846BD4686
:1042900080BC704780B483B000AF786039603B6801
:1042A000002B02D04FF0FF3301E06FF001031846FE
:1042B00007F10C07BD4680BC704700BF80B483B0D7
:1042C00000AF786039607A683B689A4202D14FF05B
:1042D000FF3301E06FF00103184607F10C07BD46FC
:1042E00080BC704780B483B000AF78604FF0FF337C
:1042F000184607F10C07BD4680BC704780B487B0F4
:1043000000AF78604EF22853C0F200037B6141F2A7
:104310003053C2F200031B68002B14D141F230531A
:10432000C2F2000341F6D822C2F200021A6041F242
:104330003053C2F200031A687B69D21841F2345339
:10434000C2F200031A6041F23053C2F200031B684C
:104350003B6141F23053C2F200031B681A467B688E
:10436000D31803F1070323F00703FB6041F2345332
:10437000C2F200031B68FA689A4202D34FF00003AE
:1043800006E041F23053C2F20003FA681A603B695A
:10439000184607F11C07BD4680BC704780B483B047
:1043A00000AF78604FF0FF33184607F10C07BD46A9
:1043B00080BC704780B483B000AF78604FF0FF33AB
:1043C000184607F10C07BD4680BC704780B483B027
:1043D00000AF786039604FF0FF33184607F10C07E3
:1043E000BD4680BC704700BF80B400AF4FF0FF33C4
:1043F0001846BD4680BC704780B400AF4FF0FF3315
:104400001846BD4680BC704780B483B000AF78606A
:10441000FEE700BF80B400AFBD4680BC704700BF60
:1044200080B483B000AF78604FF0FF33184607F1D7
:104430000C07BD4680BC704780B485B000AF786083
:104440007B681B68FB60FB681B6C23F00202FB6847
:104450001A64FB68DB6843F00302FB68DA60FB6800
:104460001B6943F40042FB681A61FB681A697B68A8
:104470001B8D4FEA83534FEA93531A43FB681A612B
:10448000FB685A697B6893F830304FEA032303F4E2
:1044900040717B689B8D4FEA832303F4F8431943F3
:1044A0007B685B8D4FEA03404FF00003C0F2FF339F
:1044B00003400B431A43FB685A61FB685B6B43F490
:1044C0008172FB685A63FB685A6B7B689B8B4FEA6F
:1044D000034303F47C117B689B8B4FEA036303F077
:1044E00070630B431A43FB685A63FB689B6B43F48E
:1044F000A062FB689A63FB68DA6B7B685B7D4FEABE
:10450000430303F002017B68DB8D4FEA032303F4CE
:10451000F8530B43134343F00102FB68DA637B68F3
:1045200093F82430002B05D0FB68DB6B43F02002AE
:10453000FB68DA637B6893F82530002B05D0FB68B5
:10454000DB6B43F04002FB68DA637B6893F826304C
:10455000002B05D0FB68DB6B43F08002FB68DA635D
:104560007B689B7F002B0ED0FB68D3F808217B680B
:1045700093F820304FEA032303F47C531A43FB687B
:10458000C3F8082105E0FB689B6C43F40052FB680C
:104590009A647B68DB7F002B0FD0FB68D3F80C217B
:1045A0007B6893F821304FEA032303F47C531343D1
:1045B00043F08052FB68C3F80C21FB681A6C7B68DF
:1045C0009B7D4FEA032303F44073134343F002023D
:1045D000FB681A6407F11407BD4680BC704700BF32
:1045E00080B485B000AF78607B685B687A68526899
:1045F00051687A68127A4FF0010000FA02F20A4319
:104600005A607B681B7AFB60FB68032B10D87B68C1
:104610005B687A6852681169FA684FEAC20202F16F
:1046200003024FF0180000FA02F20A431A614FE049
:10463000FB68032B17D9FB68072B14D8FB68A3F181
:104640000403FB607B685B687A6852685169FA68AA
:104650004FEAC20202F103024FF0180000FA02F220
:104660000A435A6134E0FB68072B17D9FB680B2B10
:1046700014D8FB68A3F10803FB607B685B687A6869
:1046800052689169FA684FEAC20202F103024FF0E0
:10469000180000FA02F20A439A6119E0FB680B2B3A
:1046A00016D9FB680F2B13D8FB68A3F10C03FB6032
:1046B0007B685B687A685268D169FA684FEAC2021F
:1046C00002F103024FF0180000FA02F20A43DA6125
:1046D00007F11407BD4680BC704700BF80B485B0A9
:1046E00000AF7860D7ED017AF5EEC07AF1EE10FAFE
:1046F00006D5D7ED017AF1EE677AC7ED037A01E0CE
:104700007B68FB60FB68184607F11407BD4680BC58
:10471000704700BF80B52DED028BAEB000AFF860E2
:10472000B9607A604FF00003C7F8B4304FF000036F
:10473000C7F8B030FB68C7F8AC304FF00003C7F8DB
:10474000A8304FF00003C7F888304FF00003FB6734
:1047500042F6C653C7F8A830D7ED2B7AB8EE677A81
:10476000D7ED2A7AF8EE677AC7EE277AC7ED1E7A78
:1047700097ED1E7AF7EE007AB4EEE77AF1EE10FAD2
:1047800012DD4FF48063C7F8A4304FF0010387F8BF
:104790008330D7F8AC30FB67D7F8A830C7F8AC3017
:1047A000FB6FC7F8A83007E04FF0000387F88330AD
:1047B0004FF48063C7F8A4304FF00003C7F884308B
:1047C0004FF00003C7F890304FF00003C7F88C306B
:1047D000D7F8AC303B66D7F8A8303B644FF0010304
:1047E0003B634FF000033B62D7F8843003F10103D1
:1047F000C7F88430D7F88C307B67D7F89030C7F88B
:104800008C30D7F8843003F00303C7F89030D7F822
:104810008C304FEA830307F1B801CB1853F8582CBA
:10482000D7F890304FEA830307F1B801CB1843F86B
:10483000682CD7F88C304FEA830307F1B802D318FD
:1048400053F8782CD7F890304FEA830307F1B8017A
:10485000CB1843F8582CD7F890304FEA830307F170
:10486000B802D31853F8682CD7F890304FEA830376
:1048700007F1B801CB1853F8583CB2FBF3F2D7F864
:1048800090304FEA830307F1B801CB1843F8A82C06
:10489000D7F890304FEA830307F1B802D31853F8E2
:1048A000682CD7F890304FEA830307F1B801CB1892
:1048B00053F8583CB2FBF3F103FB01F3D21AD7F8DB
:1048C00090304FEA830307F1B801CB1843F8782CF6
:1048D000D7F88430012B05D17B697B634FF001034E
:1048E0007B624BE0D7F890304FEA830307F1B802C0
:1048F000D31853F8A82CD7F88C304FEA830307F16C
:10490000B801CB1853F8883C03FB02F27B6F4FEAE7
:10491000830307F1B801CB1853F8883CD218D7F8B5
:1049200090304FEA830307F1B801CB1843F8882C85
:10493000D7F890304FEA830307F1B802D31853F841
:10494000A82CD7F88C304FEA830307F1B801CB18B5
:1049500053F8983C03FB02F27B6F4FEA830307F1A5
:10496000B801CB1853F8983CD218D7F890304FEADA
:10497000830307F1B801CB1843F8982CD7F890308F
:104980004FEA830307F1B802D31853F8982CD7F8ED
:10499000A4309A4240F2DF80D7F88C304FEA83038C
:1049A00007F1B801CB1853F8883CC7F8A030D7F806
:1049B0008C304FEA830307F1B802D31853F8983CC0
:1049C000C7F898307B6F4FEA830307F1B801CB1823
:1049D00053F8983CD7F8A420D21AD7F88C304FEA75
:1049E000830307F1B801CB1853F8983CB2FBF3F3FB
:1049F0003B67D7F8903003F1FF334FEA830307F1A9
:104A0000B802D31853F8883C3A6F02FB03F2D7F888
:104A10009030A3F102034FEA830307F1B801CB18EA
:104A200053F8883CD318C7F89C30D7F8903003F17E
:104A3000FF334FEA830307F1B802D31853F8983CC9
:104A40003A6F02FB03F27B6F4FEA830307F1B80171
:104A5000CB1853F8983CD318C7F8943097F88330A4
:104A6000002B13D0D7F8A030FB67D7F89830C7F8E1
:104A7000A030FB6FC7F89830D7F89C30FB67D7F8A9
:104A80009430C7F89C30FB6FC7F89430D7F8983053
:104A9000002B03D0D7F8A030002B08D1D7F89C30DA
:104AA000C7F8B430D7F89430C7F8B0304EE0D7F834
:104AB0009430002B03D0D7F89C30002B08D1D7F8C6
:104AC000A030C7F8B430D7F89830C7F8B0303DE020
:104AD000D7ED287AB8EE677AD7ED267AF8EE677ABE
:104AE000C7EE277A97ED1E7A77EE677A17EE900A6F
:104AF000FFF7F4FD08EE100AD7ED277AB8EE677AD3
:104B0000D7ED257AF8EE677AC7EE277A97ED1E7A09
:104B100077EE677A17EE900AFFF7E0FD07EE900A4E
:104B2000B4EEE78AF1EE10FA08DDD7F89C30C7F84A
:104B3000B430D7F89430C7F8B03007E0D7F8A030D9
:104B4000C7F8B430D7F89830C7F8B0304FF0050345
:104B5000C7F8883032E0D7F890304FEA830307F186
:104B6000B802D31853F8783C002B27D1D7F89030EF
:104B70004FEA830307F1B801CB1853F8883CC7F814
:104B8000B430D7F890304FEA830307F1B802D31856
:104B900053F8983CC7F8B03097F88330002B09D011
:104BA000D7F8B430FB67D7F8B030C7F8B430FB6F34
:104BB000C7F8B0304FF00503C7F88830D7F8883011
:104BC000052B7FF411AED7F8B42040F2FF339A42A0
:104BD00003D940F2FF33C7F8B4307B68D7F8B4206C
:104BE0001A60D7F8B03003F1FF32BB681A6007F1E2
:104BF000B807BD46BDEC028B80BD00BF80B582B05A
:104C000000AF4FF4006000F02FFF4FF000037B6017
:104C100021E040F20C63C2F200037A6853F82230BC
:104C20001B7D012B09D140F20C63C2F200037A68AC
:104C300053F822301846FFF7D3FC40F20C63C2F25F
:104C400000037A6853F822301846FFF7F5FB7B68BB
:104C500003F101037B607B68002BDAD007F10807C2
:104C6000BD4680BD80B483B000AF786007F10C070B
:104C7000BD4680BC704700BF80B58AB000AFF86009
:104C8000B960FA71BB714FF000037B614FF0000314
:104C90003B61FB681B683B624FF005037B623B6A2C
:104CA0009B6C03F00103FB613B6A9B6C03F0020306
:104CB0004FEA5303BB61FA69BB691340012B5BD117
:104CC0003B6A1B6C23F002023B6A1A6407F1140270
:104CD00007F11003B86811461A46FFF71BFD3B6A3F
:104CE0001B6923F47F7323F003033A6A13613B6A61
:104CF0001A693B694FEA83534FEA93531A433B6A5D
:104D00001A613B6A5B6923F07F7323F440333A6A8C
:104D100053613B6A5A697B694FEA03414FF00003D4
:104D2000C0F2FF330B401A433B6A5A613B6ADB6BAC
:104D300023F002023B6ADA633B6ADA6BBB794FEA23
:104D4000430303F002031A433B6ADA633B6A1B6CBA
:104D500023F440723B6A1A643B6A1A6CFB794FEA8F
:104D6000032303F44073134343F002023B6A1A64C3
:104D70004FF000037B6202E04FF003037B627B6A2B
:104D8000184607F12807BD4680BD00BF80B487B034
:104D900000AFF860B9607A604FF000037B61FB6898
:104DA0001B683B61FB68DB7F002B1FD011E03B6978
:104DB000D3F81C319AB2BB681A807B6803F1FF33C9
:104DC0007B607B6903F101037B61BB6803F1020334
:104DD000BB603B69D3F8143103F008034FEAD303F7
:104DE000002B0CD17B68002BE1D108E03B695B6DA7
:104DF0009AB2BB681A807B6903F101037B617B690E
:104E0000184607F11C07BD4680BC704780B487B0C8
:104E100000AFF860B9607A604FF000037B61FB6817
:104E20001B683B61FB68DB7F002B1FD011E03B69F7
:104E3000D3F81C31DAB2BB681A707B6803F1FF3318
:104E40007B607B6903F101037B61BB6803F10103B4
:104E5000BB603B69D3F8143103F008034FEAD30376
:104E6000002B0CD17B68002BE1D108E03B695B6D26
:104E7000DAB2BB681A707B6903F101037B617B695D
:104E8000184607F11C07BD4680BC704780B487B048
:104E900000AFF860B9607A604FF000037B61FB6897
:104EA0001B683B61FB689B7F002B1FD011E0BB6838
:104EB0001B881A463B69C3F880217B6803F1FF33E6
:104EC0007B607B6903F101037B61BB6803F1020333
:104ED000BB603B69D3F8143103F480534FEA1333BA
:104EE000002B13D17B68002BE1D10FE03B699B6B5A
:104EF00003F08003002B09D1BB681B881A463B696D
:104F0000C3F880207B6903F101037B617B6918464C
:104F100007F11C07BD4680BC704700BF80B487B056
:104F200000AFF860B9607A604FF000037B61FB6806
:104F30001B683B61FB689B7F002B1FD011E0BB68A7
:104F40001B781A463B69C3F880217B6803F1FF3365
:104F50007B607B6903F101037B61BB6803F10103A3
:104F6000BB603B69D3F8143103F480534FEA133329
:104F7000002B13D17B68002BE1D10FE03B699B6BC9
:104F800003F08003002B09D1BB681B781A463B69EC
:104F9000C3F880207B6903F101037B617B691846BC
:104FA00007F11C07BD4680BC704700BF80B487B0C6
:104FB00000AF78600B46FB704FF001037B614FF050
:104FC00000033B617B681B68FB60FB780F2B0BD8F1
:104FD000FB689B6C3B61FB784FF0010202FA03F324
:104FE0003A6913403B611FE0FB78122B0ED8FB6837
:104FF000D3F814313B61FB78A3F110034FF00102A9
:1050000002FA03F33A6913403B610DE0FB68D3F801
:1050100014313B61FB78A3F10B034FF0010202FA5C
:1050200003F33A6913403B613B69002B02D04FF018
:1050300002037B617B69184607F11C07BD4680BCF3
:10504000704700BF80B485B000AF78600B46FB703E
:105050007B681B68FB60FB780F2B0AD8FB68DA6C57
:10506000FB784FF0010101FA03F31A43FB68DA649D
:105070001FE0FB78122B0ED8FB68D3F81821FB78C1
:10508000A3F110034FF0010101FA03F31A43FB6887
:10509000C3F818210DE0FB68D3F81821FB78A3F1C1
:1050A0000B034FF0010101FA03F31A43FB68C3F845
:1050B000182107F11407BD4680BC704780B400AFCB
:1050C0004FF46D43CEF20003DB6803F4E0634FEA74
:1050D00013231846BD4680BC704700BF80B483B020
:1050E00000AF03463960FB7197F90730002B10DAE7
:1050F0004FF46D43CEF20003FA7902F00F02A2F1F1
:1051000004013A68D2B24FEA8202D2B25B181A7630
:105110000DE04FF46143CEF2000397F907103A68AF
:10512000D2B24FEA8202D2B25B1883F8002307F1B1
:105130000C07BD4680BC704780B489B000AFF860F2
:10514000B9607A60FB6803F00703FB61FB69C3F198
:105150000703062B28BF0623BB61FB6903F1060387
:10516000062B03D9FB6903F1FF3301E04FF0000385
:105170007B61BB694FF0010202FA03F303F1FF33D5
:105180001A46BB681A407B6902FA03F27B694FF04A
:10519000010101FA03F303F1FF3319467B680B4069
:1051A0001343184607F12407BD4680BC704700BF73
:1051B00080B582B000AF78607B6803F1FF326FF09A
:1051C0007F439A4202D94FF001031DE04EF21003D3
:1051D000CEF200037A6802F1FF325A604FF0FF30DE
:1051E0004FF03F01FFF77AFF4EF21003CEF20003BB
:1051F0004FF000029A604EF21003CEF200034FF01F
:1052000007021A604FF00003184607F10807BD4671
:1052100080BD00BF80B487B000AF786041F2C86342
:10522000C2F200037A684FEA42129B1803F10803A6
:105230001B68FB6041F23853C2F200031B68002B6D
:105240000DD17B684FEA431241F2C863C2F20003FA
:10525000D21841F23853C2F200031A60DEE041F284
:105260003853C2F200031B687B61FB683B61D1E0ED
:105270007B699B683A69D31A3B613B69002B80F2DA
:105280009C807B69DB69002B2ED07B69DA697B68A7
:105290004FEA431141F2C863C2F20003CB18936195
:1052A0007B69DA6941F2C863C2F2000379684FEAA8
:1052B00041115B1803F11C031A6041F2C863C2F28A
:1052C00000037A684FEA42129B1803F118037A69C7
:1052D0001A607B684FEA431241F2C863C2F20003CE
:1052E000D2187B69DA612AE041F23853C2F2000336
:1052F0001A6841F2C863C2F2000379684FEA4111AB
:105300005B1803F118031A6041F23853C2F200032C
:105310001A687B684FEA431141F2C863C2F2000386
:10532000CB18D3617B684FEA431241F2C863C2F2E3
:105330000003D21841F23853C2F200031A6041F25E
:10534000C863C2F200037A684FEA42129B1803F165
:1053500018031B689A683B69D21841F2C863C2F20D
:10536000000379684FEA41115B1803F108031A60E2
:1053700041F2C863C2F200037A684FEA42129B18F6
:1053800003F118031A6841F2C863C2F20003796896
:105390004FEA41115B1803F118031B68996841F249
:1053A000C863C2F2000378684FEA40101B1803F18B
:1053B00008031B68CB1A936030E03B69002B26DBA7
:1053C0007B699B69002B22D141F2C863C2F20003C2
:1053D0007A684FEA42129B1803F11C037A691A603B
:1053E0007B684FEA431241F2C863C2F20003D2184D
:1053F0007B699A613A6941F2C863C2F20003796835
:105400004FEA41115B1803F108031A6006E07B695B
:105410009B697B617B69002B7FF42AAF07F11C0736
:10542000BD4680BC704700BF80B485B000AF7860D7
:105430007B684FEA431241F2C863C2F20003D318FB
:10544000FB60FB68DB69002B0BD1FB689B69002BC1
:1054500007D141F23853C2F200034FF000021A6044
:1054600049E0FB68DB69002B1CD1FB689A6941F2BB
:105470003853C2F200031A6041F23853C2F20003FB
:105480001B684FF00002DA61FB689B69FA68926959
:105490009168FA6892688A189A60FB684FF0000277
:1054A0009A6128E0FB689B69002B09D1FB68DB69E6
:1054B0004FF000029A61FB684FF00002DA611AE0D7
:1054C000FB68DB69FA6892699A61FB689B69FA6814
:1054D000D269DA61FB689B69FA6892699168FA6837
:1054E00092688A189A60FB684FF000029A61FB6824
:1054F0004FF00002DA6107F11407BD4680BC704727
:1055000080B582B000AF41F23853C2F200031B688D
:105510007B6031E07B681B79002B0FD17B681B68B7
:105520001846FFF781FF7B684FF001025A717B68D4
:105530001B697A6852691046984717E07B681B79A7
:10554000012B21D17B681B681846FFF76DFF7B6834
:10555000DA687B689A607B681B681846FFF75AFE1A
:105560007B681B697A6852691046984741F2385344
:10557000C2F200031B687B607B68002B05D07B6850
:105580009B68002BC6D000E000BF07F10807BD46AE
:1055900080BD00BF80B582B000AF41F23853C2F287
:1055A00000031B687B6041F24053C2F200031B689A
:1055B00003F1010241F24053C2F200031A607B681A
:1055C000002B10D07B689B68012B06D97B689B68F9
:1055D00003F1FF327B689A6005E07B684FF00002C0
:1055E0009A60FFF78DFF07F10807BD4680BD00BF39
:1055F00080B582B000AF4FF000037B6041F23853BA
:10560000C2F200034FF000021A6000F03DFE4DF2BE
:10561000C040C0F20100FFF7CBFD7860FFF74EFD00
:10562000034618464FF00A014FF00002FFF784FDD1
:1056300003464FF0FF301946FFF750FD41F23C534F
:10564000C2F200034FF000021A6007F10807BD46DE
:1056500080BD00BF80B489B000AFF8607A603B6065
:105660000B46FB724FF00003FB614FF00003BB6180
:105670004FF000037B61FB7A002B05D0FB7A012BF6
:1056800002D04FF001037B61FB68002B02D14FF089
:1056900001037B61FB68002B02D14FF001037B61AA
:1056A0007B68002B02D14FF001037B617B69002BEB
:1056B00040F098804FF00003BB618FE041F23C5313
:1056C000C2F200031A68BB6922FA03F303F0010374
:1056D000002B7FD1BB694FF0010202FA03F241F2C5
:1056E0003C53C2F200031B681A4341F23C53C2F21E
:1056F00000031A6041F2C863C2F20003BA694FEABC
:1057000042129B18BA691A6041F2C863C2F20003E0
:10571000BA694FEA42129B18FA7A1A7141F2C863C9
:10572000C2F20003BA694FEA42129B184FF001021D
:105730005A71FB6803F1010241F2C863C2F200032F
:10574000B9694FEA41115B1803F108031A6041F28D
:10575000C863C2F20003BA694FEA42129B1803F110
:105760000C03FA681A6041F2C863C2F20003BA6916
:105770004FEA42129B1803F110037A681A6041F253
:10578000C863C2F20003BA694FEA42129B1803F1E0
:1057900014033A681A6041F2C863C2F20003BA699E
:1057A0004FEA42129B1803F11C034FF000021A60EB
:1057B00041F2C863C2F20003BA694FEA42129B1871
:1057C00003F118034FF000021A60BB6903F10103F3
:1057D000FB6107E0BB6903F10103BB61BB691F2BE0
:1057E0007FF66CAFFB69184607F12407BD4680BC05
:1057F000704700BF80B584B000AF78604FF0000301
:10580000FB607B68202B02D94FF00103FB6041F263
:105810003C53C2F200031A687B6803F1FF3322FA9B
:1058200003F303F00103002B02D14FF00103FB60EF
:105830007B6803F1FF3241F2C863C2F200034FEA12
:1058400042129B1803F108031B68002B02D14FF092
:105850000103FB60FB68002B1FD17B6803F1FF3263
:1058600041F2C863C2F200034FEA42129B185B790F
:10587000002B12D07B6803F1FF3241F2C863C2F201
:1058800000034FEA42129B184FF000025A717B68E6
:1058900003F1FF331846FFF7BDFCFB68184607F11C
:1058A0001007BD4680BD00BF80B584B000AF7860F2
:1058B0004FF00003FB607B68202B02D94FF00103FF
:1058C000FB6041F23C53C2F200031A687B6803F1AB
:1058D000FF3322FA03F303F00103002B02D14FF050
:1058E0000103FB60FB68002B1FD17B6803F1FF32D3
:1058F00041F2C863C2F200034FEA42129B185B797F
:10590000012B12D07B6803F1FF331846FFF78CFDA3
:105910007B6803F1FF3241F2C863C2F200034FEA31
:1059200042129B184FF001025A71FB68184607F1AA
:105930001007BD4680BD00BF80B584B000AF786061
:105940004FF00003FB607B68202B02D94FF001036E
:10595000FB6041F23C53C2F200031A687B6803F11A
:10596000FF3322FA03F303F00103002B02D14FF0BF
:105970000103FB60FB68002B26D17B6803F1FF323B
:1059800041F2C863C2F200034FEA42129B185B79EE
:10599000002B05D17B6803F1FF331846FFF744FD68
:1059A0007B6803F1FF334FF0010202FA03F36FEA61
:1059B000030241F23C53C2F200031B681A4041F259
:1059C0003C53C2F200031A60FB68184607F1100747
:1059D000BD4680BD80B400AF41F24053C2F2000327
:1059E0001B681846BD4680BC704700BF80B485B0B8
:1059F00000AF78607A684DF2C043C0F2010303FB48
:105A000002F3FB60FB68184607F11407BD4680BC33
:105A1000704700BF80B487B000AF78604FF00003DC
:105A20007B614FF000033B614FF48843C5F20003F4
:105A3000FB607B684FEA13737B61FB6803F1100323
:105A400019467A6913464FEA43039B184FEA8303CA
:105A5000CB183B617B6823F070423B691A6007F109
:105A60001C07BD4680BC704780B487B000AF78602B
:105A70004FF000037B614FF000033B614FF488431C
:105A8000C5F20003FB607B684FEA13737B61FB6820
:105A900003F1140319467A6913464FEA43039B182E
:105AA0004FEA8303CB183B617B6823F070423B696C
:105AB0001A6007F11C07BD4680BC704780B483B0F4
:105AC00000AF4FF48843C5F200037B604FF0000342
:105AD000FB707B681B68FB70FB78184607F10C07AE
