:020000040C00EE
:100000000008001001020008C12A0008C32A0008E5
:10001000C52A0008C72A0008C92A000800000000F5
:10002000000000000000000000000000CB2A0008D3
:10003000CD2A000800000000CF2A0008513900082E
:10004000D32A0008D52A0008D72A0008D92A000890
:10005000DB2A0008DD2A0008DF2A0008E12A000860
:10006000E32A00080000000000000000000000007B
:10007000E52A000800000000E72A0008E92A000835
:10008000EB2A0008ED2A0008EF2A0008F12A0008F0
:10009000F32A0008F52A0008F72A0008F92A0008C0
:1000A000FB2A0008FD2A0008FF2A0008012B00088F
:1000B000032B0008052B0008072B0008092B00085C
:1000C0000B2B00080D2B00080F2B0008112B00082C
:1000D000132B0008152B0008172B0008192B0008FC
:1000E0001B2B00081D2B00081F2B0008212B0008CC
:1000F000232B0008252B0008272B0008292B00089C
:100100002B2B00082D2B00082F2B0008312B00086B
:10011000332B0008352B0008372B0008392B00083B
:100120003B2B00083D2B00083F2B0008412B00080B
:10013000432B0008452B0008472B0008492B0008DB
:100140004B2B00084D2B00084F2B0008512B0008AB
:10015000532B0008552B0008572B0008592B00087B
:10016000000000000000000000000000000000008F
:100170005B2B00085D2B00085F2B0008612B00083B
:10018000632B0008652B0008672B0008692B00080B
:100190006B2B00086D2B00086F2B0008712B0008DB
:1001A000732B0008752B0008772B0008792B0008AB
:1001B0007B2B00087D2B00087F2B0008812B00087B
:1001C000832B0008852B0008872B0008892B00084B
:1001D0008B2B00088D2B00088F2B000800000000DF
:1001E000912B0008932B0008952B0008972B0008F3
:1001F000992B0008000000009B2B00080000000065
:10020000DFF80CD0034880470348804700F017B858
:1002100000080010A52B0008BD3F0008002A00F0D0
:100220000D804FEA920203680B60013A00F00680ED
:1002300000F1040001F10401FFF7F5BF7047144815
:100240001449154AFFF7EAFF14481549154AFFF704
:10025000E5FF15481549002900F00C804FEA91018F
:100260004FF000020260013900F0048000F1040048
:10027000FFF7F8BF0E480F4908600F488047DFF8C6
:100280003CD04FF000004FF00001DFF834F00000E8
:10029000A085000C00000020B40A00005490000C5F
:1002A0000008001000000000B40A0020D80B000075
:1002B0000000000808ED00E0C1660008000800101A
:1002C0005D27000800BF704780B483B000AF78603E
:1002D0000B467B807B687A889A8007F10C07BD46C5
:1002E00080BC704780B483B000AF78607B689B8827
:1002F0001BB2184607F10C07BD4680BC704700BF13
:1003000080B483B000AF786007F10C07BD4680BCB5
:10031000704700BF80B586B000AF786007F10C036E
:10032000184605F0E3F846E041F27423C2F20003F8
:100330001B6807F10C02786811461A4600F0A8FB0A
:100340000346002B3FD07B681B681A4641F274239A
:10035000C2F200031B681B691046194600F02CFC12
:1003600041F27423C2F200031B687B6141F27423E3
:10037000C2F200031B685A6941F27423C2F20003FF
:100380001A607B699B68002B08D17B69DB68002BB6
:1003900004D17868796900F0C1FA0CE07A697B6968
:1003A00003F10803786811461A4600F09BFB786851
:1003B000796900F019FB41F27423C2F200031B6853
:1003C000002BB1D100E000BF07F11807BD4680BD8A
:1003D00080B485B000AF786041F27423C2F20003AC
:1003E0004FF000021A6041F27823C2F2000341F29A
:1003F0009402C2F200021A6041F29403C2F20003B6
:100400004FF00002C3F8DC214FF00003FB6020E056
:10041000FB6803F1010213464FEA43039B184FEABE
:10042000C30341F29402C2F20002981841F294020E
:10043000C2F20002F9680B464FEA43035B184FEA29
:10044000C303D31803F114031860FB6803F101031D
:10045000FB60FB68122BDBDD07F11407BD4680BC97
:10046000704700BF80B588B000AFF860B9607A60AF
:10047000F86800F02BFAF861FB69002B3BD07A6832
:1004800044F6D353C1F26203A3FB02134FEA931362
:100490007B617A6844F6D353C1F26203A3FB021373
:1004A0004FEA93134FF47A7101FB03F3D31A44F22A
:1004B0004022C0F20F0202FB03F3BB61FB694FF065
:1004C00000029A60FB694FF00002DA60BB681B7B98
:1004D0001A46FB691A61FB69184605F007F8FA69C4
:1004E00007F11403F86811461A4600F0FBFAF868A1
:1004F000F96900F079FA07F12007BD4680BD00BF19
:1005000080B588B000AFF860B9607A60F86800F034
:10051000DDF9F861FB69002B3CD07A6844F6D353CF
:10052000C1F26203A3FB02134FEA93137B617A6863
:1005300044F6D353C1F26203A3FB02134FEA9313B1
:100540004FF47A7101FB03F3D31A44F24022C0F254
:100550000F0202FB03F3BB61FB6903F1080307F120
:10056000140292E8030083E80300BB681B7B1A4671
:10057000FB691A61FB69184604F0B8FFFA6907F1D4
:100580001403F86811461A4600F0ACFAF868F969E5
:1005900000F02AFA07F12007BD4680BD80B582B081
:1005A00000AF786039603B681B7B7868194600F0C3
:1005B000CDF907F10807BD4680BD00BF80B483B008
:1005C00000AF786013460A467A803B800CE0B7F9AA
:1005D0000230022B07D17B684FF002021A814FF0E4
:1005E00001037B8000E000BFB7F90220B7F90030BB
:1005F0009A42ECD107F10C07BD4680BC704700BFA2
:1006000080B586B000AFF860B9607A603B60BB68C7
:1006100003F1FF33032B2ED801A252F823F000BFC1
:10062000310600083D060008530600086906000868
:10063000F868FFF7CDFE4FF002031FE03B681B6830
:100640007B61F86879687A69FFF70CFF4FF0020365
:1006500014E03B681B683B61F86879683A69FFF70A
:100660004FFF4FF0020309E0F8687968FFF796FF43
:100670004FF0020302E000BF4FF000031BB2184628
:1006800007F11807BD4680BD80B584B000AF786023
:100690000B467B804FF00003FB73B7F90230022B4F
:1006A00007DD7B88A3F103039BB27B804FF001033E
:1006B000FB73B7F90230012B0BD0022B0DD1FB7B62
:1006C000002B02D17868FFF71BFE4FF002031BB22C
:1006D00008E07B681B897B8000E000BF4FF00003CF
:1006E000FB73E6E7184607F11007BD4680BD00BF63
:1006F00080B584B000AF78604FF00103FB6078688C
:10070000F9684FF000024FF00003FFF779FF03464E
:100710007B81B7F90A3078681946FFF7B5FF0346C1
:100720007B81B7F90A3078681946FFF7CDFD07F1EC
:100730001007BD4680BD00BF80B588B000AFF8602F
:10074000B9607A603B60BB68002B09D0BB685B7AFC
:100750001A467B684FF0640101FB03F3D31801E0F4
:100760004FF000037B614FF00003FB614FF000038B
:100770007B83B86879683A6804F064FF0346002B0D
:1007800032D1F868FFF7AEFD0346022B2BD17B690F
:10079000C92B18D0C92B02DC002B09D021E040F274
:1007A0002D12934208D040F29112934212D018E0D9
:1007B000F868FFF7AFFD15E04FF00203FB614FF063
:1007C00001037B830EE04FF00303FB614FF0010355
:1007D0007B8307E04FF00403FB614FF001037B8351
:1007E00000E000BF00E000BFFB69002B21D0F868EB
:1007F000FFF778FD03461A46B7F91A30F868114634
:100800001A46FFF7DBFEF868F969BA683B68FFF73C
:10081000F7FE03467B82B7F91230F8681946FFF7F6
:1008200033FF03467B82B7F91230F8681946FFF7A9
:100830004BFD07F12007BD4680BD00BF80B584B0E9
:1008400000AF78607B684FF001029A804FF00003A0
:10085000FB600BE07A68FB684FEA4303D3184FF064
:100860000002DA80FB6803F10103FB60FB68012BE7
:10087000F0DD7868FFF73CFF07F11007BD4680BD4B
:1008800080B584B000AFF860B9607A607B68DB88BF
:100890001AB27B6803F10803F868B968FFF74CFFE8
:1008A00007F11007BD4680BD80B582B000AF78600B
:1008B00078684FF000014FF000024FF00003FFF79F
:1008C0003BFF07F10807BD4680BD00BF80B485B07F
:1008D00000AF786041F27823C2F200031B68FB602E
:1008E00041F27823C2F200031B68002B0ED041F2C4
:1008F0007823C2F200031B685A6941F27823C2F2DE
:1009000000031A60FB684FF000025A61FB6818464A
:1009100007F11407BD4680BC704700BF80B483B0A8
:1009200000AF7860396041F27823C2F200031A68A0
:100930003B685A6141F27823C2F200033A681A60B8
:1009400007F10C07BD4680BC704700BF80B584B07E
:1009500000AF7860396041F27423C2F200031B6873
:10096000FB6041F27423C2F200031B68BB60FB68AA
:10097000002B33D041F27423C2F200031B681A69C2
:100980003B689A420FD141F27423C2F200031B6804
:100990005A6941F27423C2F200031A607868F96858
:1009A000FFF7BCFF1BE0FB685B69FB6012E0FB68C4
:1009B0001A693B689A4208D1FB685A69BB685A6158
:1009C0007868F968FFF7AAFF09E0FB68BB60FB687D
:1009D0005B69FB60FB68002BE9D100E000BF07F119
:1009E0001007BD4680BD00BF80B584B000AF786001
:1009F000396041F27423C2F200031B68FB6041F2CC
:100A00007423C2F200031B68BB60FB68002B0AD191
:100A10003B684FF000025A6141F27423C2F20003B6
:100A20003A681A6030E0FB68002B25D03A68FB6812
:100A3000786811461A4600F02BF80346002B05D0C3
:100A4000FB68BB60FB685B69FB60ECE73B68FA68CE
:100A50005A6141F27423C2F200031B68FA689A4299
:100A600006D141F27423C2F200033A681A600BE027
:100A7000BB683A685A6107E03B684FF000025A6170
:100A8000BB683A685A6100BF07F11007BD4680BDD8
:100A900080B485B000AFF860B9607A60BB681A684E
:100AA0007B681B689A4202DD4FF0010313E0BB68CC
:100AB0001A687B681B689A4202DA4FF000030AE06A
:100AC000BB685A687B685B689A4202DD4FF001039D
:100AD00001E04FF00003184607F11407BD4680BC43
:100AE000704700BF80B485B000AFF860B9607A602D
:100AF000BB681A687B681B68D218BB681A60BB6841
:100B00005A687B685B68D218BB685A600EE0BB68A5
:100B10001B6803F10102BB681A60BB685A684FF496
:100B20005853CCF26543D318BA685360BB685A680F
:100B30004CF6FF13C3F69A339A42E8DC07F1140728
:100B4000BD4680BC704700BF80B582B000AF786002
:100B500078684FF001014FF000024FF0000304F0FD
:100B60007FFD07F10807BD4680BD00BF80B584B09A
:100B700000AF78604FF00003FB6012E07B685A68BA
:100B8000FB684FEA0313D31818464FF001014FF0EA
:100B900000024FF0000304F063FDFB6803F1010362
:100BA000FB607B681B881AB2FB689A42E6DC07F19F
:100BB0001007BD4680BD00BF80B582B000AF786031
:100BC00039603B68002B14DB7B681B881AB23B68DA
:100BD0009A420EDD7B685A683B684FEA0313D318CC
:100BE00018464FF001014FF000024FF0000304F0EF
:100BF00037FD07F10807BD4680BD00BF80B483B054
:100C000000AF78607B681B881BB2184607F10C07A1
:100C1000BD4680BC704700BF80B582B000AF786031
:100C200039607B681B681B78002B0CD17B681B68C4
:100C30004FF003021A703B4678684FF002014FF004
:100C4000040204F00DFD07F10807BD4680BD00BF9A
:100C500080B584B000AF786039604FF00003FB606E
:100C60000DE07B685A68FB684FEA0313D3181846F7
:100C70003968FFF7D1FFFB6803F10103FB607B6874
:100C80001B881AB2FB689A42EBDC07F11007BD46DD
:100C900080BD00BF80B584B000AFF860B9607A60F5
:100CA000FB685A68BB684FEA0313D3181846796883
:100CB000FFF7B2FF07F11007BD4680BD80B582B0D7
:100CC00000AF786039607B681B681B78002B0CD103
:100CD0007B681B684FF001021A703B4678684FF042
:100CE00003014FF0040204F0BBFC07F10807BD4606
:100CF00080BD00BF80B584B000AF786039604FF030
:100D00000003FB600DE07B685A68FB684FEA031341
:100D1000D31818463968FFF7D1FFFB6803F10103C8
:100D2000FB607B681B881AB2FB689A42EBDC07F118
:100D30001007BD4680BD00BF80B584B000AFF8602D
:100D4000B9607A60FB685A68BB684FEA0313D3182E
:100D500018467968FFF7B2FF07F11007BD4680BD5E
:100D600080B582B000AF78607B681B681B78002B71
:100D70000DD07B681B684FF000021A7078684FF046
:100D800004014FF000024FF0000304F069FC07F18A
:100D90000807BD4680BD00BF80B584B000AF786055
:100DA0004FF00003FB600CE07B685A68FB684FEA79
:100DB0000313D3181846FFF7D3FFFB6803F10103B1
:100DC000FB607B681B881AB2FB689A42ECDC07F177
:100DD0001007BD4680BD00BF80B582B000AF78600F
:100DE00039607B685A683B684FEA0313D31818468A
:100DF000FFF7B6FF07F10807BD4680BD80B483B09A
:100E000000AF78607B681B881BB2184607F10C079F
:100E1000BD4680BC704700BF80B584B000AFF860AD
:100E2000B9607A603B60FB681B681B78002B0ED0B2
:100E3000FB681B681B78012B04D1FB681B684FF013
:100E400000021A703B687868F968BA68984707F139
:100E50001007BD4680BD00BF80B483B000AF78608E
:100E60000B467B807B687A88A3F8482107F10C0742
:100E7000BD4680BC704700BF80B483B000AF7860CF
:100E80007B68B3F848311BB2184607F10C07BD4622
:100E900080BC704780B582B000AF78607B681B680B
:100EA0001A467B68D3F8443110461946FFF7B4FE62
:100EB00001F0CEFC07F10807BD4680BD80B586B0C5
:100EC00000AFF860B9607A60BB681B7BFA6803F119
:100ED0000A034FEA0313D31803F104031B687B6171
:100EE0007869796801F0C4FC07F11807BD4680BD38
:100EF00080B584B000AFF860B9607A60BB681B7BD6
:100F0000FA6803F10A034FEA0313D31803F1040349
:100F10007A681A60786801F0A1FC07F11007BD46F5
:100F200080BD00BF80B584B000AFF860B9607A6062
:100F3000BB681B7BFA684FEA0313D31803F1040361
:100F40007A681A60786801F089FC07F11007BD46DD
:100F500080BD00BF80B582B000AF7860396078682E
:100F600000F0AEF907F10807BD4680BD80B586B038
:100F700000AFF860B9607A60BB681B7BFA684FEA23
:100F80000313D31803F104031B687B617869796844
:100F900001F0DEFC07F11807BD4680BD80B483B0C8
:100FA00000AF786013460A467A803B800DE0B7F9BF
:100FB0000230022B08D17B684FF00202A3F84C21CB
:100FC0004FF001037B8000E000BFB7F90220B7F9C2
:100FD00000309A42EBD107F10C07BD4680BC704748
:100FE00080B588B000AFF860B9607A603B60BB68DC
:100FF00003F1FF33052B46D801A252F823F000BFBE
:101000001910000825100008391000084F100008BA
:101010006510000873100008F868FFF73BFF4FF0F9
:10102000020333E03B68FB61F8687968FA69FFF70F
:1010300045FF4FF0020329E03B681B68BB61F8687D
:101040007968BA69FFF754FF4FF002031EE03B686E
:101050001B687B61F86879687A69FFF763FF4FF076
:10106000020313E0F8687968FFF774FF4FF002039A
:101070000CE03B683B61F86879683A69FFF776FFF6
:101080004FF0020302E000BF4FF000031BB218460E
:1010900007F12007BD4680BD80B485B000AF786001
:1010A0000B467B804FF00003FB73B7F90230022B35
:1010B00007DD7B88A3F103039BB27B804FF0010324
:1010C000FB73B7F90230012B05D0022B08D14FF08A
:1010D00002031BB209E07B68B3F84C317B8000E06F
:1010E00000BF4FF00003FB73EBE7184607F114074E
:1010F000BD4680BC704700BF80B584B000AF78604B
:101100004FF00103FB607868F9684FF000024FF080
:101110000003FFF765FF03467B81B7F90A30786863
:101120001946FFF7B9FF03467B81B7F90A307868A3
:101130001946FFF791FE07F11007BD4680BD00BFBD
:1011400080B588B000AFF860B9607A603B60BB687A
:101150005B7A1A467B684FF0640101FB03F3D318F6
:101160007B614FF00003FB614FF000037B83B868A5
:1011700079683A6804F066FA0346002B3DD1F868B6
:10118000FFF77AFE0346022B36D17B69CB2B1CD0AE
:10119000CB2B04DC652B1FD0CA2B0FD02AE0B3F574
:1011A000977F04D040F2931293421CD022E04FF07C
:1011B0000203FB614FF001037B831CE04FF003034C
:1011C000FB614FF001037B8315E04FF00403FB61EB
:1011D0004FF001037B830EE04FF00503FB614FF0FE
:1011E00001037B8307E04FF00603FB614FF001032F
:1011F0007B8300E000BF00E000BFFB69002B21D033
:10120000F868FFF739FE03461A46B7F91A30F8684E
:1012100011461A46FFF7C2FEF868F969BA683B68DA
:10122000FFF7DEFE03467B82B7F91230F8681946F5
:10123000FFF732FF03467B82B7F91230F868194690
:10124000FFF70AFE07F12007BD4680BD80B584B0D8
:1012500000AF78607B684FF00102A3F848214FF09F
:101260000003FB600DE07A68FB6803F1A4034FEA1A
:101270004303D3184FF000025A80FB6803F10103C7
:10128000FB60FB68012BEEDD7868FFF735FF07F1A7
:101290001007BD4680BD00BF80B584B000AFF860C8
:1012A000B9607A607B68DB881AB27B6803F1080357
:1012B000F868B968FFF744FF07F11007BD4680BD25
:1012C00080B588B000AF78607B681B6803F11403B9
:1012D000184600F099F80346BB614FF00003FB612C
:1012E00020E07A68FB694FEA0313D31803F1040383
:1012F0001A6807F108031046194601F05BFB034624
:10130000012B0BD17B681B6803F11401FA6907F10B
:101310000803084611461A4600F054F8FB6903F129
:101320000103FB61FA69BB699A42DAD307F120072E
:10133000BD4680BD80B582B000AF78603960386846
:1013400079684FF0100205F053FD07F10807BD461C
:1013500080BD00BF80B582B000AF7860396078682A
:101360004FF001014FF010023B6804F079F907F1EA
:101370000807BD4680BD00BF80B584B000AF78606F
:1013800039604FF00003FB6011E07B685A68FB682E
:101390004FEA0313D31818464FF001014FF0100223
:1013A0003B6804F05DF9FB6803F10103FB607B68B7
:1013B0001B881AB2FB689A42E7DC07F11007BD46AA
:1013C00080BD00BF80B584B000AFF860B9607A60BE
:1013D000BB68002B13DBFB681B881AB2BB689A4200
:1013E0000DDDFB685A68BB684FEA0313D318184633
:1013F0004FF001014FF010027B6804F031F907F162
:101400001007BD4680BD00BF80B483B000AF7860D8
:101410007B681B881BB2184607F10C07BD4680BCD1
:10142000704700BF80B582B000AF786039603B681C
:10143000B3F1FF3F03D07B681B683A681A607B6892
:101440001B6878684FF002014FF0040204F008F9BD
:1014500007F10807BD4680BD80B584B000AF786055
:1014600039604FF00003FB600DE07B685A68FB6851
:101470004FEA0313D31818463968FFF7D3FFFB6808
:1014800003F10103FB607B681B881AB2FB689A4278
:10149000EBDC07F11007BD4680BD00BF80B584B00E
:1014A00000AFF860B9607A60FB685A68BB684FEAC1
:1014B0000313D31818467968FFF7B4FF07F1100734
:1014C000BD4680BD80B582B000AF786078684FF0CF
:1014D00003014FF000024FF0000304F0C1F807F1E0
:1014E0000807BD4680BD00BF80B584B000AF7860FE
:1014F0004FF00003FB6012E07B685A68FB684FEA1C
:101500000313D31818464FF003014FF000024FF0B9
:10151000000304F0A5F8FB6803F10103FB607B689E
:101520001B881AB2FB689A42E6DC07F11007BD4639
:1015300080BD00BF80B582B000AF786039603B6885
:10154000002B14DB7B681B881AB23B689A420EDDC5
:101550007B685A683B684FEA0313D31818464FF06C
:1015600003014FF000024FF0000304F079F807F197
:101570000807BD4680BD00BF80B582B000AF78606F
:10158000396078684FF004014FF010023B6804F0B6
:1015900067F807F10807BD4680BD00BF80B584B07D
:1015A00000AF786039604FF00003FB6011E07B68AA
:1015B0005A68FB684FEA0313D31818464FF004012A
:1015C0004FF010023B6804F04BF8FB6803F1010395
:1015D000FB607B681B881AB2FB689A42E7DC07F164
:1015E0001007BD4680BD00BF80B584B000AFF86075
:1015F000B9607A60BB68002B13DBFB681B881AB2EA
:10160000BB689A420DDDFB685A68BB684FEA03135A
:10161000D31818464FF004014FF010027B6804F015
:101620001FF807F11007BD4680BD00BF80B582B02E
:1016300000AF786078684FF005014FF000024FF07E
:10164000000304F00DF807F10807BD4680BD00BF98
:1016500080B584B000AF78604FF00003FB6012E00B
:101660007B685A68FB684FEA0313D31818464FF09B
:1016700005014FF000024FF0000303F0F1FFFB689B
:1016800003F10103FB607B681B881AB2FB689A4276
:10169000E6DC07F11007BD4680BD00BF80B582B013
:1016A00000AF786039603B68002B14DB7B681B88D7
:1016B0001AB23B689A420EDD7B685A683B684FEA73
:1016C0000313D31818464FF005014FF000024FF0F6
:1016D000000303F0C5FF07F10807BD4680BD00BF4A
:1016E00080B483B000AF78607B681B881BB218465B
:1016F00007F10C07BD4680BC704700BF80B582B0C3
:1017000000AF78600B46FB7007F1030378684FF079
:1017100001014FF0010203F0A3FF07F10807BD46E6
:1017200080BD00BF80B584B000AF78600B46FB7011
:101730004FF00003FB6013E07B685A68FB684FEAD8
:101740000313D3181A4607F1030310464FF00101A3
:101750004FF0010203F084FFFB6803F10103FB601B
:101760007B681B881AB2FB689A42E5DC07F1100718
:10177000BD4680BD80B584B000AFF860B960134647
:10178000FB71BB68002B15DBFB681B881AB2BB68BA
:101790009A420FDDFB685A68BB684FEA0313D318FF
:1017A0001A4607F1070310464FF001014FF00102FE
:1017B00003F056FF07F11007BD4680BD80B483B02B
:1017C00000AF78607B681B881BB2184607F10C07D6
:1017D000BD4680BC704700BF80B582B000AF786066
:1017E00039603B68B3F1FF3F03D07B681B683A6800
:1017F0001A607B681B6878684FF002014FF00402A2
:1018000003F02EFF07F10807BD4680BD80B584B008
:1018100000AF786039604FF00003FB600DE07B683B
:101820005A68FB684FEA0313D31818463968FFF764
:10183000D3FFFB6803F10103FB607B681B881AB2CE
:10184000FB689A42EBDC07F11007BD4680BD00BF84
:1018500080B584B000AFF860B9607A60FB685A6800
:10186000BB684FEA0313D31818467968FFF7B4FF33
:1018700007F11007BD4680BD80B582B000AF78602B
:10188000396078684FF003014FF010023B6803F0B5
:10189000E7FE07F10807BD4680BD00BF80B584B0F4
:1018A00000AF786039604FF00003FB6011E07B68A7
:1018B0005A68FB684FEA0313D31818464FF0030128
:1018C0004FF010023B6803F0CBFEFB6803F101030D
:1018D000FB607B681B881AB2FB689A42E7DC07F161
:1018E0001007BD4680BD00BF80B584B000AFF86072
:1018F000B9607A60BB68002B13DBFB681B881AB2E7
:10190000BB689A420DDDFB685A68BB684FEA031357
:10191000D31818464FF003014FF010027B6803F014
:101920009FFE07F11007BD4680BD00BF80B582B0A5
:1019300000AF786078684FF004014FF000024FF07C
:10194000000303F08DFE07F10807BD4680BD00BF10
:1019500080B584B000AF78604FF00003FB6012E008
:101960007B685A68FB684FEA0313D31818464FF098
:1019700004014FF000024FF0000303F071FEFB681A
:1019800003F10103FB607B681B881AB2FB689A4273
:10199000E6DC07F11007BD4680BD00BF80B582B010
:1019A00000AF786039603B68002B14DB7B681B88D4
:1019B0001AB23B689A420EDD7B685A683B684FEA70
:1019C0000313D31818464FF004014FF000024FF0F4
:1019D000000303F045FE07F10807BD4680BD00BFC8
:1019E00080B483B000AF78607B681B881BB2184658
:1019F00007F10C07BD4680BC704700BF80B483B0C0
:101A000000AF78600B467B807B687A889A8007F10C
:101A10000C07BD4680BC704780B483B000AF7860CF
:101A20007B689B881BB2184607F10C07BD4680BC3B
:101A3000704700BF80B586B000AF78607B681B68D8
:101A400003F10C0318464FF4FA71FFF737F97B687E
:101A50001B6803F1180318464FF00501FFF7BCFEA1
:101A60007B681B6803F1240318464FF00701FFF75A
:101A7000D9FC4FF01203BB607B681B6803F12402A2
:101A800007F1080310461946FFF776FD07F118071E
:101A9000BD4680BD80B582B000AF786039607B689C
:101AA0001B68184600F028FB07F10807BD4680BDFB
:101AB00080B586B000AF7860396040F6B423C2F2DA
:101AC00000031B7803F00103002B03D04FF0270322
:101AD000BB6002E04FF03003BB604FF008033B7384
:101AE0004FF00A037B734FF00B03BB734FF00C03F3
:101AF000FB734FF00D033B744FF00E037B744FF0FC
:101B00000F03BB744FF01003FB7440F6B423C2F212
:101B100000031B781A463A7503F10103DAB240F666
:101B2000B423C2F200031A707B681B6803F10C0334
:101B300018464FF4FA71FFF7C1F87B681B6803F190
:101B4000180207F1080310461946FFF795FE07F142
:101B50001807BD4680BD00BF90B488B000AFF860E4
:101B6000B9607A607B6807F110040FCB84E80F003E
:101B700007F12007BD4690BC704700BF80B483B01A
:101B800000AF786013460A467A803B800CE0B7F9D4
:101B90000230022B07D17B684FF002021A814FF00E
:101BA00001037B8000E000BFB7F90220B7F90030E5
:101BB0009A42ECD107F10C07BD4680BC704700BFCC
:101BC00080B586B000AFF860B9607A603B60BB68F2
:101BD00003F1FF33032B29D801A252F823F000BFF1
:101BE000F11B0008FD1B00080B1C0008191C000855
:101BF000F868FFF71FFF4FF002031AE0F8687968F2
:101C0000FFF748FF4FF0020313E0F8687968FFF729
:101C10004FFF4FF002030CE03B687B61F868796886
:101C20007A69FFF799FF4FF0020302E000BF4FF01F
:101C300000031BB2184607F11807BD4680BD00BF60
:101C400080B485B000AF78600B467B804FF0000316
:101C5000FB73B7F90230022B07DD7B88A3F1030386
:101C60009BB27B804FF00103FB73B7F90230012B6D
:101C700005D0022B07D14FF002031BB208E07B68AE
:101C80001B897B8000E000BF4FF00003FB73ECE793
:101C9000184607F11407BD4680BC704780B584B074
:101CA00000AF78604FF00103FB607868F9684FF08F
:101CB00000024FF00003FFF783FF03467B81B7F973
:101CC0000A3078681946FFF7BBFF03467B81B7F9F6
:101CD0000A3078681946FFF791FE07F11007BD46F4
:101CE00080BD00BF80B588B000AFF860B9607A6091
:101CF0003B60BB685B7A1A467B684FF0640101FB6E
:101D000003F3D3187B614FF00003FB614FF0000336
:101D10007B83B86879683A6803F094FC0346002B2B
:101D200024D1F868FFF778FE0346022B1DD17B69AA
:101D3000682B11D0C92B08D0662B14D14FF00203A9
:101D4000FB614FF001037B830EE04FF00303FB6167
:101D50004FF001037B8307E04FF00403FB614FF07A
:101D600001037B8300E000BF00E000BFFB69002BA4
:101D700021D0F868FFF750FE03461A46B7F91A302B
:101D8000F86811461A46FFF7F9FEF868F969BA686B
:101D90003B68FFF715FF03467B82B7F91230F868FE
:101DA0001946FFF74DFF03467B82B7F91230F868FA
:101DB0001946FFF723FE07F12007BD4680BD00BF8F
:101DC00080B584B000AF78607B684FF001029A80E4
:101DD0004FF00003FB600BE07A68FB684FEA4303B7
:101DE000D3184FF00002DA80FB6803F10103FB60B7
:101DF000FB68012BF0DD7868FFF750FF07F1100753
:101E0000BD4680BD80B584B000AFF860B9607A602F
:101E10007B68DB881AB27B6803F10803F868B9684D
:101E2000FFF760FF07F11007BD4680BD80B483B0A7
:101E300000AF78600B467B807B687A889A8007F1D8
:101E40000C07BD4680BC704780B483B000AF78609B
:101E50007B689B881BB2184607F10C07BD4680BC07
:101E6000704700BF80B582B000AF786039607B6892
:101E70001B68184600F0A8F907F10807BD4680BDA9
:101E800080B483B000AF786013460A467A803B8006
:101E90000CE0B7F90230022B07D17B684FF0020249
:101EA0001A814FF001037B8000E000BFB7F90220E8
:101EB000B7F900309A42ECD107F10C07BD4680BC5F
:101EC000704700BF80B584B000AFF860B9607A6039
:101ED0003B60BB68012B02D0022B03D009E04FF01E
:101EE000020309E0F8687968FFF7BCFF4FF00203CE
:101EF00002E000BF4FF000031BB2184607F11007C5
:101F0000BD4680BD80B485B000AF78600B467B8055
:101F10004FF00003FB73B7F90230022B07DD7B881B
:101F2000A3F103039BB27B804FF00103FB73B7F96E
:101F30000230012B05D0022B07D14FF002031BB258
:101F400008E07B681B897B8000E000BF4FF0000346
:101F5000FB73ECE7184607F11407BD4680BC7047D9
:101F600080B584B000AF78604FF00103FB60786803
:101F7000F9684FF000024FF00003FFF7A3FF03469C
:101F80007B81B7F90A3078681946FFF7BBFF034633
:101F90007B81B7F90A3078681946FFF747FF07F1E8
:101FA0001007BD4680BD00BF80B588B000AFF860A7
:101FB000B9607A603B60BB685B7A1A467B684FF019
:101FC000640101FB03F3D3187B614FF00003FB6155
:101FD0004FF000037B83B86879683A6803F032FBFE
:101FE0000346002B12D1F868FFF72EFF0346022BA1
:101FF0000BD17B69652B06D14FF00203FB614FF0DB
:1020000001037B8300E000BF00E000BFFB69002B01
:1020100021D0F868FFF718FF03461A46B7F91A30BF
:10202000F86811461A46FFF72BFFF868F969BA6895
:102030003B68FFF747FF03467B82B7F91230F86829
:102040001946FFF75FFF03467B82B7F91230F86845
:102050001946FFF7EBFE07F12007BD4680BD00BF24
:1020600080B584B000AF78607B684FF001029A8041
:102070004FF00003FB600BE07A68FB684FEA430314
:10208000D3184FF00002DA80FB6803F10103FB6014
:10209000FB68012BF0DD7868FFF762FF07F110079E
:1020A000BD4680BD80B584B000AFF860B9607A608D
:1020B0007B68DB881AB27B6803F10803F868B968AB
:1020C000FFF772FF07F11007BD4680BD80B483B0F3
:1020D00000AF786007F10C07BD4680BC704700BFB9
:1020E00080B485B000AFF860B9607A6007F114077A
:1020F000BD4680BC704700BF80B582B000AF78603D
:1021000078684FF001014FF000024FF0000303F038
:10211000A7FA07F10807BD4680BD00BF80B584B0AF
:1021200000AF78604FF00003FB6012E07B685A68F4
:10213000FB684FEA0313D31818464FF001014FF024
:1021400000024FF0000303F08BFAFB6803F1010378
:10215000FB607B681B881AB2FB689A42E6DC07F1D9
:102160001007BD4680BD00BF80B582B000AF78606B
:1021700039603B68002B14DB7B681B881AB23B6814
:102180009A420EDD7B685A683B684FEA0313D31806
:1021900018464FF001014FF000024FF0000303F02A
:1021A0005FFA07F10807BD4680BD00BF80B483B069
:1021B00000AF78607B681B881BB2184607F10C07DC
:1021C000BD4680BC704700BF80B582B000AF78606C
:1021D00078684FF002014FF000024FF0000303F067
:1021E0003FFA07F10807BD4680BD00BF80B584B047
:1021F00000AF78604FF00003FB6012E07B685A6824
:10220000FB684FEA0313D31818464FF002014FF052
:1022100000024FF0000303F023FAFB6803F101030F
:10222000FB607B681B881AB2FB689A42E6DC07F108
:102230001007BD4680BD00BF80B582B000AF78609A
:1022400039603B68002B14DB7B681B881AB23B6843
:102250009A420EDD7B685A683B684FEA0313D31835
:1022600018464FF002014FF000024FF0000303F058
:10227000F7F907F10807BD4680BD00BF80B483B001
:1022800000AF78607B681B881BB2184607F10C070B
:10229000BD4680BC704700BF80B500AF40F2200053
:1022A000C2F20000FEF700FB80BD00BF80B582B027
:1022B00000AF78607B689B881BB203F1FF332E2B45
:1022C00000F2158101A252F823F000BF8923000813
:1022D000EF240008EF240008EF240008EF24000892
:1022E000EF240008EF240008EF240008EF24000882
:1022F000EF240008EF240008EF240008EF24000872
:10230000EF240008EF240008EF240008EF24000861
:10231000EF240008EF240008EF240008EF24000851
:10232000EF240008EF240008EF240008EF24000841
:10233000EF240008EF240008EF240008EF24000831
:10234000EF240008EF240008EF240008EF24000821
:10235000EF240008AB230008C3230008FB23000878
:102360000D240008EF2400081F240008EF240008B3
:102370003724000853240008EF24000873240008C1
:10238000B7240008D32400087B68DB881BB2012B2C
:1023900002D1FFF781FFB5E07B68DB881BB2022B1F
:1023A00040F0B0804FF00003AFE040F20800C2F20E
:1023B000000048F21831C0F600017A68FFF722FDEC
:1023C000A1E07B68DB881BB2012B0CD151487968F6
:1023D00040F20802C2F2000241F60563C0F60003B3
:1023E000FEF71AFD08E040F20800C2F20000494979
:1023F0007A68FFF707FD00BF85E040F20800C2F2EF
:10240000000045497A68FFF7FDFC7CE040F20800D7
:10241000C2F2000041497A68FFF7F4FC73E040F231
:102420001400C2F2000048F24831C0F600017A6898
:10243000FFF738FE67E048F27433C0F600035B68CC
:1024400040F22000C2F2000019467A68FEF718FA3E
:1024500059E048F27433C0F600035B6803F11003DF
:1024600040F22000C2F2000019467A68FEF708FA2E
:1024700049E07B68DB881BB2012B0FD148F29C300E
:10248000C0F60000796840F22C02C2F2000241F26C
:102490009923C0F60003FEF7BFFC0BE040F22C00CE
:1024A000C2F2000048F29C31C0F600017A68FEF7E3
:1024B000F3FE00BF27E048F29C33C0F600031B691F
:1024C00040F22C00C2F2000019467A68FEF7E4FEE2
:1024D00019E048F29C33C0F600039B6940F22C00DF
:1024E000C2F2000019467A68FEF7D6FE0BE07B6860
:1024F0009B881BB248F2B830C0F60000194602F0C3
:10250000F9FE00E000BF4FF00103184607F108078D
:10251000BD4680BD24830008308300083C8300084A
:1025200080B588B006AF4FF000033B6049F280638E
:10253000C0F298037B604FF4806300934FF0030375
:10254000019302AA3B4693E8030082E8030042F2AB
:10255000AD23C0F6000304934FF00203059340F649
:10256000B870C2F2000040F6B821C2F200014FF08C
:1025700028024FF0200303F0B9F807F10807BD4621
:1025800080BD00BF80B500AF40F6B870C2F2000059
:1025900003F010F980BD00BF80B500AF40F6B87001
:1025A000C2F2000003F024F980BD00BF80B500AF87
:1025B00040F6B870C2F2000003F040F980BD00BFE1
:1025C00080B500AF40F20003C2F200031B6848F27E
:1025D0000440C0F60000194602F09CFE00F096F898
:1025E000FFF79EFF00F098F880BD00BF80B500AFF8
:1025F00040F20003C2F200031B6848F20C40C0F630
:102600000000194602F086FEFFF7BCFF80BD00BF48
:1026100080B592B000AF0346FB71FB79002B06D06A
:1026200002F0F4FF0346184602F0E0FE2FE048F205
:102630001840C0F6000004F04BFD40F2A063C2F267
:1026400000031B689B68184603F006FD00E000BF0E
:1026500040F2A063C2F200031B685B6807F1080246
:1026600010464FF040011A4603F062FD0346002B6E
:10267000EDD007F10803184648F22C41C0F60001DE
:102680004FF0040204F03AFF0346002BDFD107F1BC
:102690004807BD4680BD00BF80B500AF40F20003D3
:1026A000C2F200031B6848F23440C0F6000019462D
:1026B00002F030FEFFF770FF80BD00BF80B500AFB5
:1026C00040F20003C2F200031B6848F23C40C0F62F
:1026D0000000194602F01EFEFFF768FF80BD00BF34
:1026E00080B500AF40F20003C2F200031B6848F25D
:1026F0004840C0F60000194602F00CFE40F200030C
:10270000C2F200034FF001025A6080BD80B400AFF6
:10271000BD4680BC704700BF80B500AF41F22400C9
:10272000C2F20000FFF7D2FC40F20800C2F2000043
:10273000FFF746FB40F21400C2F20000FFF790FCE6
:1027400040F22000C2F20000FEF778F840F22C00C0
:10275000C2F20000FEF77AFD80BD00BF80B584B0F4
:1027600000AF786039604FF00003FB737B68012B8A
:1027700010DD3B6803F104031B68184648F254411E
:10278000C0F6000104F09CFD0346002B02D14FF07F
:102790000103FB737B68012B10DD3B6803F104032D
:1027A0001B68184648F26041C0F6000104F088FD3D
:1027B0000346002B02D14FF00103FB7302F0D8FD5A
:1027C00048F27040C0F6000002F08AFDFFF7F8FE04
:1027D000FFF70CFF02F0D2FDFB7B1846FFF718FF56
:1027E00002F0DAFDFFF758FFFFF768FF48F290406C
:1027F000C0F6000002F074FD02F0D4FD4FF00003BB
:10280000184607F11007BD4680BD00BF80B582B0F5
:1028100000AF786002F07EFE07F10807BD4680BD7C
:1028200080B582B000AF4FF001004FF0010142F6D9
:102830000D02C0F600024FF0000301F0E9F87860E5
:10284000786801F0B5F907F10807BD4680BD00BF03
:1028500080B400AFBD4680BC704700BF80B483B079
:1028600000AF786007F10C07BD4680BC704700BF21
:1028700080B58CB000AF786039607B684FEA136335
:10288000BB627B6887F827303B681B79BB744FF0CD
:1028900000033B743B681B68BB604FF00103FB7691
:1028A0004FF001033B774FF00003FB620CE03A6806
:1028B000FB6AD3185A7907F11001FB6ACB18DA705A
:1028C000FB6A03F10103FB623B681B791A46FB6A52
:1028D0009A42ECD897F8273048F2AC40C0F6000096
:1028E00019464FF0020202F05DFC07F1080297F86A
:1028F000273048F2AC40C0F6000011461A4602F0FC
:1029000033F938623B6A002B00D0FEE797F8273096
:1029100048F2AC40C0F60000194602F07DF938627A
:102920003B6A002B00D0FEE700BF97F8273048F243
:10293000AC40C0F6000019464FF0020202F0B6FBB0
:102940000346002BF1D007F13007BD4680BD00BF24
:1029500080B58CB000AF786039607B684FEA136354
:10296000FB627B6887F82B304FF000033B7540F229
:10297000FF733B613B681B68FB604FF00103FB7713
:102980004FF0000387F8203007F10C0297F82B3046
:1029900048F2AC40C0F6000011461A4602F0E4F8D6
:1029A00078627B6A002B00D0FEE707F13007BD4656
:1029B00080BD00BF80B58CB000AF786039607B68A7
:1029C0004FEA1363BB627B6887F8273097F827309C
:1029D00048F2AC40C0F6000019464FF0010202F088
:1029E00065FB0346002B46D007F1080297F8273015
:1029F00048F2AC40C0F6000011461A4602F0A4F9B5
:102A000038623B6A002B00D0FEE797F8273048F287
:102A1000AC40C0F6000019464FF0010202F0C2FBC4
:102A200038623B6A002B00D0FEE7BA683B681A6048
:102A3000BA7C3B681A714FF0000387F82F3011E021
:102A400097F82F3097F82F2007F130018A1812F8E5
:102A50001D2C3968CB185A7197F82F3003F10103F8
:102A600087F82F303B681B7997F82F209A42E7D3DD
:102A70004FF0010301E04FF00003184607F1300763
:102A8000BD4680BD80B483B000AF786007F10C070D
:102A9000BD4680BC704700BF80B483B000AF786093
:102AA00007F10C07BD4680BC704700BF80B483B0FF
:102AB00000AF786007F10C07BD4680BC704700BFCF
:102AC000FEE7FEE7FEE7FEE7FEE7FEE7FEE7FEE7DE
:102AD000FEE7FEE7FEE7FEE7FEE7FEE7FEE7FEE7CE
:102AE000FEE7FEE7FEE7FEE7FEE7FEE7FEE7FEE7BE
:102AF000FEE7FEE7FEE7FEE7FEE7FEE7FEE7FEE7AE
:102B0000FEE7FEE7FEE7FEE7FEE7FEE7FEE7FEE79D
:102B1000FEE7FEE7FEE7FEE7FEE7FEE7FEE7FEE78D
:102B2000FEE7FEE7FEE7FEE7FEE7FEE7FEE7FEE77D
:102B3000FEE7FEE7FEE7FEE7FEE7FEE7FEE7FEE76D
:102B4000FEE7FEE7FEE7FEE7FEE7FEE7FEE7FEE75D
:102B5000FEE7FEE7FEE7FEE7FEE7FEE7FEE7FEE74D
:102B6000FEE7FEE7FEE7FEE7FEE7FEE7FEE7FEE73D
:102B7000FEE7FEE7FEE7FEE7FEE7FEE7FEE7FEE72D
:102B8000FEE7FEE7FEE7FEE7FEE7FEE7FEE7FEE71D
:102B9000FEE7FEE7FEE7FEE7FEE7FEE74FF0010097
:102BA0007047000080B582B000AF4FF46D43CEF2A5
:102BB00000034FF46D42CEF20002D2F8882042F4B6
:102BC0007002C3F888204FF46D43CEF200034FF437
:102BD0006D42CEF20002526922F008025A614FF4AF
:102BE0000043C5F200034FF40042C5F200025268F0
:102BF00022F001025A604FF48053C5F6000303F53A
:102C0000805303F114031B687B607B6823F00F0380
:102C10007B607B6843F003037B604FF48053C5F611
:102C200000037A6803F5805303F114031A6000F07F
:102C3000ABF800F005F807F10807BD4680BD00BFFE
:102C400080B485B000AF4FF48C43C5F20003DB685D
:102C5000B3F5803F40F0898044F21073C5F2000361
:102C60001B6803F00403002B00F0888044F210730B
:102C7000C5F200039B6803F070634FEA136303F12E
:102C80000103FB6044F21073C5F200039B6803F478
:102C9000FE434FEA132303F10103BB6044F21073B8
:102CA000C5F200039B6803F4FE034FEA134303F1EC
:102CB00001037B6044F21073C5F20003DB6803F08C
:102CC0000103002B28D04FF45853C0F26E13FA685A
:102CD000B3FBF2F3BA6802FB03F33B603A687B682C
:102CE000B2FBF3F240F28413C2F200031A6040F226
:102CF0008413C2F200031A684FF48C43C5F2000338
:102D0000DB68DBB203F10103B2FBF3F240F28413A0
:102D1000C2F200031A6031E04FF4D853C0F2B70397
:102D2000FA68B3FBF2F3BA6802FB03F33B603A685C
:102D30007B68B2FBF3F240F28413C2F200031A6024
:102D400040F28413C2F200031A684FF48C43C5F2B8
:102D50000003DB68DBB203F10103B2FBF3F240F2E4
:102D60008413C2F200031A6008E040F28413C2F236
:102D700000034FF45852C0F26E121A6007F11407A4
:102D8000BD4680BC704700BF80B582B000AF01F087
:102D9000E5FB0346002B00F0558244F21073C5F2A8
:102DA00000035A684FF00203C0F201031340002BE6
:102DB0000DD044F21073C5F2000344F21072C5F254
:102DC0000002526822F4803222F002025A604FF46C
:102DD0008E43C5F200035B6803F03003002B72D012
:102DE0004FF48E43C5F200034FF48E42C5F2000249
:102DF000526822F0F0025A604FF48E43C5F200038D
:102E00004FF48E42C5F20002526842F400325A601A
:102E100044F21073C5F2000344F21072C5F20002CE
:102E2000D26822F00102DA6044F21073C5F20003A6
:102E300044F21072C5F20002526822F400325A6065
:102E40004EF21003CEF2000344F6A332C0F24C025D
:102E50005A604EF21003CEF200034FF000029A6067
:102E60004EF21003CEF200034FF005021A6044F256
:102E70001073C5F200031B6803F46073B3F5607F41
:102E800008D04EF21003CEF200039A6840F2F3131A
:102E90009A42ECD84EF21003CEF200034EF210022A
:102EA000CEF20002126822F001021A6044F210739E
:102EB000C5F200031B6803F46073B3F5607F02D0B2
:102EC0004FF00003C0E144F21073C5F200031B6829
:102ED00003F00403002B40F0B5814FF48C43C5F29E
:102EE0000003DB6803F48033002B0BD04FF48C43DA
:102EF000C5F200034FF48C42C5F20002D26822F4FE
:102F00008032DA604FF46053C1F69C437B607A688C
:102F100049F68173C1F25E63A3FB02134FEA535378
:102F200003F1FF333B6044F21073C5F2000344F237
:102F30001072C5F20002526842F001025A6044F277
:102F40001073C5F2000344F21072C5F20002526819
:102F500042F010025A6044F21072C5F200023B685F
:102F60004FEA034144F60173C0F200130B43936030
:102F700044F21073C5F2000344F21072C5F200026D
:102F8000526842F040025A6044F21073C5F20003E6
:102F900044F21072C5F20002526822F010025A6028
:102FA00044F21073C5F2000344F21072C5F200023D
:102FB000526842F480225A604EF21003CEF20003AF
:102FC00044F6A332C0F24C025A604EF21003CEF225
:102FD00000034FF000029A604EF21003CEF200039D
:102FE0004FF005021A6000BF44F21073C5F20003EF
:102FF0001B6803F00403002B08D14EF21003CEF23D
:1030000000039A6840F2F3139A42EDD84EF210038F
:10301000CEF200034EF21002CEF20002126822F04D
:1030200001021A6044F21073C5F200031B6803F03A
:103030000403002B4ED044F21073C5F2000344F297
:103040001072C5F20002526822F001025A604FF479
:103050008C43C5F200034FF000021A614FF48C4319
:10306000C5F200034FF000025A614FF48C43C5F2E1
:1030700000034FF000021A624FF48C43C5F20003C4
:103080004FF48C42C5F20002D26842F48032DA601A
:1030900044F21073C5F2000344F21072C5F200024C
:1030A000526822F040025A604EF21003CEF2000342
:1030B00040F245525A604EF21003CEF200034FF038
:1030C00000029A604EF21003CEF200034FF00502A8
:1030D0001A6002E04FF00003B6E04EF21003CEF2A9
:1030E00000039B68632BF8D84EF21003CEF2000366
:1030F0004EF21002CEF20002126822F001021A60B3
:103100004FF46053C1F69C437B607B684FEA132207
:1031100045F2C743C0F21E13A3FB02134FEA9323E9
:1031200003F1FF333B6044F21072C5F200023B68CA
:103130004FEA034144F60173C0F200130B4393605E
:103140004EF21003CEF2000340F61B425A604EF2DC
:103150001003CEF200034FF000029A604EF210030B
:10316000CEF200034FF005021A6000BF4EF21003CA
:10317000CEF200039B68632BF8D84EF21003CEF218
:1031800000034EF21002CEF20002126822F0010299
:103190001A604FF46053C1F69C437B607B684FEA32
:1031A000D3124EF22F33C0F2BE03A3FB02134FEA39
:1031B000D32303F1FF333B6044F21072C5F20002E7
:1031C0003B684FEA034144F60173C0F200130B431E
:1031D00093604EF21003CEF2000341F223325A60A4
:1031E0004EF21003CEF200034FF000029A604EF24E
:1031F0001003CEF200034FF005021A6000BF4EF23A
:103200001003CEF200039B68632BF8D84EF2100334
:10321000CEF200034EF21002CEF20002126822F04B
:1032200001021A6044F21073C5F2000344F6017201
:10323000C0F203129A6044F26013C5F200034FF02B
:103240000502DA604FF00103184607F10807BD4692
:1032500080BD00BF80B485B000AFF860B9607A600F
:103260004FF0FF33184607F11407BD4680BC704786
:1032700080B485B000AFF860B9607A604FF0FF337A
:10328000184607F11407BD4680BC704780B485B06E
:1032900000AFF860B9607A604FF00003184607F19C
:1032A0001407BD4680BC704780B485B000AFF8609D
:1032B000B9607A604FF0FF33184607F11407BD4636
:1032C00080BC704780B400AF4FF0FF331846BD4656
:1032D00080BC704780B483B000AF786039603B68D1
:1032E000002B02D04FF0FF3301E06FF001031846CE
:1032F00007F10C07BD4680BC704700BF80B483B0A7
:1033000000AF786039607A683B689A4202D14FF02A
:10331000FF3301E06FF00103184607F10C07BD46CB
:1033200080BC704780B483B000AF78604FF0FF334B
:10333000184607F10C07BD4680BC704780B487B0C3
:1033400000AF78604EF67413C0F200037B6141F267
:103350003403C2F200031B68002B14D141F2340382
:10336000C2F2000341F28C62C2F200021A6041F222
:103370003403C2F200031A687B69D21841F23803A1
:10338000C2F200031A6041F23403C2F200031B6868
:103390003B6141F23403C2F200031B681A467B68AA
:1033A000D31803F1070323F00703FB6041F238034E
:1033B000C2F200031B68FA689A4202D34FF000037E
:1033C00006E041F23403C2F20003FA681A603B6976
:1033D000184607F11C07BD4680BC704780B483B017
:1033E00000AF78604FF0FF33184607F10C07BD4679
:1033F00080BC704780B483B000AF78604FF0FF337B
:10340000184607F10C07BD4680BC704780B483B0F6
:1034100000AF786039604FF0FF33184607F10C07B2
:10342000BD4680BC704700BF80B400AF4FF0FF3393
:103430001846BD4680BC704780B400AF4FF0FF33E4
:103440001846BD4680BC704780B483B000AF78603A
:10345000FEE700BF80B400AFBD4680BC704700BF30
:1034600080B483B000AF78604FF0FF33184607F1A7
:103470000C07BD4680BC704780B400AF4FF46D436D
:10348000CEF20003DB6803F4E0634FEA132318462F
:10349000BD4680BC704700BF80B483B000AF034618
:1034A0003960FB7197F90730002B10DA4FF46D4348
:1034B000CEF20003FA7902F00F02A2F104013A6899
:1034C000D2B24FEA8202D2B25B181A760DE04FF404
:1034D0006143CEF2000397F907103A68D2B24FEA7F
:1034E0008202D2B25B1883F8002307F10C07BD46B5
:1034F00080BC704780B489B000AFF860B9607A6072
:10350000FB6803F00703FB61FB69C3F10703062BAC
:1035100028BF0623BB61FB6903F10603062B03D911
:10352000FB6903F1FF3301E04FF000037B61BB69EE
:103530004FF0010202FA03F303F1FF331A46BB68AE
:103540001A407B6902FA03F27B694FF0010101FA2C
:1035500003F303F1FF3319467B680B40134318460E
:1035600007F12407BD4680BC704700BF80B582B01C
:1035700000AF78607B6803F1FF326FF07F439A42BF
:1035800002D94FF001031DE04EF21003CEF200030A
:103590007A6802F1FF325A604FF0FF304FF03F017E
:1035A000FFF77AFF4EF21003CEF200034FF0000255
:1035B0009A604EF21003CEF200034FF007021A6039
:1035C0004FF00003184607F10807BD4680BD00BF55
:1035D00080B487B000AF786041F27C23C2F2000370
:1035E0007A684FEA42129B1803F108031B68FB60DC
:1035F00041F23C03C2F200031B68002B0DD17B6833
:103600004FEA431241F27C23C2F20003D21841F286
:103610003C03C2F200031A60DEE041F23C03C2F256
:1036200000031B687B61FB683B61D1E07B699B68A1
:103630003A69D31A3B613B69002B80F29C807B691D
:10364000DB69002B2ED07B69DA697B684FEA431176
:1036500041F27C23C2F20003CB1893617B69DA69E3
:1036600041F27C23C2F2000379684FEA41115B18F2
:1036700003F11C031A6041F27C23C2F200037A6852
:103680004FEA42129B1803F118037A691A607B68AB
:103690004FEA431241F27C23C2F20003D2187B6945
:1036A000DA612AE041F23C03C2F200031A6841F2F7
:1036B0007C23C2F2000379684FEA41115B1803F1E1
:1036C00018031A6041F23C03C2F200031A687B68D7
:1036D0004FEA431141F27C23C2F20003CB18D361BD
:1036E0007B684FEA431241F27C23C2F20003D218F6
:1036F00041F23C03C2F200031A6041F27C23C2F2A1
:1037000000037A684FEA42129B1803F118031B6802
:103710009A683B69D21841F27C23C2F200037968AF
:103720004FEA41115B1803F108031A6041F27C2350
:10373000C2F200037A684FEA42129B1803F11803A1
:103740001A6841F27C23C2F2000379684FEA411102
:103750005B1803F118031B68996841F27C23C2F2DD
:10376000000378684FEA40101B1803F108031B6838
:10377000CB1A936030E03B69002B26DB7B699B69A9
:10378000002B22D141F27C23C2F200037A684FEA77
:1037900042129B1803F11C037A691A607B684FEA96
:1037A000431241F27C23C2F20003D2187B699A6172
:1037B0003A6941F27C23C2F2000379684FEA411171
:1037C0005B1803F108031A6006E07B699B697B6163
:1037D0007B69002B7FF42AAF07F11C07BD4680BC34
:1037E000704700BF80B485B000AF78607B684FEA57
:1037F000431241F27C23C2F20003D318FB60FB6842
:10380000DB69002B0BD1FB689B69002B07D141F2D0
:103810003C03C2F200034FF000021A6049E0FB686B
:10382000DB69002B1CD1FB689A6941F23C03C2F2B0
:1038300000031A6041F23C03C2F200031B684FF020
:103840000002DA61FB689B69FA6892699168FA681C
:1038500092688A189A60FB684FF000029A6128E02B
:10386000FB689B69002B09D1FB68DB694FF0000204
:103870009A61FB684FF00002DA611AE0FB68DB69CD
:10388000FA6892699A61FB689B69FA68D269DA61A1
:10389000FB689B69FA6892699168FA6892688A186D
:1038A0009A60FB684FF000029A61FB684FF00002DB
:1038B000DA6107F11407BD4680BC704780B582B05D
:1038C00000AF41F23C03C2F200031B687B6031E0B1
:1038D0007B681B79002B0FD17B681B681846FFF7AC
:1038E00081FF7B684FF001025A717B681B697A681F
:1038F00052691046984717E07B681B79012B21D14C
:103900007B681B681846FFF76DFF7B68DA687B6889
:103910009A607B681B681846FFF75AFE7B681B6934
:103920007A6852691046984741F23C03C2F200039C
:103930001B687B607B68002B05D07B689B68002B35
:10394000C6D000E000BF07F10807BD4680BD00BF3C
:1039500080B582B000AF41F23C03C2F200031B68A5
:103960007B6041F24403C2F200031B6803F10102D1
:1039700041F24403C2F200031A607B68002B10D0AE
:103980007B689B68012B06D97B689B6803F1FF323B
:103990007B689A6005E07B684FF000029A60FFF751
:1039A0008DFF07F10807BD4680BD00BF80B582B01E
:1039B00000AF4FF000037B6041F23C03C2F2000312
:1039C0004FF000021A6000F0B1FD4DF2C040C0F2AD
:1039D0000100FFF7CBFD7860FFF74EFD0346184668
:1039E0004FF00A014FF00002FFF784FD03464FF04D
:1039F000FF301946FFF750FD41F24003C2F20003C9
:103A00004FF000021A6007F10807BD4680BD00BFF5
:103A100080B489B000AFF8607A603B600B46FB72FF
:103A20004FF00003FB614FF00003BB614FF0000358
:103A30007B61FB7A002B05D0FB7A012B02D04FF083
:103A400001037B61FB68002B02D14FF001037B6116
:103A5000FB68002B02D14FF001037B617B68002BD8
:103A600002D14FF001037B617B69002B40F098800D
:103A70004FF00003BB618FE041F24003C2F200034C
:103A80001A68BB6922FA03F303F00103002B7FD10C
:103A9000BB694FF0010202FA03F241F24003C2F2A5
:103AA00000031B681A4341F24003C2F200031A608C
:103AB00041F27C23C2F20003BA694FEA42129B181A
:103AC000BA691A6041F27C23C2F20003BA694FEA74
:103AD00042129B18FA7A1A7141F27C23C2F2000357
:103AE000BA694FEA42129B184FF001025A71FB6803
:103AF00003F1010241F27C23C2F20003B9694FEAEB
:103B000041115B1803F108031A6041F27C23C2F2F1
:103B10000003BA694FEA42129B1803F10C03FA68DA
:103B20001A6041F27C23C2F20003BA694FEA4212E2
:103B30009B1803F110037A681A6041F27C23C2F2E9
:103B40000003BA694FEA42129B1803F114033A6862
:103B50001A6041F27C23C2F20003BA694FEA4212B2
:103B60009B1803F11C034FF000021A6041F27C2302
:103B7000C2F20003BA694FEA42129B1803F118031C
:103B80004FF000021A60BB6903F10103FB6107E01B
:103B9000BB6903F10103BB61BB691F2B7FF66CAFEF
:103BA000FB69184607F12407BD4680BC704700BF7B
:103BB00080B584B000AF78604FF00003FB607B6895
:103BC000202B02D94FF00103FB6041F24003C2F207
:103BD00000031A687B6803F1FF3322FA03F303F052
:103BE0000103002B02D14FF00103FB607B6803F15E
:103BF000FF3241F27C23C2F200034FEA42129B18CB
:103C000003F108031B68002B02D14FF00103FB6096
:103C1000FB68002B1FD17B6803F1FF3241F27C234C
:103C2000C2F200034FEA42129B185B79002B12D0BC
:103C30007B6803F1FF3241F27C23C2F200034FEABA
:103C400042129B184FF000025A717B6803F1FF3358
:103C50001846FFF7BDFCFB68184607F11007BD4684
:103C600080BD00BF80B584B000AF78604FF0000326
:103C7000FB607B68202B02D94FF00103FB6041F20F
:103C80004003C2F200031A687B6803F1FF3322FA93
:103C900003F303F00103002B02D14FF00103FB609B
:103CA000FB68002B1FD17B6803F1FF3241F27C23BC
:103CB000C2F200034FEA42129B185B79012B12D02B
:103CC0007B6803F1FF331846FFF78CFD7B6803F137
:103CD000FF3241F27C23C2F200034FEA42129B18EA
:103CE0004FF001025A71FB68184607F11007BD46F4
:103CF00080BD00BF80B584B000AF78604FF0000396
:103D0000FB607B68202B02D94FF00103FB6041F27E
:103D10004003C2F200031A687B6803F1FF3322FA02
:103D200003F303F00103002B02D14FF00103FB600A
:103D3000FB68002B26D17B6803F1FF3241F27C2324
:103D4000C2F200034FEA42129B185B79002B05D1A7
:103D50007B6803F1FF331846FFF744FD7B6803F1EE
:103D6000FF334FF0010202FA03F36FEA030241F25C
:103D70004003C2F200031B681A4041F24003C2F242
:103D800000031A60FB68184607F11007BD4680BDA6
:103D900080B400AF41F24403C2F200031B6818462E
:103DA000BD4680BC704700BF80B485B000AF78606E
:103DB0007A684DF2C043C0F2010303FB02F3FB60DB
:103DC000FB68184607F11407BD4680BC704700BF6A
:103DD00080B487B000AF78604FF000037B614FF094
:103DE00000033B614FF48843C5F20003FB607B682E
:103DF0004FEA13737B61FB6803F1100319467A697C
:103E000013464FEA43039B184FEA8303CB183B61E9
:103E10007B6823F070423B691A6007F11C07BD46BE
:103E200080BC704780B487B000AF78604FF000036B
:103E30007B614FF000033B614FF48843C5F2000300
:103E4000FB607B684FEA13737B61FB6803F114032B
:103E500019467A6913464FEA43039B184FEA8303D6
:103E6000CB183B617B6823F070423B691A6007F115
:103E70001C07BD4680BC704780B483B000AF4FF4D0
:103E80008843C5F200037B604FF00003FB707B6842
:103E90001B68FB70FB78184607F10C07BD4680BC19
:103EA000704700BF80B489B000AF78604FF00F0357
:103EB000FB614FF00003BB614FF000037B614FF0EB
:103EC00000033B614FF48843C5F20003FB607B684D
:103ED0004FEA1373BB61FB6803F10C031946BA691F
:103EE00013464FEA43039B184FEA8303CB187B61C9
:103EF0007B691A687B68134023F070433B613B6920
:103F0000002B03D04FF00103FB6102E04FF00003F0
:103F1000FB61FB69184607F12407BD4680BC70476A
:103F200080B483B000AF4FF48843C5F200037B60D8
:103F30007B689B6843F001027B689A6007F10C077D
:103F4000BD4680BC704700BF80B485B000AF7860CC
:103F50007B6803F00703FB604FF46D43CEF2000370
:103F6000DB68BB60BA684FF6FF031340BB60FB68B9
:103F70004FEA0322BB68134343F0BF6343F40033AB
:103F8000BB604FF46D43CEF20003BA68DA6007F10C
:103F90001407BD4680BC704780B500AF4FF00100EC
:103FA000FFF7D2FF00F03CF800F0C0FA00F0D8FCB8
:103FB000FFF7FCFC00F008F880BD00BF80B500AF43
:103FC00000F0B4FA80BD00BF80B400AF4FF4884366
:103FD000C4F601034FF48842C4F60102126822F0CD
:103FE00040021A604FF48843C4F601034FF488423C
:103FF000C4F60102126822F001021A604FF4014374
:10400000C4F602034FF40142C4F60202926922F49C
:10401000384242F410429A61BD4680BC704700BFEE
:1040200080B400AFBD4680BC704700BF80B485B08F
:1040300000AF78604FF00003FB6007E000BF00BFF7
:1040400000BF00BFFB6803F10103FB60FA687B68F7
:104050009A42F3D307F11407BD4680BC704700BFF6
:1040600080B483B000AF4FF001037B6044F2107363
:10407000C5F200035A684FF00203C0F20103134077
:10408000002B02D04FF000037B607B68184607F1DD
:104090000C07BD4680BC704780B500AF4FF4844329
:1040A000C5F200031B6803F00103002B0BD14FF492
:1040B0008443C5F200034FF48442C5F20002526803
:1040C00042F001025A604FF48843C5F200031B68B6
:1040D00003F40073002B0BD04FF48843C5F20003A8
:1040E0004FF48842C5F20002926842F400729A606E
:1040F00044F21073C5F2000344F21072C5F20002DC
:10410000526822F480125A604FF06400FFF78EFF6D
:1041100044F21073C5F2000344F21072C5F20002BB
:10412000526842F400225A6080BD00BF80B582B060
:1041300000AF4FF001037B6044F21073C5F200033F
:1041400044F21072C5F20002526822F4803222F06A
:1041500002025A604FF48E43C5F200035B6803F01D
:104160003003002B54D04FF48E43C5F200034FF4BC
:104170008E42C5F20002526822F030025A604FF4BB
:104180008E43C5F200034FF48E42C5F2000252681E
:1041900042F440325A6044F21073C5F2000344F214
:1041A0001072C5F20002D26822F00102DA6044F215
:1041B0001073C5F2000344F21072C5F20002526897
:1041C00022F400325A6044F250633B604FF00A0020
:1041D000FFF72CFF3B6803F1FF333B6044F21073A1
:1041E000C5F200031B6803F46073B3F5607F02D06F
:1041F0003B68002BEAD144F21073C5F200031B6840
:1042000003F46073B3F5607F02D04FF000037B606E
:104210007B68184607F10807BD4680BD80B582B0AF
:1042200000AF4FF001037B6044F21073C5F200034E
:104230001B6803F00403002B40F0978041F2480311
:10424000C2F200034FF46052C1F69C421A6041F280
:104250004803C2F200031A6849F68173C1F25E6333
:10426000A3FB02134FEA535303F1FF3241F24C0315
:10427000C2F200031A6044F21073C5F2000344F264
:104280001072C5F20002526842F001025A6044F214
:104290001073C5F2000344F21072C5F200025268B6
:1042A00042F010025A6044F21073C5F2000341F26A
:1042B0004C02C2F2000212684FEA024242F41C525F
:1042C0009A6044F21073C5F2000344F21072C5F212
:1042D0000002526842F040025A6044F21073C5F284
:1042E000000344F21072C5F20002526822F010027C
:1042F0005A6044F21073C5F2000344F21072C5F222
:104300000002526842F480225A6044F250633B60DB
:104310004FF00A00FFF78AFE3B6803F1FF333B6072
:1043200044F21073C5F200031B6803F00403002B72
:1043300002D13B68002BEBD144F21073C5F20003AD
:104340001B6803F00403002B0CD044F21073C5F279
:10435000000344F21072C5F20002526822F001021A
:104360005A6002E04FF000037B607B68184607F15B
:104370000807BD4680BD00BF80B582B000AF4FF0DA
:1043800001037B6044F21073C5F2000344F2107223
:10439000C5F20002526822F040025A6041F248031E
:1043A000C2F200034FF46052C1F69C421A604FF013
:1043B0006400FFF73BFE41F24803C2F200031B68B2
:1043C0004FEA132245F2C743C0F21E13A3FB0213A8
:1043D0004FEA932303F1FF3241F24C03C2F2000390
:1043E0001A6044F21073C5F2000341F24C02C2F2AB
:1043F000000212684FEA024242F41C529A604FF0E7
:104400006400FFF713FE41F24803C2F200031B6889
:104410004FEAD3124EF22F33C0F2BE03A3FB0213B6
:104420004FEAD32303F1FF3241F24C03C2F20003FF
:104430001A6044F21073C5F2000341F24C02C2F25A
:10444000000212684FEA024242F41C529A604FF096
:104450009600FFF7EBFD44F21073C5F200034FF432
:104460001C52C0F203029A6044F21073C5F20003BA
:104470009B6803F070634FEA1363002B1ED144F274
:104480001073C5F200039B6803F4FE434FEA132345
:10449000272B13D144F21073C5F200039B6803F07D
:1044A0007F03002B0AD144F21073C5F200039B680E
:1044B00003F4FE034FEA1343032B02D04FF0000333
:1044C0007B6044F26013C5F200034FF00502DA602E
:1044D0007B68184607F10807BD4680BD80B582B0ED
:1044E00000AF4FF001037B60FFF7D6FD4FF0640093
:1044F000FFF79CFDFFF71AFE7860FFF78FFE7860EC
:104500004FF48C43C5F200034FF48C42C5F2000215
:10451000D26842F48032DA60FFF72EFF78607B6861
:10452000184607F10807BD4680BD00BF80B582B0C0
:1045300000AF4FF000037B60FFF792FD0346002BB6
:1045400005D1FFF7CBFF03467A6813437B60FEF784
:1045500077FB07F10807BD4680BD00BF80B400AF00
:104560004FF000031846BD4680BC704780B500AFD1
:1045700041F25003C2F200031B78002B42D14FF0EE
:104580001000C1F20000FFF74DFC4FF48043C4F669
:1045900001034FF48042C4F60102126822F00102C6
:1045A0001A6000BF4FF48043C4F601031B6803F098
:1045B0000203002BF6D14FF48043C4F601034FF4FD
:1045C0008042C4F60102D26842F48042DA604FF4BD
:1045D0008043C4F601034FF48042C4F60102D2685E
:1045E0006FEA92226FEA8222DA6041F25003C2F24D
:1045F00000031B7803F10103DAB241F25003C2F267
:1046000000031A7080BD00BF80B483B000AF0246C3
:104610000B46FA71BB714FF48043C4F60103FA797B
:1046200002F101024FEA0261BA794FEA02420A43FB
:1046300042F00202C3F8C42100BF4FF48043C4F625
:104640000103D3F8C43103F48073002BF5D107F1D3
:104650000C07BD4680BC704780B485B000AF786061
:104660004FF00003FB604FF48043C4F60103D3F81E
:104670000031DBB2FB604FF48043C4F60103FA68FB
:104680004FEA02617A684FEA02420A4342F00402AA
:10469000C3F8C42100BF4FF48043C4F60103D3F82C
:1046A000C43103F48073002BF5D107F11407BD4624
:1046B00080BC704780B485B000AF78600B46FB705B
:1046C000FB7803F1107303F528634FEA4313BB60D3
:1046D0004FF00003FB60BB684FF02002DA617B689B
:1046E0001B7A002B25D17B681B684FEA83424FF071
:1046F0000003C1F6FC73134043F00042BB689A61AB
:104700007B685B7A012B0DD17B685B684FEA834243
:104710004FF00003C1F6FC73134043F00052BB6836
:10472000DA601BE07B685B6823F06042BB68DA609C
:1047300014E07B681B6823F0604343F02042BB68B1
:104740009A617B685B7A4FEA437303F000527B689F
:104750005B6823F060431A43BB68DA607B681B7DAB
:10476000012B77D17B689B7A4FEA036303F0706279
:10477000BB681B6823F070631A43BB681A604FF074
:104780000003FB6059E0FB68032B23D87A68FB68C1
:10479000D31803F10803DB781A46FB684FEAC3031A
:1047A00002FA03F2FB684FEAC3034FF0FF0101FA7C
:1047B00003F31A40BB681969FB684FEAC3034FF063
:1047C000FF0000FA03F36FEA03030B401A43BB68D0
:1047D0001A612EE07A68FB68D31803F10803DB78CE
:1047E0001A46FB6803F10053A3F104034FEAC30325
:1047F00002FA03F2FB6803F10053A3F104034FEA4A
:10480000C3034FF0FF0101FA03F31A40BB68596973
:10481000FB6803F10053A3F104034FEAC3034FF015
:10482000FF0000FA03F36FEA03030B401A43BB686F
:104830005A61FB6803F10103FB607B689B7A1A46AF
:10484000FB689A429FD8BA684FF00003C0F608038D
:10485000D36103E0BB684FF40062DA61BB684FF0DC
:10486000D462DA6107F11407BD4680BC704700BF0F
:1048700080B586B000AF78604FF000037B614FF4E5
:10488000A043C4F601033B617B689B68FB6000BFEB
:104890004FF48043C4F60103D3F8C43103F48073AA
:1048A000002BF5D1FB681B6843F04102FB681A60DE
:1048B0007B681B794FEAC3327B68DB784FEA0333AE
:1048C0001A437B689B784FEA03231A437B685B7823
:1048D0004FEA83131A437B681B781A43FB681A61FB
:1048E0007B685B7B012B05D1FB68DB6843F480723E
:1048F000FB68DA604FF000037B6127E07B681A7B7E
:104900007B68997B7B69DBB2CB18DBB2104619461A
:10491000FFF77AFE7B689A7B7B69DBB2D318FB7268
:10492000FB7A03F1107303F528634FEA43133B61ED
:104930007B681B7B4FEA43327B694FEA03231A43B0
:104940003B699A607B6903F101037B617B68DB7BD8
:104950001A467B699A42D1D807F11807BD4680BD37
:1049600080B500AFFFF702FE48F2AC40C0F6000091
:10497000FFF77EFF48F2AC40C0F6000040F288111D
:10498000C2F200014FF0010200F0EEF848F2AC4034
:10499000C0F6000040F2A011C2F200014FF0020286
:1049A00000F0E2F848F2AC40C0F6000040F2B81166
:1049B000C2F200014FF0030200F0D6F848F2AC401A
:1049C000C0F6000040F2D011C2F200014FF0040224
:1049D00000F0CAF848F2AC40C0F6000040F2E8111E
:1049E000C2F200014FF0050200F0BEF848F2AC4000
:1049F000C0F6000040F20021C2F200014FF00602B2
:104A000000F0B2F848F2AC40C0F6000040F21821C5
:104A1000C2F200014FF0070200F0A6F848F2AC40E5
:104A2000C0F6000040F23021C2F200014FF008024F
:104A300000F09AF848F2AC40C0F6000040F248217D
:104A4000C2F200014FF0090200F08EF848F2AC40CB
:104A5000C0F6000040F26021C2F200014FF00A02ED
:104A600000F082F880BD00BF80B588B000AF7860EC
:104A70004FF00003FB614FF00003BB614FF4A04314
:104A8000C4F601037B617B689B683B617B68DB7BD1
:104A900003F1FF33FB6136E07B689A7BFB69DBB295
:104AA000D318FB73FB7B03F1107303F528634FEA04
:104AB00043137B617B694FF000021A607B699B683E
:104AC000DAB27B699A607B696FF04042DA607B6999
:104AD0004FF000021A617B694FF000025A617B6956
:104AE0004FF000029A617B6940F6FF72DA617B68E1
:104AF0009B7B1A46FB69D3181846FFF7ADFDFB698F
:104B000003F1FF33FB61FB69002BC5DA3B694FF012
:104B100041021A603B694FF000025A603B69DB6852
:104B200003F00F023B69DA603B694FF4C0025A613F
:104B30003B694FF000029A613B694FF000021A6135
:104B40007B681B7B1A4645F25003C1F20023D31841
:104B50004FEA8303BB61BB694FF000021A6007F1A3
:104B60002007BD4680BD00BF80B588B000AFF860AB
:104B7000B9601346FB714FF00203FB61FB689A7B3F
:104B8000FB79D318DBB203F1FF33FB76FB7E03F135
:104B9000107303F528634FEA43137B61BB681B7AEC
:104BA000002B03D0BB681B7A012B0FD1BB68DB7CC9
:104BB000012B03D0BB68DB7C002B07D1BB681B7DBE
:104BC000002B07D0BB681B7D012B03D04FF00603E1
:104BD000FB611AE0BB68DB7C002B07D17B694FF0DF
:104BE0002002DA614FF00003FB610EE0FB689A7B64
:104BF000FB79D318DBB203F1FF33DBB2B868194697
:104C0000FFF758FD4FF00003FB61FB69184607F101
:104C10002007BD4680BD00BF80B487B000AF78607C
:104C20000B46FB704FF005037B617B689A7BFB783A
:104C3000D318DBB203F1FF33FB74FB7C03F1107379
:104C400003F528634FEA4313FB60FB68DB6903F459
:104C500000634FEAD323012B03D04FF001037B61A4
:104C60001EE0FB68DB6903F020034FEA5313002BBF
:104C700003D14FF003037B6112E0FB68DB6903F4AF
:104C800080734FEA1323012B03D14FF004037B61A0
:104C900006E0FB684FF08072DA614FF000037B6141
:104CA0007B69184607F11C07BD4680BC704700BFF2
:104CB00080B487B000AF78600B46FB704FF0000304
:104CC0007B617B689A7BFB78D318DBB203F1FF33FF
:104CD000FB74FB7C03F1107303F528634FEA431365
:104CE000FB60FB68DB6903F400634FEAD323002B0E
:104CF00003D04FF001037B611EE0FB68DB6903F02A
:104D000020034FEA5313002B03D14FF003037B61C1
:104D100012E0FB68DB6903F480734FEA1323012B75
:104D200003D14FF004037B6106E0FB684FF0807213
:104D3000DA614FF000037B617B69184607F11C07BD
:104D4000BD4680BC704700BF80B489B000AFF8603A
:104D5000B9601346FB714FF00503FB614FF0000390
:104D6000BB614FF00003FB754FF00003BB75FB68A0
:104D70009A7BFB79D318DBB203F1FF337B757B7D24
:104D800003F1107303F528634FEA43133B613B695A
:104D9000DB6903F400634FEAD323002B03D04FF009
:104DA0000103FB61CAE03B69DB6903F004034FEADE
:104DB0009303012B03D14FF00403FB61BEE03B6979
:104DC0004FF00802DA613B699B6903F000534FEA38
:104DD0005373002B2ED1BB684FF000021A723B694F
:104DE0009A694FF00003C1F6FC7313404FEA9342F7
:104DF000BB681A603B69DB6803F000534FEA5373EA
:104E0000DAB2BB685A72BB685B7A012B0BD13B6983
:104E1000DA684FF00003C1F6FC7313404FEA934287
:104E2000BB685A601FE03B69DB6823F06042BB68E7
:104E30005A6018E0BB684FF001021A723B699B6927
:104E400023F06042BB681A603B69DB6823F0604274
:104E5000BB685A603B69DB6803F000534FEA537349
:104E6000DAB2BB685A723B691B6803F070634FEAA1
:104E70001363DAB2BB689A724FF00003BB613BE088
:104E8000BB69032B16D83B691A69BB694FEAC30398
:104E90004FF0FF0101FA03F31A40BB694FEAC30365
:104EA00022FA03F3DAB2B968BB69CB1803F108033D
:104EB000DA701DE03B695A69BB6903F10053A3F145
:104EC00004034FEAC3034FF0FF0101FA03F31A4052
:104ED000BB6903F10053A3F104034FEAC30322FAB1
:104EE00003F3DAB2B968BB69CB1803F10803DA70CF
:104EF000BB6903F10103BB61BB689B7A1A46BB69BE
:104F00009A42BDD83B69DB6903F004034FEA93037F
:104F1000FB753B69DB6903F008034FEAD303BB75FC
:104F2000FB7D002B03D0BB7D002B7FF448AFBB681B
:104F30004FF000021A754FF00003FB61FB69184641
:104F400007F12407BD4680BC704700BF80B489B01C
:104F500000AFF8607B600B46FB721346BB724FF0EC
:104F60000503FB614FF00003BB61FB689A7BFB7A92
:104F7000D318DBB203F1FF33FB75FB7D03F1107334
:104F800003F528634FEA43133B61BB7A082B03D92F
:104F90004FF00603FB6182E03B69DB6903F40063C9
:104FA0004FEAD323012B03D04FF00103FB6176E0DE
:104FB0003B694FF02002DA61BB7A4FEA036303F0EA
:104FC00070623B691B6823F070631A433B691A6087
:104FD0004FF00003BB6155E0BB69032B21D87A6811
:104FE000BB69D3181B781A46BB694FEAC30302FAA0
:104FF00003F2BB694FEAC3034FF0FF0101FA03F369
:105000001A403B691969BB694FEAC3034FF0FF00BF
:1050100000FA03F36FEA03030B401A433B691A617A
:105020002CE07A68BB69D3181B781A46BB6903F178
:105030000053A3F104034FEAC30302FA03F2BB696E
:1050400003F10053A3F104034FEAC3034FF0FF0140
:1050500001FA03F31A403B695969BB6903F1005334
:10506000A3F104034FEAC3034FF0FF0000FA03F378
:105070006FEA03030B401A433B695A61BB6903F1B2
:105080000103BB61BA7ABB699A42A5D83A694FF06D
:105090004003C0F2A863D3614FF00003FB61FB69DA
:1050A000184607F12407BD4680BC704780B487B01E
:1050B00000AF786013460A46FA70BB704FF00503E4
:1050C0007B617B689A7BFB78D318DBB203F1FF33FB
:1050D000FB74FB7C03F1107303F528634FEA431361
:1050E000FB60FB68DA69BB781340002B03D04FF0FC
:1050F00001037B6102E04FF000037B617B6918468E
:1051000007F11C07BD4680BC704700BF80B485B066
:1051100000AF78600B467B804FF00503FB607B6837
:105120009B68BB60BB685A687B881340002B03D028
:105130004FF00103FB6002E04FF00003FB60FB68EF
:10514000184607F11407BD4680BC704780B485B08F
:1051500000AF78600B46FB704FF00503FB607B6887
:105160001B7B1A4645F25003C1F20023D3184FEAC5
:105170008303BB60BB681A68FB7803F1FF334FF011
:10518000FF3101FA03F31A40FB7803F1FF3322FAEF
:1051900003F3FB60FB68184607F11407BD4680BCAB
:1051A000704700BF80B487B000AF786013460A46EE
:1051B000FA70BB704FF005037B617B689A7BFB78CC
:1051C000D318DBB203F1FF33FB74FB7C03F11073E4
:1051D00003F528634FEA4313FB60FB78002B04D0F0
:1051E0007B68DB7BFA789A4203D94FF002037B613C
:1051F00007E0BB7803F01B02FB68DA614FF00003A5
:105200007B617B69184607F11C07BD4680BC70476F
:1052100080B485B000AF78600B467B807B689B686C
:10522000FB60FB685A687B8803F478736FEA0303BA
:105230001A40FB685A6007F11407BD4680BC7047EE
:1052400080B485B000AF78600B46FB704FF005036B
:10525000FB604FF00003BB60FB78002B04D07B6841
:10526000DB7BFA789A4203D94FF00203FB601BE024
:105270007B681B7B1A4645F25003C1F20023D3180A
:105280004FEA8303BB60BB681A68FB7803F1FF3306
:105290004FF0010101FA03F36FEA03031A40BB6800
:1052A0001A604FF00003FB60FB68184607F1140713
:1052B000BD4680BC704700BF80B483B000AF78604B
:1052C00007F10C07BD4680BC704700BF80B483B0B7
:1052D00000AF786007F10C07BD4680BC704700BF87
:1052E00080B483B000AF786007F10C07BD4680BC86
:1052F000704700BF0FB480B400AFBD4680BC04B09F
:10530000704700BF0FB480B400AFBD4680BC04B08E
:10531000704700BF0FB480B400AFBD4680BC04B07E
:10532000704700BF80B483B000AF786039604FF041
:105330000003184607F10C07BD4680BC704700BF4C
:1053400080B483B000AF78604FF00003184607F1D7
:105350000C07BD4680BC70470EB480B482B000AF6D
:10536000786007F10807BD4680BC03B0704700BFF6
:1053700080B500AFFEF710FE80BD00BF80B500AF66
:1053800062B6FDF74DFA41F25403C2F200031B6806
:10539000184600F075F880BD80B400AFBD4680BCF3
:1053A000704700BF80B400AFBD4680BC704700BFEF
:1053B00080B483B000AF786007F10C07BD4680BCB5
:1053C000704700BF80B483B000AF786007F10C076E
:1053D000BD4680BC704700BF80B483B000AF78602A
:1053E00007F10C07BD4680BC704700BF80B582B096
:1053F00000AF786041F28463C2F200031B689A68D0
:1054000041F28463C2F200031B68DB6818469047D0
:1054100007F10807BD4680BD80B485B000AFF860D5
:10542000B9607A603B60FB68BA689A60FB687A682A
:10543000DA60FB683A681A61FB68BA695A61FB680E
:10544000FA699A6141F25403C2F200031B68002B0F
:1054500006D141F25403C2F20003FA681A6000E078
:10546000FEE707F11407BD4680BC704780B483B0E7
:1054700000AF786007F10C07BD4680BC704700BFE5
:1054800080B582B000AF78607B685B697A689269AA
:105490001046984707F10807BD4680BD80B483B029
:1054A00000AF786007F10C07BD4680BC704700BFB5
:1054B00080B483B000AF786007F10C07BD4680BCB4
:1054C000704700BF80B400AF41F27C63C2F20003BA
:1054D0004FF000025A6041F27C63C2F200034FF0C9
:1054E00000021A60BD4680BC704700BF80B483B024
:1054F00000AF786072B67A6841F27C63C2F2000352
:1055000093E8030082E8030062B607F10C07BD468A
:1055100080BC704780B400AF41F27C63C2F20003EC
:105520005B6803F5742202F5107241F27C63C2F2EB
:1055300000035A6041F27C63C2F200035A684CF6E1
:10554000FF13C3F69A339A421ADD41F27C63C2F22A
:1055500000035A684FF45853CCF26543D31841F214
:105560007C62C2F20002536041F27C63C2F200032B
:105570001B6803F1010241F27C63C2F200031A606E
:10558000BD4680BC704700BF80B485B000AFF860F6
:10559000B9607A603B60FB684FF000021A61BB683B
:1055A0001A68FB681A60BB685A68FB685A60FB6837
:1055B0007A689A60FB683A68DA6041F28463C2F202
:1055C0000003FA681A6007F11407BD4680BC7047F3
:1055D00080B483B000AF786007F10C07BD4680BC93
:1055E000704700BF80B483B000AF786007F10C074C
:1055F000BD4680BC704700BF80B483B000AF786008
:1056000007F10C07BD4680BC704700BF80B500AFF6
:1056100041F25C03C2F200031B78002B0CD141F273
:105620005C03C2F200034FF001021A7041F258000D
:10563000C2F20000FFF7BCFE41F25803C2F20003C1
:10564000184680BD80B485B000AFF860B9607A605C
:105650004FF00003184607F11407BD4680BC7047A1
:1056600080B588B000AFF8607A603B600B467B8104
:105670004FF00803FB61FA697B68D318BB614FF0F8
:1056800000037B61FB685B68002B29D0FB685A68CC
:10569000BB699BB21046194600F054F978617B69EA
:1056A000002B1ED0FB681B7A1A467B699A807B69A7
:1056B0007A89DA807B68002B0BDD3B68002B08D0F1
:1056C000FB697A69D2187B68104639681A4601F07E
:1056D0008FFBFB685B681846796900F0F7F800E01B
:1056E00000BF07F12007BD4680BD00BF80B586B072
:1056F00002AFF860B960FA80BB80FB68BA681A62D2
:10570000FB68FA889A84FB68BA88DA84FB68BA6A0C
:105710009A62FB6897F82C2083F86820FB6803F1F5
:105720001003184600F0EAFAFB68184600F0E6FAA3
:10573000F86800F09DF8FB6803F14803184600F094
:10574000B5FAFB6803F14C03184600F0AFFAFB68AA
:1057500003F150031846FFF72BFEFB6803F12C0200
:1057600045F61123C0F600030093FB680193104631
:10577000B969FA6948F2BC43C0F60003FFF74CFE72
:1057800097F82C30002B03D097F82C30022B0DD13A
:10579000FB6803F1540207F120031046194645F651
:1057A000A522C0F60002FB68FFF7EEFE07F1100726
:1057B000BD4680BD80B582B000AF78607B6803F1E4
:1057C0002C031846FFF752FE7B6893F86830002BD5
:1057D00004D07B6893F86830022B05D17B6803F115
:1057E00054031846FFF7F4FE07F10807BD4680BDD5
:1057F00080B586B000AF78607B6893F86830002B86
:1058000004D07B6893F86830022B05D17B6803F1E4
:1058100054031846FFF7E6FE4FF000037B757B68E4
:105820003B614FF001033B7507F10C03184600F094
:10583000B9F907F11807BD4680BD00BF80B582B039
:1058400000AF78607B6803F14803184600F038FA2F
:105850007B6803F14C03184600F032FA7B6803F1D1
:1058600050031846FFF7AEFD07F10807BD4680BD9F
:1058700080B584B000AF78604FF00003FB8114E086
:105880007B681A6AB7F90E307968C98C01FB03F39B
:10589000D318BB607B6803F110031846B96800F0A9
:1058A0004BFAFB8903F10103FB81B7F90E207B68FA
:1058B0009B8C9A42E4DB7B6803F11003184600F0EE
:1058C00009FB07F11007BD4680BD00BF80B582B05F
:1058D00000AF786039607B6803F14C03184600F034
:1058E000F9F97B681846396800F026FA7B6803F1FD
:1058F00050031846FFF770FD7B6803F14C03184610
:1059000000F0F2F907F10807BD4680BD80B584B00C
:1059100000AF78607B6803F14C03184600F0DAF9B9
:105920007B68184600F040FAF8607B6803F14C038E
:10593000184600F0D9F9FB68184607F11007BD4674
:1059400080BD00BF80B584B000AF78600B467B801F
:105950007B6803F14803184600F0BCF97B68DB8CD8
:105960007A889A421FD87B689B8B1BB2002B0EDD76
:105970007B6803F11003184600F016FAF8607B68A4
:1059800003F14803184600F0AFF9FB681EE07868A1
:1059900000F074F8034648F2CC40C0F60000194607
:1059A000FFF7A8FC0AE07A887B68DB8C48F2085095
:1059B000C0F6000011461A46FFF79CFC7B6803F115
:1059C0004803184600F090F94FF00003184607F11D
:1059D0001007BD4680BD00BF80B582B000AF7860C3
:1059E00039607B6803F14803184600F073F97B685F
:1059F00003F110031846396800F09EF97B6803F143
:105A00004803184600F070F907F10807BD4680BD4D
:105A100080B584B000AF78604FF00103FB7326E0DF
:105A20007868FFF773FFB8607B689B6AB86898472F
:105A30000346002B02D14FF00003FB737868B9686E
:105A4000FFF7CAFF00E000BF7B68184600F014FAB9
:105A50000346002B02D0FB7B002BE1D1FB7B002B0C
:105A600005D07B6803F150031846FFF7BFFCFB7BB2
:105A7000002BE8D107F11007BD4680BD80B584B08A
:105A800000AF78607B6803F11003184600F014FA49
:105A90000346FB81FB891BB2184607F11007BD4680
:105AA00080BD00BF80B586B000AF78607B687B6149
:105AB0004FF000037B747B69FB604FF001033B7484
:105AC00007F10803184600F013F807F11807BD4660
:105AD00080BD00BF80B483B000AF78607B681B8856
